:100000000C94E1030C9428040C9428040C94280408
:100010000C9428040C9428040C9428040C942804B0
:100020000C9428040C9428040C941E250C94F2259E
:100030000C9428040C9428040C9428040C94280490
:100040000C9428040C94EB200C9428040C942804A1
:100050000C9428040C9493200C9428040C942804E9
:100060000C9428040C9428040C9428040C94280460
:100070000C9428040C9428040C9428040C94280450
:100080000C9428040C9428040C9428040C94280440
:100090000C9428040C9428040C9428040C94280430
:1000A0000C9428040C9428040C94280400002900C3
:1000B0002B00E10000000000000000000000000034
:1000C0001400000004001D00E0000000000000001B
:1000D000000000001A00160000001B00E3000000F2
:1000E00000000000000000000800070006000000FB
:1000F000F65C000000000000000000001500090090
:100100001900015100000000000000000000000084
:1001100017000A0005002C0000000000000000008D
:1001200000000000000000000000000000000000CF
:100130001C000B001100280000000000000000005F
:100140000000180000000D00100002510000000027
:100150000000000000000C000E0000003600F75CFC
:100160000000000000000000000012000F00370037
:100170000000E70000000000000000000000130085
:1001800033003800E4000000000000000000000020
:1001900000002A003400E5000000000000003504E3
:1001A000010001000100000000000000000000004C
:1001B0001E00000000000000010000000000000020
:1001C000000000001F00000000000000010000000F
:1001D00000000000000000002000000000000000FF
:1001E00001000000000000000000000021000000ED
:1001F00000000151000000000000000000000000AD
:1002000022002D002F00010000000000000000006F
:1002100000000000000000000000000000000000DE
:1002200023002E003000010000000000000000004C
:100230000000240000000000000003510000000046
:100240000000000000002500000000000000010088
:100250000000000000000000000026000000000078
:100260000000010000000000000000000000270066
:10027000000000000100000000000000000000007D
:1002800000004C00000001000100000000003504E7
:10029000010001000100000000000000000000005B
:1002A00000000000500000000100000000000000FD
:1002B000000000005200510000000000010000009A
:1002C000000000000000000000004F0000000000DF
:1002D0000100000000000000000000003A003C00A7
:1002E0003E0003510000000000000000000000007C
:1002F0003B003D003F000100000000000000000046
:1003000000000000000000000000000000000000ED
:100310004000420044000100000000000000000016
:1003200000004100000043004500025100000000B1
:1003300000000000000000000000000000000100BC
:100340000000000000000000000046004A004D00D0
:100350000000010000000000000000000000470055
:100360004B004E00010000000000000000000000F3
:1003700000004800000001000100000000003504FA
:10038000010001000100000000000000000000006A
:1003900000000000C35C000001000000000000003D
:1003A000000000000000C45C00000000010000002C
:1003B00000000000000000000000C55C000000001C
:1003C000010000000000000000000000000000002C
:1003D00000000351000000000000000000000000C9
:1003E000000000000000010000000000000000000C
:1003F00000000000000000000000000000000000FD
:1004000000000000000001000000000000000000EB
:100410000000000000000000000003510000000088
:100420000000000000000000C75C000000000100A8
:10043000000000000000000000000000C95C000097
:1004400000000100000000000000000000000000AB
:10045000CB5C000001000000000000000000000074
:100460000000DF5C00000100010000001E0F05001D
:10047000047F3F1F643214643214783C1E1E140A39
:10048000052223252628292A2C2D2F3032333536D4
:10049000383A3B3D3E4042434547494A4C4E505115
:1004A000535557595A5C5E6062646668696B6D6F3C
:1004B00071737577797B7D7F81838587898A8C8E3F
:1004C00090929496989A9C9E9FA1A3A5A7A8AAAC47
:1004D000AEAFB1B3B4B6B8B9BBBCBEBFC1C2C3C581
:1004E000C6C7C9CACBCCCDCED0D1D2D2D3D4D5D623
:1004F000D7D7D8D9D9DADADBDBDBDCDCDCDCDCDD56
:10050000DDDDDDDCDCDCDCDCDBDBDBDADAD9D9D839
:10051000D7D7D6D5D4D3D2D2D1D0CECDCCCBCAC9D1
:10052000C7C6C5C3C2C1BFBEBCBBB9B8B6B4B3B100
:10053000AFAEACAAA8A7A5A3A19F9E9C9A9896949B
:1005400092908E8C8A89878583817F7D7B79777570
:1005500073716F6D6B6968666462605E5C5A59574F
:10056000555351504E4C4A4947454342403E3D3B0E
:100570003A3836353332302F2D2C2A292826252398
:1005800022FFAA7F55400001010101010101010183
:100590000202020202020202020303030303030334
:1005A0000304040404040404050505050506060601
:1005B0000606070707070708080808090909090ABE
:1005C0000A0A0B0B0B0C0C0C0D0D0D0E0E0E0F0F63
:1005D0000F101011111112121313141415151616F1
:1005E0001717181819191A1A1B1B1C1D1D1E1E1F60
:1005F0002020212222232424252626272829292AAF
:100600002B2C2D2D2E2F30313232333435363738D6
:10061000393A3B3C3D3E3F404142434445464748D2
:10062000494A4C4D4E4F50515354555658595A5BA8
:100630005D5E5F616264656668696B6C6D6F707248
:10064000737577787A7B7D7E8082838587888A8CB4
:100650008E8F91939596989A9C9EA0A2A3A5A7A9E8
:10066000ABADAFB1B3B5B7BABCBEC0C2C4C6C9CBDF
:10067000CDCFD1D4D6D8DBDDDFE2E4E7E9EBEEF095
:10068000F3F5F8FAFDFF0000000000000000000094
:1006900000010204060A0F17202C3A4A5D71879D5B
:1006A000B3C7DAE9F5FCFFFCF5E9DAC7B39D87715A
:1006B0005D4A3A2C20170F0A0604020100000000D0
:1006C000000000000000100361006C00690063007E
:1006D0006F003400380000000E036D0061007200EE
:1006E00062007900330000000403090409023B00A2
:1006F000020100A0FA090400000103010100092120
:10070000110100012240000705810308000A0904C5
:10071000010001030000000921110100012249002C
:100720000705820320000A1201100100000008D80A
:100730000401E900010102000105010902A101858E
:10074000020901A1000509190129081500250195D3
:1007500008750181020501093009311581257F9550
:10076000027508810609381581257F950175088174
:1007700006050C0A38021581257F9501750881064A
:10078000C0C005010906A101050719E029E7150008
:1007900025019508750181029501750881010507FC
:1007A000190029FF150026FF009506750881000530
:1007B00008190129059505750191029501750391A7
:1007C00001C011241FBECFEFDAE0DEBFCDBF04B6FB
:1007D00003FE27C08091670390916803A09169038D
:1007E000B0916A038730904BA740B04BD1F4109280
:1007F0006703109268031092690310926A0314BE93
:1008000084B7877F84BF0FB6F894A8958091600065
:10081000886180936000109260000FBEE0E0F8E312
:10082000099511E0A0E0B1E0EAE6F2E502C005902A
:100830000D92AE36B107D9F723E0AEE6B1E001C0C4
:100840001D92A736B207E1F70E9458220C940F2997
:100850000C94000081E0089581E008950C942C042C
:1008600008950C9430041F93CF93DF9300D000D0F1
:100870000F92CDB7DEB749835A836B833091310233
:1008800089819A8131111DC06623B9F02223A9F014
:100890000E94CE1D182F682F89819A810E947A1D8F
:1008A00069817A81812F0F900F900F900F900F9098
:1008B000DF91CF911F910C94F7040E94A61D182F71
:1008C000EFCF0E94CE1D69817A81EDCFFC01262FEA
:1008D000408151816281738184810C943304CF9370
:1008E000DF93EC0160E00E946604BE01DF91CF91CE
:1008F0000C9431040E94BE060C94E3060C94E606A8
:1009000008950E945C190E9480042FEF84E39CE00C
:10091000215080409040E1F700C000000C94B720C7
:100920000F931F93CF93DF938C0161E00E946604C5
:10093000EC01B8010E942E048823D9F1B801CE0140
:100940000E940A138823A9F1B801CE010E945C130A
:10095000882379F1B801CE010E947F14882349F1E0
:10096000B801CE010E94A511882319F1F8018281F6
:10097000882361F0CB35FDE5DF0721F170F4C11567
:10098000ECE5DE07A1F0CF3DDC45C9F0C801DF9101
:10099000CF911F910F910C942A04CC358DE5D80787
:1009A000A1F0CD35DD4591F70E94751EEFCF0E9475
:1009B000810480E0DF91CF911F910F9108950E94F3
:1009C000DB1FF7CF0E947E1EE1CF0E94811EDECF8B
:1009D00008950C94E80481E008950C94EB04CF93FF
:1009E000C82F0E94E9048C2FCF910C94ED04972F0F
:1009F00070E02AE0929F600D711D1124FB0198E7C1
:100A0000899FE00DF11D1124EE0FFF1FE455FF4FEC
:100A1000859194910895CF93DF930E94F7040E94EB
:100A2000E305EC01811522E5920778F5811531E5A2
:100A3000930708F098C08F3F910509F0B8F48D3EF8
:100A4000910508F06FC0853A910540F48430910516
:100A500048F4019739F0D0E0C0E004C0805E91090D
:100A60000897C8F7CE01DF91CF910895811540E531
:100A7000940708F05CC0C11580E4D80708F054C0A2
:100A8000C11590E2D90770F3E6CF811526E59207EC
:100A900018F5811535E5930708F07DC0811544E50B
:100AA000940708F073C0982F969596959E01237031
:100AB0003327C115D34508F45BC0C1E0D0E002C0C4
:100AC000CC0FDD1F2A95E2F730E2939FC00111247D
:100AD000C82BD92BDA68C6CFC1159AE5D90778F4A7
:100AE000C11529E5D20708F060C0C11538E5D30764
:100AF00008F4B1CFDC2FCC27C06FD06AB3CFCE01C2
:100B000090568115904208F0A6CF8D2F8F710E94CC
:100B10007A0690E0982F882788279F719C012C2BBC
:100B2000E90141C0D0659ECFDF70D06A9BCFE4E081
:100B300096958795EA95E1F783702C2F2695269553
:100B4000237090E2299F90011124382B8C2F837001
:100B5000C1E0D0E002C0CC0FDD1F8A95E2F7C22BC6
:100B6000D32BDC687FCFD82FCC27C16FD06A7ACF48
:100B7000C1E0D0E002C0CC0FDD1F2A95E2F720E2F1
:100B8000929FC0011124C82BD92BEBCFD82FCC2793
:100B9000C46FD06A67CF0E947A06C82FD0E0DC2FDE
:100BA000CC27CC27DF71D0625DCF8C2F8F700E9455
:100BB0007A0634E0D695C7953A95E1F7CF709C2F29
:100BC000EC01D0694FCF82389105B1F1B0F4813397
:100BD000910509F475C048F48932910509F469C09A
:100BE0008A32910509F473C008958533910509F49B
:100BF00059C08933910501F10895833E9105A9F10A
:100C000038F4803E9105F9F0823E910549F108954E
:100C1000863E9105A9F1873E9105C9F1843E910573
:100C200019F52091D80221FF1FC08091D70284FDC1
:100C300014C087EE90E008952091D7022370A1F0B0
:100C400080EE90E008952091D70220FD47C03091BA
:100C5000D80230FF09C024FF44C090E080E004C007
:100C60002091D70222FDF7CF08952091D70222FDCF
:100C70003BC03091D80230FDE3CF24FFF5CFEDCF5C
:100C80002091D70223FFF0CF24FDE7CFD2CF2091D0
:100C9000D70223FD2CC03091D80231FFEECF84EE75
:100CA00090E008952091D70225FFDECF89E290E001
:100CB00008952091D70225FFD7CF85E390E00895CE
:100CC0002091D70226FFD0CF8AE290E008952091AC
:100CD000D70226FFC9CF81E390E0089589E390E031
:100CE000089583EE90E0089582EE90E0089586EEF8
:100CF00090E008959091D70292FF06C0282F2871A6
:100D00002830F9F4877F846093FF06C0282F28716C
:100D10002831F1F4877E84612091D80220FF06C03B
:100D2000382F38713830D9F4877F816021FF06C0B1
:100D3000282F28712831D1F4877E816194FD877E28
:100D40000895282F24712430F9F68B7F8860DCCF3A
:100D5000282F2471243101F78B7E8861DDCF382F55
:100D60003171313019F78E7F8860E0CF282F2171E3
:100D7000213121F78E7E8861E1CF08950E94361FD0
:100D8000811102C00E94DB1F0E94411F8093CA0292
:100D90000E94491F9093D8028093D7020E94BD06FB
:100DA0000E94451F682F70E090E080E00E947C1C4C
:100DB0006091B5027091B6028091B7029091B8022D
:100DC0000C94B61C08950C94E20608950C94E50664
:100DD000E82FF0E0EE0FFF1FEF50FD4F8081918173
:100DE0000895089580EA8A95F1F7089500C008955E
:100DF0000C94F206F894E82FE295EF70F0E031A140
:100E0000282F2F7081E090E001C0880F2A95EAF723
:100E1000982F9095932391A392A1892B82A37894E4
:100E20000895CF93DF93C6E3D1E089910E94FA063B
:100E300081E0C234D807C9F7CCE2D1E089910E94A1
:100E4000FA0681E0C633D807C9F7E9EDF2E0A1EF71
:100E5000B2E0119211921D921D9282E0E13FF807DB
:100E6000C1F78CE00E94B807DF91CF910C947A040F
:100E7000AF92BF92DF92EF92FF920F931F93CF93A7
:100E8000DF93C6E3D1E009ED12E0D12CEE24E39428
:100E9000F12C8991F894E82FE295EF70F0E021A110
:100EA0008F70A70102C0440F551F8A95E2F7CA014F
:100EB000922F982B91A392A18095892382A3789455
:100EC0000E94F606ECE2F1E030E020E0B12CA12C2B
:100ED0004191A42FA295AF70B0E090968C9190E0D4
:100EE0004F7002C0959587954A95E2F780FD3BC00B
:100EF000C701022E02C0880F991F0A94E2F7A82AA0
:100F0000B92A2F5F3F4F2A30310511F7FE01319783
:100F100080810E94FA060E94F806F8018081918182
:100F2000A816B90619F1B182A08281E0D82A0E5F15
:100F30001F4FF1E0C234DF0709F0ABCF2D2D4CE09D
:100F400061EF72E089ED92E00E94B9070E947E0491
:100F50008D2DDF91CF911F910F91FF90EF90DF903A
:100F6000BF90AF90089590E080E0C9CF80E0DECFE1
:100F70000895FF920F931F93CF93DF93F82E092FBD
:100F8000162FD72FC42F222349F081E080937201BE
:100F90000E946C2090937101809370018091720186
:100FA0008823A1F080917001909171010E948420AA
:100FB000069760F0EF2DF02FA12FBD2F90E080E07D
:100FC000D0E08C179D0744F010927201DF91CF9111
:100FD0001F910F91FF900895219131912D933D9391
:100FE0000196EFCF8091790180FF12C060910901D5
:100FF00085E0689FB0011124759567957595679593
:1010000060387105A8F561157105A1F1862F089565
:1010100081FF09C06091090185E0689FB00111243A
:1010200075956795EDCF6091090182FD0AC08091A9
:1010300078018823D1F09091080160910901891706
:1010400028F085E0689FB0011124DACF869FB001B7
:10105000112485E0869F9001879F300D1124692F10
:1010600070E0C9010E94D227CBCF65E070E0CECFFF
:101070008FE7089581E008958091790180FF0CC089
:101080006091050170E07595679575956795611597
:10109000710549F1862F089581FF06C06091050111
:1010A00070E075956795F3CF6091050182FD0BC0E7
:1010B000909177019923A1F060910401809105013D
:1010C000961738F0682F70E06038710500F38FE7ED
:1010D0000895899FC001112470E00E94D227F4CFA7
:1010E00061E070E0D7CF81E008958D3E31F40E9439
:1010F000F207819580937D0108958E3E19F40E9438
:10110000F207F8CF8F3E31F40E94F2078195809369
:101110007C010895803F19F40E94F207F8CF893FBF
:1011200029F40E943C0880937E0108958A3F21F4AF
:101130000E943C088195F7CF8B3F31F40E943C0818
:10114000819580937F0108958C3F19F40E943C089B
:10115000F8CF9FE0980F983070F4815F990B21E0F1
:1011600030E001C0220F8A95EAF780917B01822B43
:1011700080937B0108958D3F31F4809179018160E6
:101180008093790108958E3F21F4809179018260E6
:10119000F7CF8F3FB9F7809179018460F1CF40910B
:1011A0007C018D3E59F480917D0187FF0DC0109226
:1011B0007D0141110BC01092780108C08E3E81F470
:1011C00080917D0118169CF3442381F080917E016B
:1011D00090917F01892B09F05AC0109277010895F0
:1011E0008F3E49F447FFF0CF10927C0180917D0142
:1011F0008111ECCFE0CF803F19F41416ACF3E4CFAB
:1012000090917E01893F29F41916F4F610927E011F
:10121000DBCF8A3F19F497FFD7CFF8CF90917F01AA
:101220008B3F29F497FFD0CF10927F01CDCF8C3F19
:1012300019F41916CCF3C8CF9FE0980F983090F4AA
:10124000815F990B21E030E0B90102C0660F771F82
:101250008A95E2F7CB01809590917B018923809359
:101260007B01B2CF8D3F31F4809179018E7F8093E5
:101270007901AACF8E3F21F4809179018D7FF7CF3C
:101280008F3F09F0A1CF809179018B7FF0CF089536
:101290000E946C209C0190917C0180917D01982B93
:1012A00021F0309376012093750190917E01809119
:1012B0007F01982B21F030937401209373018AE70A
:1012C00091E00C94C514EF92FF920F931F93CF936C
:1012D000DF9300D000D000D0CDB7DEB786E0EAE7DC
:1012E000F1E0DE01119601900D928A95E1F7E09010
:1012F0007C01F0907D0100917E0110917F011092A0
:101300007C0110927D0110927E0110927F018E2D42
:101310008F2991F080917501909176010E9484202F
:10132000AC0190917801992309F43FC080910A01A2
:101330008417150608F447C0802F812B91F0809107
:101340007301909174010E948420AC019091770107
:10135000992309F477C0809106018417150608F4D3
:101360007FC080917C0190917D01892B90917E01BD
:10137000892B90917F01892B11F00E94480986E00A
:10138000FE013196AAE7B1E001900D928A95E1F74E
:1013900026960FB6F894DEBF0FBECDBFDF91CF917A
:1013A0001F910F91FF90EF90089520910B018AE01B
:1013B000289F900111242417350708F0BDCF9F5FA7
:1013C0009093780102C09F3FD1F7EE2059F00E9420
:1013D000F2079FEF1E140CF491E0899F802D1124D9
:1013E00080937C01FF2059F00E94F2079FEF1F14A9
:1013F0000CF491E0899F802D112480937D01309120
:101400007C01332309F498CF20917D01222309F434
:1014100093CF45EB3403C0011124992359F09093E5
:101420007C0145EB240390011124332339F03093E0
:101430007D0182CF81E080937C01F3CF81E08093B6
:101440007D017ACF209107018AE0289F9001112425
:101450002417350708F085CF9F5F9093770102C06E
:101460009F3FD1F7002359F00E943C089FEF1016D0
:101470000CF491E0899F802D112480937E0111232B
:1014800059F00E943C089FEF11160CF491E0899FDF
:10149000802D112480937F0130917E01332309F444
:1014A00060CF20917F01222309F45BCF45EB340309
:1014B000C0011124992359F090937E0145EB240338
:1014C00090011124332339F030937F014ACF81E01A
:1014D00080937E01F3CF81E080937F0142CF86E04D
:1014E000EAE7F1E0DF011D928A95E9F710927801B1
:1014F00010927701109279010895EF92FF920F9365
:101500001F93CF93DF93EB01E82FD11110C0442339
:1015100021F0F0E0EA57FA4FE4916E2F7E2F8E2FE4
:10152000DF91CF911F910F91FF90EF9008950D2FB4
:1015300010E0282F30E0442329F02A573A4FF901D0
:10154000249130E0F6E0CF9FC0011124EFEFF0E0EE
:10155000BF010E94BE27AB018C2F90E0880F991F1E
:10156000A5E5A49FB001A59F700D1124861B970BC4
:10157000982F990F980FBF01601B710B629FD001CC
:10158000639FB00D729FB00D11248B2F9D9FB001F2
:101590001124672F7727EF01C61BD70BBE01629F6F
:1015A000E001639FD00D729FD00D11247F01E91AD5
:1015B000F108E09EB001E19E700DF09E700D1124C7
:1015C000672F7727E61BF70BE29F8001E39F100D43
:1015D000F29F100D1124E12F722F4230510599F026
:1015E00048F44115510569F04130510581F0EB2F68
:1015F0008D2F07C04430510569F080F04630510509
:10160000B1F76E2F8DCFE22F7B2F812FFACFE22FF4
:101610007D2FF7CFEB2F822F712FF3CF7B2F822FD0
:10162000ED2FEFCF41E00C947D0A08950C94120B3E
:10163000CF93DF93762FE901682F842F0E94160B3A
:10164000798368838A83DF91CF910895809109031C
:10165000982F9E7F29F481708260809309030895FA
:101660008635E8F381708465F8CF88E090E00C94CB
:10167000B028CF92DF92EF92FF926B017C010E9423
:10168000260BB701A60188E090E0FF90EF90DF9075
:10169000CF900C94CE28E9E0F3E083E080831182C0
:1016A0008FEF828383831482608171818281938131
:1016B0000C94390B8091090380FF02C08695089530
:1016C00080E0089590910D03933018F49F5F9093FC
:1016D0000D03882351F06091090370910A038091F2
:1016E0000B0390910C030C94390B089581E00C943A
:1016F000620B90910D03992319F0915090930D0373
:10170000882351F06091090370910A0380910B03C3
:1017100090910C030C94390B089581E00C94790B93
:1017200070E00C947212609110018091090380FFA7
:101730000AC080910F0123E0829FC0011124825FC3
:101740009C4F0C94900B809111019091120123E019
:10175000829FF0011124E25FFC4F891750F711823C
:10176000108212828F5F3396F8CF9091090390FF19
:1017700014C0909111012091120133E0939FF00168
:101780001124E25FFC4F921710F00C94930B8183AD
:10179000608342839F5F3396F6CF0895CF93DF93A4
:1017A00000D00F92CDB7DEB79091090390FF0AC029
:1017B0009E012F5F3F4F0E94180B4B8169818A81E8
:1017C0000E94B50B0F900F900F90DF91CF9108956D
:1017D000CF93DF93EC01EC81F0E0EF57FB4F4491A6
:1017E000E9E0F3E0628181810E94CE0B8C818F5F02
:1017F0008C83DF91CF910895CF93DF93EC01E9E0E3
:10180000F3E0438162818C810E94CE0B8C818F5FDB
:101810008C83DF91CF9108950F931F93CF93DF9324
:1018200000D00F92CDB7DEB78C018091800181117D
:101830000AC09E012F5F3F4F4FEF6FEF0E94180BC2
:101840008A8180938001F8016481613069F0809120
:10185000800140E0662361F040E0623011F4409185
:10186000800180E060E004C06091800140E080E0A1
:101870000E94B50BF801848190E0019663E070E06E
:101880000E94D22784830F900F900F90DF91CF9109
:101890001F910F910895AF92BF92CF92DF92EF9276
:1018A000FF920F931F93CF93DF9300D00F92CDB78A
:1018B000DEB7182FF62E042FE22E9091090390FF29
:1018C00029C0E92FE695AE2FB0E0AE5BBE4F8C91FC
:1018D000809304029E7F923059F59E012F5F3F4F07
:1018E000812F0E94180B4B8169818A810E94B50B60
:1018F00010930A03F0920B0300930C03EE2051F0B7
:101900006091090370910A0380910B0390910C037D
:101910000E94390B0F900F900F90DF91CF911F9184
:101920000F91FF90EF90DF90CF90BF90AF90089510
:10193000823019F400910C03DBCF863019F410913A
:101940000A03D6CF8930D9F3893191F6E9518E2F28
:101950008170D82EE695F0E0EF57FA4FA590B4903D
:10196000C12CBB2460911301C61618F00E94930B82
:10197000BFCF2C2D30E0A29EC001A39E900DB29E41
:10198000900D112470E00E94BE27812FD11013C04A
:10199000860F40911101420F532F511D9A01220FC2
:1019A000331F240F351F225F3C4F402F6F2D0E94A5
:1019B000180BC394D7CF861BECCFE9E0F3E09181FD
:1019C000282F4381628188E0890F0C944B0C81E0C1
:1019D0000C94DD0CE9E0F3E09181282F43816281D2
:1019E00088EF890F0C944B0C81E00C94EA0CE9E031
:1019F000F3E0628128E0620F08F46FEF282F438143
:101A000081810C944B0C81E00C94F70CE9E0F3E03D
:101A1000628128E0621B08F460E0282F4381818105
:101A20000C944B0C81E00C94060DE9E0F3E043814B
:101A300028E0420F08F44FEF282F628181810C9437
:101A40004B0C81E00C94150DE9E0F3E0438128E0B4
:101A5000421B08F440E0282F628181810C944B0CDA
:101A600081E00C94240D20E00C944B0CEF92FF923B
:101A70001F93CF93DF93EC0110E0EE24EA94F12C56
:101A800060911301161770F00E94930B9A818C815C
:101A900090FF27C08F5F8C83DF91CF911F91FF90C4
:101AA000EF90089520911101422F410F5527551FA6
:101AB000CA019A01220F331F280F391F225F3C4FA2
:101AC00070E0C7010E94D227962F8C8140910C03B1
:101AD00060910B03199F800D11240E94180B1F5F4A
:101AE000CFCF8150D8CFAF92BF92CF92DF92EF92FB
:101AF000FF920F931F93CF93DF93FC0182810FEF2F
:101B000080FF01E010E048E1A42E80911301181736
:101B1000C8F00E94930B80918201013009F055C0FA
:101B2000811102C080911301815080938201DF9165
:101B3000CF911F910F91FF90EF90DF90CF90BF90CA
:101B4000AF900895C0911101C12ED12CCC0DDD2D87
:101B5000D11DCE01880F991FC80FD91FC25FDC4F5E
:101B6000198218821A8234E0E32EF12CB12C809174
:101B700082018B0D89311CF16A2D0E94B027892FBB
:101B8000082E000C990BC816D90691F480910C030D
:101B90008E9DA0018F9D500D11245595479555950B
:101BA00047959E0160910B0380910A030E94180BD8
:101BB000B00EF1E0EF1AF108D1F61F5FA6CF87FF54
:101BC000DFCF90911301890FDBCF90E001966091F8
:101BD000130170E00E94D227A8CF0F931F93CF93D9
:101BE000DF93809111019091120123E0829FF00117
:101BF0001124E25FFC4F891740F1C0E0D3E060910F
:101C00001301C61740F10E94930B20910D018091A2
:101C10008101820F8093810190910E01920F909328
:101C20000E01191654F4082E000C990B4091130163
:101C30004150550B841795071CF0219520930D01F9
:101C4000DF91CF911F910F9108951182108212821E
:101C50008F5F3396D0CF0C2F10E070E0C8010E9448
:101C6000D22720911101820F482F50E0209181014D
:101C7000022E000C330B02171307BCF020910E014B
:101C8000022E000C330B201731077CF08D9F900142
:101C90001124225F3C4F40910C0360910B03809113
:101CA0000A030E94180BCF5FAACFFA01EE0FFF1FA5
:101CB000E40FF51FE25FFC4F118210821282F3CF16
:101CC0008F929F92AF92BF92CF92DF92EF92FF924C
:101CD0000F931F93CF93DF93EC014C81042F10E0FF
:101CE0009801D8010E9416289B01AC010E942C2863
:101CF0004B015C01E0E2F0E0E01BF10BA5E5B0E098
:101D0000AC019B010E942C286B017C019F01DF012B
:101D10000E940E289B01AC010E9437289B01AC0158
:101D2000280D391D4A1D5B1DC701B6010E94E6271B
:101D3000F22E822F90E039E23F1560F143E0249FBC
:101D40009001112435952795122F109500E085E517
:101D5000E82EEF1880911301081758F10E94930B99
:101D60009C8181E0992319F0903219F48FEF8093D0
:101D70000C0180910C01890F8C83DF91CF911F9111
:101D80000F91FF90EF90DF90CF90BF90AF909F901A
:101D90008F90089525E530E0B901681B790B9B0110
:101DA000220F331F260F371F37FFCCCF2F5F3F4F38
:101DB000C9CF8E2D01FD8F2D20911101622F600F53
:101DC0007727771F9B01220F331F260F371F225FB4
:101DD0003C4F412F60910B030E94180B0F5FBACF4D
:101DE0000F931F93CF93DF93EC0110E000E09091ED
:101DF00013019017110609F06CF40E94930B8C816B
:101E000090E00196817099278C83DF91CF911F918B
:101E10000F91089520911101A801420F511D9A01BF
:101E2000220F331F240F351F225F3C4F4C816091DE
:101E30000B0380910A0396959017110651F04CF010
:101E4000442349F040910C030E94180B0F5F1F4F71
:101E5000CECF4423B9F340E0F7CF4F925F926F9219
:101E60007F928F929F92AF92BF92CF92DF92EF922A
:101E7000FF920F931F93CF93DF93FC016280448006
:101E800081E08483E1E8F4E07490E0E0F5E0E4913F
:101E9000812C75E0972EF2E0CF2EDD24D394AA2476
:101EA000AA94B12C55245A94E7190E2F10E0809172
:101EB0001301881690F0DF91CF911F910F91FF9041
:101EC000EF90DF90CF90BF90AF909F908F907F90DA
:101ED0006F905F904F900C94930BE82CF12C82E064
:101EE000861568F09E9CF0019F9CF00D1124ED5723
:101EF000FE4F80910A03808380910B038183411000
:101F000023C09E9CF0019F9CF00D1124ED57FE4FC5
:101F10001382128220911101C701820F911D9C0131
:101F2000220F331F280F391F225F3C4F9E9CF00168
:101F30009F9CF00D1124ED57FE4F428161818081FD
:101F40000E94180B8394B3CF9E9CE0019F9CD00D00
:101F50001124CD57DE4F8B818823E9F081508B838C
:101F6000859DC00111246C8170E00E94BE27FB0199
:101F7000FF27EF57FB4F8491E82FE719E59DC0013C
:101F80001124B8010E94BE2780910C03689FB00104
:101F900011247A83BFCF0E948B2820910C032695B1
:101FA00021582C9DA0012D9D500D1124452F552702
:101FB000841795070CF0AECF82E0861588F40E9456
:101FC0008B28B5010E94D22788830E948B282091FC
:101FD0000B032695622F70E00E94D227280F2983D9
:101FE0009E9CF0019F9CF00D1124ED57FE4F128234
:101FF00080910C03893C58F088EC9E9CF0019F9CDA
:10200000F00D1124ED57FE4F8483838383CF8431F9
:10201000A0F784E1F2CFE9E0F3E080818E7F808356
:1020200060817181828193810E94390B1092050237
:102030002FEF80E792E0215080409040E1F700C010
:1020400000000C94930B60910903669570E04BE0DF
:1020500050E084E191E00E949B28892B19F481E0F3
:10206000809305020E946C209093FC018093FB01F9
:1020700008959091090390FF35C09170811128C097
:10208000926090930903662351F060910903709167
:102090000A0380910B0390910C030E94390B60910D
:1020A0000903669570E04BE050E084E191E00E9406
:1020B0009B28892BA1F01092050281E08093FE01FC
:1020C00040910C0360910B0380910A030C94330D33
:1020D0008B3210F09465D5CF880F982BD2CF0E9409
:1020E0002310EBCF0895682F90910903969581E016
:1020F000890F8B3208F081E00C94391081E00C9448
:102100007310682F9091090396958FEF890F09F44A
:102110008AE20C94391081E00C94811061E00C94F7
:102120003910E9E0F3E080818160808386950C942A
:102130008E108091090380FD0C940B100C9491106B
:1021400060E00C9439108091030281112EC00E942E
:10215000361F811104C00E94DB1F0E944B0B0E949E
:10216000350B6093090370930A0380930B039093DC
:102170000C036E7F61F40E944B0B0E94350B609341
:10218000090370930A0380930B0390930C030E943E
:10219000260B109205028091090380FF03C08695EB
:1021A0000E94A01081E0809303020895E9E0F3E02B
:1021B00080818160808386950C94A0101092020229
:1021C0008091010281110E94D6100C9423100F936C
:1021D0001F93CF93DF9380910502882309F496C063
:1021E00080910402E0910903E695E81BE093FD016C
:1021F000823091F5F0E0E358FB4FE491CE2FD0E030
:1022000008EE1BE08091FE01882361F01092FE0130
:102210000E946C209093FC018093FB0110920002BD
:102220001092FF010E946C20E091FB01F091FC01F3
:102230008E1B9F0B8F3F9F4708F068C0EC0FFD1F60
:10224000F093FC01E093FB018BEF91E0F801DF914B
:10225000CF911F910F910994863049F4F0E0E65830
:10226000FB4FE491CE2FD0E00CEF1BE0CBCF8930B9
:1022700051F4E695F0E0E958FB4FE491CE2FD0E021
:1022800006E31DE0BFCF8F3051F4E695F0E0EC5847
:10229000FB4FE491CE2FD0E003E71DE0B3CF8531B3
:1022A00049F4F0E0EF58FB4FE491CE2FD0E00DEE73
:1022B0001DE0A8CFC8E2D0E000E61EE0883109F4B6
:1022C000A1CF833239F4EFE6F4E0C591D4910CE06C
:1022D0001CE098CFC4EFD1E000EF1EE0843209F497
:1022E00091CFC0EDD7E005E11BE0853209F08ACF40
:1022F0008E2F63E00E94A427E92FF0E0E459FB4F02
:10230000E491CE2FD0E00DE21FE07CCFDF91CF91A2
:102310001F910F910895FA01811101C0FB010994E9
:10232000CF93DF93C82FD62F0E945A0B8C1740F003
:102330000E945A0B8D1720F4DF91CF910C947E10E0
:102340008C2FDF91CF910C948E101F93CF93DF933E
:10235000EC01FB011281112309F4C2C00E94841E0A
:102360008272CD3CFCE5DF0709F4A0C008F044C050
:10237000C73CECE5DE0709F485C0F0F4C43C9CE5FD
:10238000D90709F475C048F4C33CDC4509F46CC0B6
:10239000812FDF91CF911F910895C53C9CE5D9070E
:1023A00009F46BC044EF5CE067EE7CE0C63CDC45C2
:1023B00079F70E948B115AC0CA3CFCE5DF0709F48B
:1023C0006BC068F4C83CECE5DE0709F460C043E08C
:1023D0005DE062E17DE0C93CDC4559F3D9CFCB3CFF
:1023E0009CE5D90709F45DC04DE85BE066E77BE05A
:1023F000CC3CDC45F1F2CCCFC23DFCE5DF0709F473
:1024000064C098F4CF3C9CE5D90709F458C008F49F
:1024100052C0C03DFCE5DF0709F454C0C13DDC45B6
:1024200009F0B6CF6EE089E01CC0C53D9CE5D90738
:1024300009F451C058F4C33DFCE5DF0709F448C076
:10244000C43DDC4509F0A4CF88E136C0C63D9CE51B
:10245000D90709F443C06AE285E2CE35DD4509F0CB
:1024600097CF0E94901102C00E94991010E090CF67
:102470004BE850E16EE770E19CCF4EE750E16BE82E
:1024800070E197CF47EE5CE064EF7CE092CF42E1F1
:102490005DE063E07DE08DCF40E35DE061E27DE003
:1024A00088CF41E25DE060E37DE083CF46E75BE01B
:1024B0006DE87BE07ECF81E00E948E10D7CF65E093
:1024C00082E0CFCF68E086E0CCCF64E18FE0C9CF77
:1024D00067E185E1C6CF62E289E1C3CF83E2ECCF59
:1024E00011E056CF539A4BB1477F5BB15860EFB7BD
:1024F000F8949B01220F331F260F371F280F391F17
:102500002817390741F4EFBF8FE594E00197F1F701
:1025100000C000000895DC016D91CD0178E05BB949
:10252000000000C067FF4BB9660F000000C000C08C
:1025300000C04BB900C07A9591F7E2CF0F931F937B
:10254000CF93DF93C42FD22FFC0182818823C9F05F
:10255000409308020E946C20909307028093060229
:1025600080E28C0F883008F050C0C77081E001C055
:10257000880FCA95EAF7DF91CF911F910F910C94C4
:10258000141710910802141335C08091060290911F
:1025900007020E948420883C910560F5C0E2CD0FBF
:1025A0001D17B9F080E2810F883040F4177081E088
:1025B00001C0880F1A95EAF70E941B17C83048F42B
:1025C00081E09D2F977001C0880F9A95EAF70E94CD
:1025D0001417802F0E940C17C830B8F4D77081E010
:1025E00001C0880FDA95EAF7DF91CF911F910F9123
:1025F0000C941B1780E28C0F883038F4C77081E090
:1026000001C0880FCA95EAF7EFCFDF91CF911F91F4
:102610000F9108950F939C01CB01243F4CE53407A3
:1026200059F1A8F4293DFCE53F0701F12A3D4CE5AD
:102630003407D1F1283D3C4591F406E221EE41EE0C
:1026400068ED7CE50E949E1280E00F910895263F80
:10265000FCE53F07E9F0B0F0273F3C45F9F0FC010D
:102660008281882339F110920802EFCF07E225EE2C
:1026700045EE69ED7CE5E6CF06E221EE40EE64EF43
:102680007CE5E0CF07E225EE44EE65EF7CE5DACFAE
:1026900006E221EE42EE66EF7CE5D4CF07E225EEBE
:1026A00046EE67EF7CE5CECF08E221E045EE6AED2D
:1026B0007CE5C8CF81E0C9CFCF93DF93EC01FB016C
:1026C0008281882309F419C1C230FCE5DF07C0F11B
:1026D000C6319CE5D90730F09E012B5F3C4529307F
:1026E000310570F50E94491F9093D8028093D7025C
:1026F000C031ECE5DE0709F4CFC008F05BC0C8309C
:102700008CE5D80709F4B6C088F5C430ECE5DE07DF
:1027100009F4A8C0C0F4C2308CE5D80709F49CC005
:102720008091D7028260C330DC4509F498C0809163
:10273000D7029091D8020E94571F0E945C1980E036
:10274000DF91CF9108958091D7028061C630ECE58A
:10275000DE0709F484C08091D7028860C730DC4569
:1027600008F47DC08091D702806279C0CC308CE5BE
:10277000D80709F489C070F48091D7028C60CA3000
:10278000ECE5DE0709F46BC008F478C08091D7024D
:102790008E7F65C0CE308CE5D80709F479C0809172
:1027A000D7028B7FCF30DC4508F459C08091D70227
:1027B0008F7E55C0CC3FECE5DE0709F457C030F5FD
:1027C000C3318CE5D80709F46FC078F4C131ECE56A
:1027D000DE0709F465C0C231DC4509F0A8CF0E94CC
:1027E0005C198091D7028F773AC0C5318CE5D80744
:1027F00009F462C008F476C08091D8028160CB3FB2
:10280000DC4509F094CF8093D80291CFC115FDE546
:10281000DF0709F44DC088F48091D8028D7FCE3F48
:102820009CE5D90781F38091D8028E7FCF3FDC45AC
:1028300050F38091D8028360E6CFC230FDE5DF0718
:1028400009F459C008F444C080E0C330DD4509F004
:102850006ECF0E94DD1F6BCF8091D7028160809385
:10286000D70265CF8091D7028460F9CF8091D802DA
:102870008260C9CF8091D7028064F1CF0E945C1939
:102880008091D7028068EBCF8091D7028D7FE7CF10
:102890008091D702877FE3CF8091D7028F7DDFCFF2
:1028A0008091D7028F7BDBCF8091D702837FD7CFF8
:1028B0008091D8028C7FA7CF8091D70282FB992785
:1028C00090F921E0922790FB82F990FB83F9C7CF22
:1028D0008091D802982F909591708E7F892B90FBD4
:1028E00081F991CF0E945C199091D702892F97FBB3
:1028F00087F98058B4CF81E0ACCF81E021CFCF936E
:10290000DF93EB0186319C4511F50E94841E9A816C
:10291000992399F08A7A91E009F490E09093090262
:10292000811109C089E20E943E1E0E94C71E80E0FC
:10293000DF91CF91089585E3F6CF8091090281114F
:1029400004C089E20E94451EF0CF85E3FBCF81E001
:10295000EFCF90930F0280930E020895E0910E0244
:10296000F0910F02309721F00190F081E02D099451
:1029700080E00895E0910E02F0910F02309721F06F
:102980000280F381E02D09940895E0910E02F09108
:102990000F02309739F022E0DC012C930480F5819E
:1029A000E02D0994089520910C0230910D02281712
:1029B000390771F090930D0280930C02E0910E02A2
:1029C000F0910F02309721F00680F781E02D0994F5
:1029D000089520910A0230910B022817390771F0EF
:1029E00090930B0280930A02E0910E02F0910F0285
:1029F000309721F00084F185E02D099408950E941C
:102A0000782060932D0270932E0280932F02909372
:102A100030026093290270932A0280932B029093D4
:102A20002C02089585B7806885BF85B7806885BF0B
:102A30000895089508950C94191508950C941D1582
:102A40000E94121584E39FE10E94C8200E941A157B
:102A50000C941B1581E008950C942A15089508958F
:102A60000E942E150C942F150E9463200E941107BE
:102A70000E94A3100C941E158F929F92AF92BF924A
:102A8000CF92DF92EF92FF920F931F93CF93DF933A
:102A9000CDB7DEB72A970FB6F894DEBF0FBECDBF15
:102AA0000E94380781110E94FF1451E1852E52E0E7
:102AB000952E10E000E0A02E802F0E94E8066C0109
:102AC000F401E190F1904F01E816F90609F45EC0B7
:102AD0008091CA0281FD0E94F106C7018C259D25C7
:102AE000B12CEE24E394F12C9C012E213F21232BC9
:102AF00009F446C00E942C158823A9F0BE82AF823B
:102B0000CE20DF2081E0CD2809F480E088870E9474
:102B10006C208160782F9A8789874E815F816885D4
:102B20008A850E94F015000F111FF801EF5EFD4F1E
:102B300080819181E826F926F182E0820E94E710E7
:102B40000E9463090E94AE14909110028917A9F1A6
:102B50000E94AE14809310022A960FB6F894DEBF3E
:102B60000FBECDBFDF91CF911F910F91FF90EF90DE
:102B7000DF90CF90BF90AF909F908F900C94EF0418
:102B8000B394EE0CFF1CFAE0BF12AECF0F5F1F4FE5
:102B90000C30110509F08FCF8FEF89838A831B8258
:102BA0000E946C208160782F9D838C8349815A819B
:102BB0006B818D810E94F015C1CF2A960FB6F894D3
:102BC000DEBF0FBECDBFDF91CF911F910F91FF9060
:102BD000EF90DF90CF90BF90AF909F908F9008952F
:102BE000DF92EF92FF920F931F93CF93DF93CDB7B6
:102BF000DEB72B970FB6F894DEBF0FBECDBF7A8736
:102C00008B87F42E052F162FE72ED82E61110E94E8
:102C1000A41E1E821D827E2DEC82DD824F2D502F40
:102C2000612F8D2D9E812B960FB6F894DEBF0FBEBF
:102C3000CDBFDF91CF911F910F91FF90EF90DF906B
:102C40000C94D21BFC01808191810C94101ECF93B7
:102C5000C82F882309F471C08238C1F40E94AE14D1
:102C600081FD6BC089E30E943E1E0E94C71E2FEFAC
:102C700081EE94E0215080409040E1F700C00000D8
:102C800089E30E94451ECF910C94C71E8338A1F49E
:102C90000E94AE1480FD51C083E50E943E1E0E943A
:102CA000C71E2FEF81EE94E0215080409040E1F765
:102CB00000C0000083E5E5CF8438A1F40E94AE1483
:102CC00082FD3BC087E40E943E1E0E94C71E2FEF7C
:102CD00081EE94E0215080409040E1F700C0000078
:102CE00087E4CFCF8CEF8C0F813A90F46C2F8091DA
:102CF0001F01909120010E94F41F882329F08C2F3E
:102D00000E94451E0E94C71E8C2F0E943E1EBBCFF4
:102D100080E28C0F883048F4C77081E001C0880FD2
:102D2000CA95EAF70E94871EAECFCD3E30F08C2FB9
:102D30000E947508CF910C944809CF91089588237B
:102D400009F452C0823871F40E94AE1481FF4CC065
:102D500089E30E943E1E0E94C71E89E30E94451E11
:102D60000C94C71E833859F40E94AE1480FF3CC0F7
:102D700083E50E943E1E0E94C71E83E5EFCF843884
:102D800059F40E94AE1482FF2FC087E40E943E1EB9
:102D90000E94C71E87E4E2CF9CEF980F913AF0F2B1
:102DA00090E2980F983050F4877091E001C0990F2D
:102DB0008A95EAF7892F0E948D1ED2CF9BE5980F46
:102DC000933020F490E080E00C94D31498E5980FB1
:102DD000973120F490E080E00C94E9148D3E20F0CF
:102DE0000E94CF080C94480908951F93CF93DF9356
:102DF000182FEB010E942716209731F4812FDF91C5
:102E0000CF911F910C949F168FE99FE00197F1F7E6
:102E100000C000002197F0CF70E060E0893311F42A
:102E200060E570E00C94F516882321F00E94871E5F
:102E30000C94C71E0895882321F00E948D1E0C94C7
:102E4000C71E0895BF92CF92DF92EF92FF920F9329
:102E50001F93CF93DF936C01D62FC72FFC011281F4
:102E6000058102950F700E945C1EE82E8823A1F058
:102E7000E12E112389F08C2F807F803429F080E2AD
:102E80008D0FE12C883040F082E00E94181F0E94D4
:102E90005C1E91E0E82EE926BC2EB2949FE0B92298
:102EA000FBE0FB1598F1EB2DF0E0EF5EF64D0C9496
:102EB00008280C2F0F70C07F11F00295007F11239E
:102EC000A9F0002359F080E28D0F883010F0D11165
:102ED00009C0802F0E94871E0E94C71E8D2F0E944E
:102EE000271614C0802F0E94971EF6CF8D2F0E94A8
:102EF0009F16002359F080E28D0F883010F0D11119
:102F00002CC0802F0E948D1E0E94C71E2B2D285082
:102F1000330B2430310520F40E94AE140E94EF04DC
:102F2000EE2009F472C10E94581E80FD6EC1F601A8
:102F300012820E94521E0E94DE1CC6010E942619A7
:102F40000E94521EDF91CF911F910F91FF90EF9041
:102F5000DF90CF90BF900C94FF1C802F0E949D1E8D
:102F6000D3CF2C2F2F70F22EC07FC03219F0F294E5
:102F700080EFF822DD2369F0D13049F1112391F17E
:102F8000002351F1F601858180FFA8CF8F708583E2
:102F900023C0112381F0011106C00E94AA1E8F29AF
:102FA0000E941417B3CF0130C1F70E94AA1E8F29C7
:102FB0000E94B01EABCF011106C00E94BD1E8F2D16
:102FC0000E941B17A3CF013009F4A0CFF6CF112325
:102FD00029F0063008F09ACF8F2DE2CF053008F0A7
:102FE00095CFEDCF002359F3D93349F4FFEF27EE06
:102FF00033E0F15020403040E1F700C000008D2F59
:103000000E949F1683CF8D2F112329F00E947508EF
:103010000E9448097BCF0E94CF08FACF8C2F837083
:1030200009F041C0111172CF4D2F4295469547705E
:10303000440F440F0D2F0F7010E030E020E0042EFD
:1030400004C0000F111F221F331F0A94D2F760E043
:1030500070E0CB01D4FF0FC06FE070E080E090E043
:1030600004C0660F771F881F991F4A95D2F7609595
:10307000709580959095C695C695C370602B712B01
:10308000822B932BC23049F058F4C13019F00E94C2
:10309000901C3CCF0E947E1C39CF0E94A21C36CFD0
:1030A0000E947C1C33CF8695112311F08C2F8170E8
:1030B000882309F42BCF4D2F429546954770440F36
:1030C000440F0D2F0F7010E030E020E0042E04C0FC
:1030D000000F111F221F331F0A94D2F760E070E027
:1030E000CB01D4FF0FC06FE070E080E090E004C03F
:1030F000660F771F881F991F4A95D2F760957095C4
:1031000080959095C695C695C370602B712B822BC8
:10311000932BC23049F058F4C13019F00E94551D6C
:10312000F5CE0E94431DF2CE0E94671DEFCE0E9495
:10313000B81CECCECF70112329F08C2F0E94DE1C1E
:103140008D2F2ECF8D2F0E941B178C2F0E94FF1CBE
:10315000DDCED23F89F160F4D03FC9F0D13F29F1F3
:10316000112309F442C00111B9CE8C2F8F7121C0F7
:10317000D33F39F1D43FA1F7112369F1CF718C2FDF
:103180000E94DE1C63E08C2F0E94FD1EBFCE112327
:1031900041F0053008F0BACE8C2F8F710E94221DAD
:1031A000B5CE063008F0B2CEF7CF8C2F8F71112339
:1031B00069F20E94DE1CAACE8C2F8F711123C9F3F5
:1031C000C5CF112329F08C2F8F710E94C91C9ECE70
:1031D0000E94C41C9BCE81E00E94181F023008F49C
:1031E00095CE82E00E94181F91CE002359F0D9336A
:1031F00009F005CF8FEF97EEE3E081509040E0407B
:10320000E1F7FBCE8C2F8F71A1CFDF91CF911F9172
:103210000F91FF90EF90DF90CF90BF9008950F93A4
:103220001F93CF93DF93EC01688179818A810E949B
:103230001A1E8C010E94791D0E947B1CB801CE01D0
:10324000DF91CF911F910F910C942217CF93DF93B1
:10325000EC018B819C81892B29F0888199818923BC
:103260008F3F59F4DF91CF910895CE010E940F193D
:10327000CE01DF91CF910C946F04CE010E94900497
:103280008111F3CF0E945C1E882361F38A81882319
:1032900049F382E0DF91CF910C94181F0E94A41E85
:1032A0000E94A71E0E94C71E0E946F0A0C94480924
:1032B0000E944C1E0C944E190E94941E0C94581996
:1032C000E92FE295EF70E250EE3070F4F0E0E35E4B
:1032D000F64D0C940828803F19F020F4883E20F425
:1032E00081E00895843FE1F380E00895883EC0F3D3
:1032F000813FD1F7F5CF93FB882780F908950E948D
:10330000101E0C946019CF93DF9300D000D00F9261
:10331000CDB7DEB70F900F900F900F900F90DF9109
:10332000CF910895CF93DF9300D000D000D0CDB7D8
:10333000DEB726960FB6F894DEBF0FBECDBFDF9185
:10334000CF9108951F93CF93DF93C091320216E07F
:10335000809133028C1304C0DF91CF911F910895A7
:10336000D0E01C9FF0011D9FF00D1124EC5CFD4F7F
:103370004081518162817381848195810E9492197B
:103380002196C770E5CF409164025091650260912B
:1033900066027091670280916802909169020C94B4
:1033A00092191F93CF93DF9380916902807FA9F4D4
:1033B00080916602882389F080913202C0913302A5
:1033C0006091640270916502A0916702B0916802F9
:1033D000D62FD72316E0C81304C0DF91CF911F91D9
:1033E000089590E0109711F0DF3F19F4019687706F
:1033F000F2CF189F9001199F300D1124F901EC5C58
:10340000FD4F41814713F2CF40814613EFCF4281F8
:103410004111ECCF438154814A1B5B0B483C510561
:1034200028F7809169028F70806180936902F901A9
:10343000E75CFD4F80818F708061808384E692E03D
:103440000E942619DF91CF911F910C94A219AF927F
:10345000BF92CF92DF92EF92FF920F931F93CF9381
:10346000DF93CDB7DEB761970FB6F894DEBF0FBE1E
:10347000CDBF8C0185E0F801DE011D9601900D9213
:103480008A95E1F7F80140815181E28084E6C82EF7
:1034900082E0D82E60916702709168026115710513
:1034A00009F461C19091640220916502892F822301
:1034B0008F3F09F458C1A380B480F0906602F501F3
:1034C000E61BF70BFF2009F4FCC080916902382F3E
:1034D000307FE83CF10508F0B2C0311179C0FE2C14
:1034E000251323C0941321C0E1101FC08F70806189
:1034F000809369020E94C319C6010E942619809117
:103500006902F80185838F2D61960FB6F894DEBFAE
:103510000FBECDBFDF91CF911F910F91FF90EF9024
:10352000DF90CF90BF90AF900895AB2829F0842F03
:1035300085238F3F09F033C180E0F82FF170DF2E33
:1035400080FF3CC0809132022091330236E082132A
:1035500015C04D875E878D859E850E94101E292F80
:1035600022952F702230F0F0243018F59F70F1F082
:10357000F8019581907FD1F4D12C1EC090E0389F46
:10358000F001399FF00D1124EC5CFD4F6181651352
:1035900006C06081641303C062816E110FC0019682
:1035A0008770D5CF9F7011F0882331F3805E88300B
:1035B00018F3C8010E942619FD2CA5CFEE2009F4AE
:1035C000A2CF80916902816080936902F12C9BCF28
:1035D000251306C0941304C0F801EE2009F48DC031
:1035E0004D875E878D859E850E947F19882319F1FE
:1035F000EE2009F180916902803270F0209164021E
:103600003091650238872F831986BB86AA868C87FE
:10361000CE0107960E94261986E0F801A4E6B2E0E2
:1036200001900D928A95E1F70E94D1190E94C31969
:10363000FF24F39468CFC8010E942619F9CF3111F5
:1036400013C07A2DB98AA88A6E2D89890E948319A0
:1036500084E692E00E94261986E0F60111928A958E
:10366000E9F70E94C319B2CF25130FC094130DC000
:10367000E1100BC0F8018583C8010E94261986E07D
:10368000F60111928A95E9F73ECF4D875E878D85C9
:103690009E850E947F19882371F2EE2061F280914D
:1036A0006902803208F4B8CF20916402309165023B
:1036B0003A8329831B82BD82AC828E83CE01019620
:1036C000A9CFE83CF10508F041C0FE2CEE2009F43A
:1036D000B2CF25132AC0941328C08091690280FDBF
:1036E0001BC0982F907FC1F0F8018583903F31F087
:1036F000982F907F905F8F70892B8583C8010E94DF
:10370000261986E0F801A4E6B2E001900D928A95B0
:10371000E1F70E94C319F7CE86E0F801A4E6B2E013
:1037200001900D928A95E1F7EECE4D875E878D85EB
:103730009E850E947F1981116FCF809169028160FF
:1037400080936902C8010E942619DDCE7A2DB98ABC
:10375000A88A6E2D89890E94831986E0F60111924C
:103760008A95E9F7D6CFEE2009F465CF4D875E87BD
:103770008D859E850E947F19F82E882309F45BCFE2
:1037800086E0F801A4E6B2E001900D928A95E1F797
:1037900084E692E00E9422160E94D119BACF81E0FD
:1037A0008E25CBCE1F93CF93DF93CDB7DEB72C976B
:1037B0000FB6F894DEBF0FBECDBF4F835887698721
:1037C0007A878B879C87CE0107960E94271A8823C9
:1037D00069F08A859B85892B39F04F815885842F24
:1037E00085238F3F09F071C016E05FC086E0FE01BF
:1037F0003796DE01119601900D928A95E1F78A8540
:103800009B85892B89F38F81988589238F3F61F36D
:103810002091330230E0C9010196877099274091C9
:1038200032024817190671F40E945C191092330293
:103830001092320286E0E4E6F2E0DF011D928A9502
:10384000E9F7D2CF96E0929FD001939FB00D11245B
:10385000AC5CBD4FFE01319601900D929A95E1F757
:10386000809333020E94A219BFCF819FC00111240F
:103870008C5C9D4F0E94271A8823E9F0E091320268
:103880001E9FF0011124EC5CFD4F4081518162814B
:103890007381848195810E9492198091320290E017
:1038A000019687709927809332028091320290911D
:1038B00033028913DACF2C960FB6F894DEBF0FBE11
:1038C000CDBFDF91CF911F91089569857A858B8552
:1038D0009C850E94921988CF08950C946C1C0E94BC
:1038E0006D1C6093B9027093BA028093BB029093EF
:1038F000BC020C944E1908950C946F1C0F931F93E7
:103900000091B9021091BA022091BB023091BC0221
:10391000602B712B822B932B1F910F910C946F1C9A
:103920000F931F930091B9021091BA022091BB022C
:103930003091BC0260237123822393231F910F9146
:103940000C946F1C0F931F930091B9021091BA024F
:103950002091BB023091BC026027712782279327F8
:103960001F910F910C946F1C0C946C1C0C94B41C44
:103970000E94B61C6093B5027093B6028093B702A2
:103980009093B8020C944E1960E070E0CB010C9457
:10399000B81C0F931F9341E050E060E070E08A0193
:1039A0009B0104C0000F111F221F331F8A95D2F7FD
:1039B000C901B8011F910F910C94B81C0F931F936C
:1039C00041E050E060E070E004C0440F551F661F06
:1039D000771F8A95D2F78091B5029091B602A09197
:1039E000B702B091B8028A019B01082B192B2A2B30
:1039F0003B2BC901B8011F910F910C94B81C0F9378
:103A00001F9341E050E060E070E004C0440F551F98
:103A1000661F771F8A95D2F7CB01BA016095709522
:103A2000809590950091B5021091B6022091B70251
:103A30003091B80260237123822393231F910F9149
:103A40000C94B81C0F931F9341E050E060E070E0CD
:103A500004C0440F551F661F771F8A95D2F78091C7
:103A6000B5029091B602A091B702B091B8028A0156
:103A70009B01082719272A273B27C901B8011F9155
:103A80000F910C94B81C0F931F930091B5021091E5
:103A9000B6022091B7023091B802602B712B822BB5
:103AA000932B1F910F910C94B81C0F931F930091AF
:103AB000B5021091B6022091B7023091B80260238E
:103AC0007123822393231F910F910C94B81C0F93A1
:103AD0001F930091B5021091B6022091B702309168
:103AE000B80260277127822793271F910F910C94AA
:103AF000B81C08952AE0929F800D1124982F97708A
:103B000041E001C0440F9A95EAF78695869586951F
:103B100095E0899FF0011124E659FD4F90E080E087
:103B200070E05191DF0111979B01082E02C036957C
:103B300027950A94E2F7217021952527242325272C
:103B40002C9301968530910561F708952AE0929FA4
:103B5000800D1124982F977086958695869525E07F
:103B6000829FF0011124E659FD4F50E040E080E0D3
:103B7000219130E0092E02C0369527950A94E2F78C
:103B800021703327042E01C0220F0A94EAF7822BFA
:103B90004F5F5F4F4530510559F70895BF92CF925F
:103BA000DF92EF92FF920F931F93CF93DF938C01DD
:103BB000C090B502D090B602E090B702F090B80283
:103BC0008091B9029091BA02A091BB02B091BC025F
:103BD000C82AD92AEA2AFB2ACFE1D0E0BC2ED70195
:103BE000C6010C2E04C0B695A795979587950A94A3
:103BF000D2F780FD0EC0219788F7B12C8B2DDF9175
:103C0000CF911F910F91FF90EF90DF90CF90BF90D9
:103C10000895B8018C2F0E940B05019761F3EECF38
:103C2000CF93DF93EC010E94CE1DBE01DF91CF91B7
:103C30000C940B051F93CF93DF93EB01909131020E
:103C4000992331F0CB01DF91CF911F910C94101E7D
:103C5000882379F0CB010E94CE1D182F682FCE014A
:103C60000E947A1DBE01812FDF91CF911F910C948C
:103C70000B05CB010E94A61D182FF4CF682F809151
:103C80001F01909120010C942A20682F80911F0120
:103C9000909120010C942C2080911F019091200183
:103CA0000C942E208091BD0285958595859508956B
:103CB0008091BD02877008959091BD02977081E058
:103CC00009F480E008959091D80292FB222720F910
:103CD000281751F080FB92F99093D8028091D70277
:103CE0009091D8020C94571F08958091D80282FBBE
:103CF000882780F991E089270C94631E81E00C9459
:103D0000631E80E00C94631E8091C9020895909117
:103D1000C902892B8093C902089580959091C902A8
:103D200098239093C90208951092C9020895909122
:103D3000C802892B8093C802089580959091C8028B
:103D400098239093C80208951092C8020895109283
:103D5000C70208958091BE02089508950C94AD1E87
:103D60009091D80292FD08C09091BE02981721F060
:103D70008093BE020C94AE1E08958091BE028823EB
:103D800029F01092BE0280E00C94AE1E0895E091DE
:103D90001F01F09120018091C9028083E0911F01F1
:103DA000F091200180819091C802892B8083E0915D
:103DB0001F01F091200180819091C702892B80839F
:103DC0009091BE02992381F0E0911F01F0912001B2
:103DD0008081892B808380911F01909120010E9416
:103DE000E21F81110E94BD1E80911F019091200150
:103DF0000C94BA1408950C94FA1E9091D80292FD76
:103E000010C098E0899F90011124622B6093BD023D
:103E10000E94DE1C8091BD028595859585950C9448
:103E2000FB1E0C94DE1C1092BD0280E00C94FB1E65
:103E30009091BD02809589238093BD02282F277021
:103E400039F4282F082E000C330B9217130621F497
:103E50009091D80292FF07C08595859585950E941F
:103E6000FF1C0C94131F089580E0089590E080E0FB
:103E70000E94B62821E08A3E9E4F09F020E0822F62
:103E8000089582E090E00C94A82883E090E00C94E0
:103E9000A828CF9384E090E00E94A828C82F82E24F
:103EA00090E00E94A828982F8C2FCF910895CF934F
:103EB000C92F682F84E090E00E94BC286C2F82E21A
:103EC00090E0CF910C94BC28AB01BC018FE090E056
:103ED0000C94CE28AB01BC0183E190E00C94CE2879
:103EE00060E070E0CB010C946A1F60E070E0CB01F1
:103EF0000E94641F0C94701F6AEE7EEF90E080E0D9
:103F00000E94DA2860E082E090E00E94BC2860E035
:103F100083E090E00E94BC281092B9021092BA028D
:103F20001092BB021092BC0260E084E090E00E941C
:103F3000BC2860E082E290E00E94BC2860E085E05E
:103F400090E00E94BC2860E086E090E00E94BC28DF
:103F50006FEF87E090E00E94BC2840E050E0BA019B
:103F600088E090E00E94CE2860E08DE090E00E9422
:103F7000BC2840E050E0BA0188E190E00E94CE28E1
:103F800060E087E190E00E94BC2840E050E0BA0188
:103F90008CE190E00E94CE2870E060E080E290E04A
:103FA0000E94DA2840E050E0BA0188E190E00E94E7
:103FB000CE280C94751F0C947C1F682F8EE090E027
:103FC0000C94BC289C012E5F3F4FAC01485F5F4FB3
:103FD00080E02417350709F40895F90191919F01B4
:103FE0009923B9F38F5FF5CF662349F0FC01329630
:103FF00008962191261729F0E817F907D1F780E0F4
:10400000089581E008959C01FC0132969FEF80E0C5
:104010004191461751F09F3F19F4411101C0982F6B
:104020008F5F8630A9F79F3F09F40895290F311D4E
:1040300097FD3A95F90162830895FC01329608963E
:104040002191261303C0DF0111971C92E817F9078D
:10405000B9F708950C9403200C941D20029626E0D5
:10406000FC0111922A95E9F70895089508950C949A
:10407000362080915E03843011F00C94372008952F
:104080000895CF930E9435200E9438070E94402057
:10409000C0E08C2F0E94E806892B31F4CF5FCC3032
:1040A000C1F780E0CF91089581E0FCCF08950C9492
:1040B00056200E945C190E94AE140E94EF040E94D8
:1040C000DE100C94572082E084BD93E095BD9AEFFA
:1040D00097BD80936E0008952FB7F8948091560392
:1040E00090915703A0915803B09159032FBF0895A1
:1040F0002FB7F8946091560370915703809158033D
:10410000909159032FBF08959C014FB7F894809167
:10411000560390915703A0915803B09159034FBF94
:10412000821B930B089578941F921FB61F9211243F
:104130008F939F93AF93BF938091560390915703B2
:10414000A0915803B09159030196A11DB11D809310
:10415000560390935703A0935803B0935903BF910C
:10416000AF919F918F911F901FBE1F90189587E769
:1041700097E7909301088093000888E19AE00FB6D2
:10418000F894A895809360000FBE90936000FFCFD5
:1041900090936F0180936E010895E1E8F0E08081D3
:1041A000886080838081816080838FB7F89420ED60
:1041B00033E030938900209388008FBF0895EFE6A5
:1041C000F0E08081826080830895EFE6F0E08081F6
:1041D0008D7F808308951F920F920FB60F92112446
:1041E0002F933F934F935F936F937F938F939F93FF
:1041F000AF93BF93EF93FF938091CB029091CC024A
:1042000001969093CC028093CB02811103C082E08F
:104210000E94EF04E091CC02E695E695F0E0EA57C3
:10422000F94FE4918091CB028E1303C080E00E948D
:10423000EF04FF91EF91BF91AF919F918F917F918B
:104240006F915F914F913F912F910F900FBE0F9003
:104250001F9018958091D502089508959C0182E0E1
:104260008093E9009FEF8091E800915085FD06C0A2
:1042700085ED8A95F1F700009111F5CF8091E80066
:1042800085FF0CC050E040E066E070E0C9010E948C
:1042900013238091E8008E778093E8000895CF93F0
:1042A000DF93EC0181E08093E9008FEF9091E800CB
:1042B000815095FD06C095ED9A95F1F700008111AA
:1042C000F5CF8091E80085FF14C050E040E068E041
:1042D00070E0CE010E9413238091E8008E778093D6
:1042E000E80088E0FE01ADECB2E001900D928A9505
:1042F000E1F7DF91CF910895089580915D038111D9
:1043000009C00E94A3240E9400258091E2008460DD
:104310008093E200089510925D03089508950C942F
:10432000DF200E94E5200E94AE140C94EF0442E0CE
:1043300061EC81E00E941F2442E261EC82E00C9477
:104340001F2480916003833009F45FC030F4813012
:10435000C1F1823009F49BC008958A3009F487C006
:104360008B3009F46DC0893009F04EC080915F0335
:10437000813209F049C080916303909164030297F0
:1043800008F042C08091E800877F8093E800809128
:10439000E80082FF35C09091F3008091F20002970F
:1043A00029F48091F1008B7F813021F48091F1001C
:1043B0008093D5028091E8008B778093E8000C947D
:1043C000532480915F03813AF9F48091E800877F5C
:1043D0008093E8008091630390916403892B61F4DA
:1043E00068E08DEC92E070E00E9462238091E8002A
:1043F0008B778093E800089560E090E080E0F3CF51
:1044000080915E038111C3CF089580915F03813A4B
:10441000D9F78091630390916403892BA9F7809168
:10442000E800877F8093E8008091E80080FFFCCF60
:1044300080912B018093F1008091E8008E77BDCFB1
:1044400080915F03813201F780916303909164034F
:10445000892BD1F68091E800877F8093E8000E9445
:1044600053248091610380932B010C945C198091FB
:104470005F03813249F68091E800877F8093E800EE
:104480000E945324809162038093D6020895809104
:104490005F03813A09F0B8CF8091E800877F80936D
:1044A000E8008091E80080FFFCCF8091D602C2CF67
:1044B00084B7877F84BF0FB6F894A8958091600079
:1044C000886180936000109260000FBE80E890E0E9
:1044D0000FB6F89480936100909361000FBE0E9424
:1044E00020150E94A3240E9400258091E200846090
:1044F0008093E20078940E9489270E94341581E21B
:1045000091E00E94A9140E94CD2080915E03853025
:1045100099F00E943C150E943015F7CF0E94392077
:1045200080915C03882341F00E944120882321F080
:104530000E94FD220E945C1980915E03853071F318
:104540000E945920E6CF0C94A522292F332723302F
:10455000310519F168F42130310509F444C02230E5
:10456000310509F445C090E080E030E020E025C04E
:104570002132310549F122323105A9F780E490E07A
:1045800022E837E061157105C1F089E490E029E384
:1045900037E06130710589F0E6CF992781309105C8
:1045A00081F0009729F00297F1F6E6ECF6E002C000
:1045B000E8EEF6E0849190E09F01FA0131832083D8
:1045C0000895E8EDF6E0F6CF89E090E02EEF36E0D2
:1045D0006115710591F389E090E027E137E06130E2
:1045E000710559F3C0CF82E190E027E237E0E5CFD3
:1045F0008BE390E02CEE36E0E0CF80E189BD82E1F4
:1046000089BD09B400FEFDCF8091D8008F7D8093D5
:10461000D8008091E00082608093E0008091E0000B
:1046200081FDFCCF0895AF92BF92CF92DF92FF92AF
:104630000F931F93CF93DF936C01EB018A010E94CC
:104640007224F82E811123C00115110539F0F801EB
:1046500080819181C81BD90BC80ED91EB12CA12C09
:104660002097A9F08091E80085FD22C08091E800A4
:104670008E778093E80001151105A1F0F801808183
:104680009181A80EB91EB182A08285E0F82E8F2DEF
:10469000DF91CF911F910F91FF90DF90CF90BF904E
:1046A000AF9008950E9472248823D1F2F82EEFCFA4
:1046B000F60181916F018093F1002197FFEFAF1A0E
:1046C000BF0ACECFFC0180916503909166038617E7
:1046D0009707A0F06115710529F49091E8009E7785
:1046E0009093E80090E06115710551F4911108C0B4
:1046F0008091E80082FF34C080E00895BC01F2CFD1
:1047000080915E038823C1F18530C1F18091E8007A
:1047100083FD30C08091E80082FDEACF8091E800FF
:1047200080FFE1CF8091F3002091F200382F6115D6
:10473000710519F02830310558F091E02830310525
:1047400009F090E02091E8002E772093E800CBCF8D
:1047500081918093F100615071092F5F3F4FE7CF46
:1047600080915E03882341F0853041F08091E8001C
:1047700083FFBECF81E0089582E0089583E008952D
:10478000FC01809165039091660386179707A0F05E
:104790006115710529F48091E8008E778093E80017
:1047A00090E06115710551F4911108C08091E80005
:1047B00082FF35C080E00895BC01F2CF80915E0396
:1047C0008823C9F18530C9F18091E80083FD31C0AB
:1047D0008091E80082FDEACF8091E80080FFE1CF80
:1047E0008091F3002091F200382F6115710519F0C6
:1047F0002830310558F091E02830310509F090E07B
:104800008091E8008E778093E800CBCF84918093ED
:10481000F1003196615071092F5F3F4FE6CF8091D3
:104820005E03882341F0853041F08091E80083FFEA
:10483000BDCF81E0089582E0089583E00895982F28
:10484000973028F08F708093E90081E0089590936D
:10485000E900242F762F50E0981731F07091EC008A
:104860002091ED005091F00021FD02C09F5FE8CF44
:104870003091EB003E7F3093EB003091ED003D7FB7
:104880003093ED003091EB0031603093EB0070938A
:10489000EC002093ED005093F0002091EE0027FDF6
:1048A000E5CF80E0089580915F0387FF13C080917A
:1048B000E80082FF06C08091E8008B778093E800D3
:1048C00004C080915E038111F2CF089580915E0350
:1048D0008823D9F38091E80080FFF8CF8091E80029
:1048E0008E77ECCF2091E4003091E50095E6A901A8
:1048F0002091EC00822F817020FF06C08091E8009B
:1049000080FF06C080E008952091E80022FD1AC0D3
:1049100080915E03882389F0853089F08091EB00D7
:1049200085FD0FC02091E4003091E5004217530748
:10493000F9F29150E1F684E0089582E0089583E071
:10494000089581E008950E9411250E941925E0EE46
:10495000F0E0808181608083E8EDF0E080818F77F6
:10496000808319BCA7EDB0E08C918E7F8C93808101
:104970008F7E808310925D0308950F931F93CF93D2
:10498000DF930E9411250E941925C8EDD0E088818F
:104990008F77888388818068888388818F7D8883EA
:1049A00019BC10925E0310925A0310925C0310928D
:1049B0005B0300EE10E0F80180818B7F80838881AB
:1049C0008160888342E060E080E00E941F24E1EE85
:1049D000F0E080818E7F8083E2EEF0E08081816074
:1049E0008083808188608083F80180818E7F8083CE
:1049F000888180618883DF91CF911F910F91089505
:104A0000E8EDF0E080818F7E8083E7EDF0E080814B
:104A10008160808384E082BF81E080935D030C9499
:104A2000BD24E8EDF0E080818E7F80831092E2006B
:104A300008951092DA001092E10008951F920F92EB
:104A40000FB60F9211242F933F934F935F936F9361
:104A50007F938F939F93AF93BF93EF93FF93809137
:104A6000E10082FF0BC08091E20082FF07C08091CD
:104A7000E1008B7F8093E1000E9488278091DA001B
:104A800080FF19C08091D80080FF15C08091DA00A6
:104A90008E7F8093DA008091D90080FF96C080E1FC
:104AA00089BD82E189BD09B400FEFDCF81E080931C
:104AB0005E030E947D218091E10080FF19C08091FA
:104AC000E20080FF15C08091E2008E7F8093E200BB
:104AD0008091E20080618093E2008091D800806242
:104AE0008093D80019BC85E080935E030E948F21DB
:104AF0008091E10084FF2BC08091E20084FF27C0F9
:104B000080E189BD82E189BD89B5982F917080FFD0
:104B1000FBCF8091D8008F7D8093D8008091E100F9
:104B20008F7E8093E1008091E2008F7E8093E2008F
:104B30008091E20081608093E20080915A03882393
:104B400009F449C084E080935E030E949121809122
:104B5000E10083FF29C08091E20083FF25C080919E
:104B6000E100877F8093E10082E080935E031092F2
:104B70005A038091E1008E7F8093E1008091E200F2
:104B80008E7F8093E2008091E20080618093E2005A
:104B900042E060E080E00E941F248091F000886085
:104BA0008093F0000E948E21FF91EF91BF91AF9111
:104BB0009F918F917F916F915F914F913F912F9135
:104BC0000F900FBE0F901F90189519BC10925E03A6
:104BD0000E948B2170CF8091E30087FD93E090933A
:104BE0005E03B3CF1F920F920FB60F9211242F9333
:104BF0003F934F935F936F937F938F939F93AF9365
:104C0000BF93CF93DF93EF93FF93D091E900DF70D1
:104C10008091EC00C82FC17080FDC0E81092E900BF
:104C20008091F000877F8093F00078940E94362670
:104C30001092E9008091F00088608093F000CD2B05
:104C4000CF70C093E900FF91EF91DF91CF91BF91B9
:104C5000AF919F918F917F916F915F914F913F9114
:104C60002F910F900FBE0F901F9018951F93CF9309
:104C7000DF93CDB7DEB7AA970FB6F894DEBF0FBEAD
:104C8000CDBF8FE593E02091F100FC012193CF018E
:104C9000F3E087369F07B9F70E94A1218091E800D1
:104CA00083FF1EC180915F03909160039A3008F0EA
:104CB00017C1E92FF0E0E55DF64D0C940828803827
:104CC00099F0823809F00CC1809163038F708730AE
:104CD00008F006C18093E9008091EB0085FB8827EE
:104CE00080F91092E90006C080915B0390915C030B
:104CF000911182609091E800977F9093E8008093F3
:104D0000F1001092F1008091E8008E77E5C08823D1
:104D100009F4D3C0823009F0E3C0809161038111AE
:104D2000D6C0809163038F702FEF280F263008F0D4
:104D3000D7C08093E9002091EB0020FFC8C09330DA
:104D400031F48091EB0080628093EB00C0C09091C1
:104D5000EB0090619093EB0021E030E001C0220F66
:104D60008A95EAF72093EA001092EA008091EB001E
:104D70008860EACF8111B4C0109161031F778091E0
:104D8000E3008078812B8093E3008091E800877FA7
:104D90008093E8000E9453248091E80080FFFCCFBC
:104DA0008091E30080688093E30082E0111183E04A
:104DB00080935E0395C08058823008F091C0809146
:104DC0006103909162038C3D23E09207A1F583E09B
:104DD0008A838AE289834FB7F894DE01139620E034
:104DE0003EE051E2E32FF0E050935700E49120FFC2
:104DF00003C0E295EF703F5FEF708E2F90E0EA30D6
:104E0000C0F0C7968D939D932F5F243159F74FBF04
:104E10008091E800877F8093E8006AE270E0CE012D
:104E200001960E9462238091E8008B778093E800CE
:104E300057C0C096E7CF6091630370916403AE01E1
:104E40004F5F5F4F0E94A322BC01892B09F448C029
:104E50009091E800977F9093E80089819A810E9461
:104E6000C023E1CF8038E1F58091E800877F80930F
:104E7000E80080915A038093F10045CF811130C042
:104E800090916103923060F58091E800877F809374
:104E9000E80090935A030E94532480915A03882378
:104EA00011F084E005C08091E30087FDFACF81E036
:104EB00080935E030E94972113C08091610381302B
:104EC00079F481E0933009F080E080935C031092E4
:104ED000E9008091E800877F8093E8000E945324D6
:104EE0008091E80083FF0AC08091E800877F80936B
:104EF000E8008091EB0080628093EB00AA960FB6E9
:104F0000F894DEBF0FBECDBFDF91CF911F91089502
:104F10000895CF9380915E038823A1F0C091E900AA
:104F2000CF709091EC00892F817090FD80E8C82BA4
:104F30001092E9008091E80083FD0E943626CF7030
:104F4000C093E900CF910895991B79E004C0991F9F
:104F5000961708F0961B881F7A95C9F780950895D3
:104F600087FB082E062687FD819567FD61950E94C7
:104F7000A4270EF4919507FC81950895AA1BBB1BED
:104F800051E107C0AA1FBB1FA617B70710F0A61B49
:104F9000B70B881F991F5A95A9F780959095BC016A
:104FA000CD01089597FB072E16F4009407D077FDE6
:104FB00009D00E94BE2707FC05D03EF4909581954C
:104FC0009F4F0895709561957F4F0895A1E21A2E25
:104FD000AA1BBB1BFD010DC0AA1FBB1FEE1FFF1F9D
:104FE000A217B307E407F50720F0A21BB30BE40BED
:104FF000F50B661F771F881F991F1A9469F7609534
:105000007095809590959B01AC01BD01CF010895ED
:10501000EE0FFF1F0590F491E02D09940E941628D1
:10502000332312F48A1B9B0B0C942728A29FB001F8
:10503000B39FC001A39F700D811D1124911DB29FCC
:10504000700D811D1124911D08950E941628B7FF2F
:105050000895821B930B08950E941628A59F900D1A
:10506000B49F900DA49F800D911D11240895B7FF4A
:105070000C942C280E942C28821B930B08958F924D
:105080009F92AF92BF92CF92DF92EF92FF92CF9317
:10509000DF93EC01688179818A819B8161157105BB
:1050A0008105910521F464E279ED8BE597E02DE12E
:1050B00033EF41E050E00E94F02849015A019B0182
:1050C000AC01A7EAB1E40E942C286B017C01ACEE94
:1050D000B4EFA50194010E943A28DC01CB018C0DAC
:1050E0009D1DAE1DBF1DB7FF03C00197A109B048AC
:1050F00088839983AA83BB839F77DF91CF91FF90A9
:10510000EF90DF90CF90BF90AF909F908F900895D9
:105110000E943F28089580E091E00E943F28089572
:10512000B0E0A0E08093000190930101A093020100
:10513000B09303010895FC014150504030F00190BC
:105140000616D1F73197CF0108958827992708953A
:10515000F999FECF92BD81BDF89A992780B508953F
:10516000A6E1B0E044E050E00C94E228A8E1B0E011
:1051700042E050E00C94E228262FF999FECF92BD30
:1051800081BDF89A019700B4021639F01FBA20BD0C
:105190000FB6F894FA9AF99A0FBE08950396272F3E
:1051A0000E94BD280E94BC28252F0E94BD28242FC4
:1051B0000C94BD280196272F0E94BD280C94BC2872
:1051C000DC01CB01FC01F999FECF06C0F2BDE1BDC7
:1051D000F89A319600B40D9241505040B8F70895B6
:1051E000052E97FB1EF400940E94072957FD07D057
:1051F0000E94E62707FC03D04EF40C940729509533
:105200004095309521953F4F4F4F5F4F08959095B2
:105210008095709561957F4F8F4F9F4F0895F894BB
:10522000FFCF59175917B117B117861703188617EB
:1052300086170E189A18A918A9186B196B197419E2
:10524000741976197419741974196B196B197B19FF
:10525000741974197B195F26872670278726702793
:0A526000BA26DB26702732273E270E
:10526A00010000002808641E140A321E010102000F
:10527A001800181801191A1B1C1D1E1F202122BFF5
:10528A00022A214F212E212D217C21013632333150
:10529A00F7946697C63436323331F7F6946697C672
:1052AA003435000102020202060606090909090943
:1052BA00090F0F0F0F0F0F151515181919191919AD
:0E52CA00191919191923242525252525250034
:00000001FF
