:100000000C9427040C9444040C9444040C9444046D
:100010000C9444040C9444040C9444040C94440440
:100020000C9444040C9444040C9409210C94ED2188
:100030000C9444040C9444040C9444040C94440420
:100040000C9444040C94C8200C9444040C94440470
:100050000C9444040C94E5200C9444040C94440443
:100060000C9444040C9444040C9444040C944404F0
:100070000C9444040C9444040C9444040C944404E0
:100080000C9444040C9444040C9444040C944404D0
:100090000C9444040C9444040C9444040C944404C0
:1000A0000C9444040C9444040C9444040660FF092A
:1000B00061A1010962150026FF00952075088102E3
:1000C0000963150026FF00952075089102C00501FF
:1000D0000906A101050719E029E715002501950882
:1000E000750181029501750881010507190029FF35
:1000F000150026FF009506750881000508190129DD
:1001000005950575019102950175039101C00902DC
:100110004200020100A0FA090400000103010100ED
:100120000921110100012240000705810308000197
:10013000090401000203000000092111010001224D
:1001400022000705820320000107050303200001A8
:100150001201000200000008D80401E900010102B8
:100160000001100361006C00690063006F0034003F
:10017000380000000E036D0061007200620079001B
:100180003300000004030904000029002B00E100F3
:10019000000000000000000000000000140000004B
:1001A00004001D00E000000000000000000000004E
:1001B0001A00160000001B00E30000000000000011
:1001C000000000000800070006000000F55C0000C9
:1001D0000000000000000000150009001900015196
:1001E00000000000000000000000000017000A00EE
:1001F00005002C00000000000000000000000000CE
:100200000000000000000000000000001C000B00C7
:10021000110028000000000000000000000018008D
:1002200000000D001000025100000000000000005E
:1002300000000C000E0000003600F65C000000001C
:1002400000000000000012000F0037000000E7006F
:100250000000000000000000000013003300380020
:10026000E4000000000000000000000000002A0080
:100270003400E5000000000000003504010001002A
:100280000100000000000000000000001E0000004F
:10029000000000000100000000000000000000005D
:1002A0001F0000000000000001000000000000002E
:1002B000000000002000000000000000010000001D
:1002C00000000000000000002100000000000151BB
:1002D00000000000000000000000000022002D00CF
:1002E0002F000100000000000000000000000000DE
:1002F00000000000000000000000000023002E00AD
:100300003000010000000000000000000000240098
:100310000000000000000351000000000000000089
:1003200000002500000000000000010000000000A7
:100330000000000000002600000000000000010096
:100340000000000000000000000027000000000086
:1003500001000000000000000000000000004C0050
:100360000000010001000000000035040100010050
:10037000010000000000000000000000000000007C
:10038000500000000100000000000000000000001C
:1003900052005100000000000100000000000000B9
:1003A0000000000000004F000000000001000000FD
:1003B00000000000000000003A003C003E00035135
:1003C0000000000000000000000000003B003D00B5
:1003D0003F000100000000000000000000000000DD
:1003E000000000000000000000000000400042008B
:1003F0004400010000000000000000000000410077
:100400000000430045000251000000000000000011
:1004100000000000000000000000010000000000DB
:1004200000000000000046004A004D0000000100EE
:100430000000000000000000000047004B004E00DC
:100440000100000000000000000000000000480063
:10045000000001000100000000003504010001005F
:10046000010000000000000000000000000000008B
:10047000C25C00000100000000000000000000005D
:100480000000C35C0000000001000000000000004C
:10049000000000000000C45C00000000010000003B
:1004A00000000000000000000000000000000351F8
:1004B000000000000000000000000000000000003C
:1004C000000001000000000000000000000000002B
:1004D000000000000000000000000000000000001C
:1004E000000001000000000000000000000000000B
:1004F00000000000000003510000000000000000A8
:1005000000000000C65C00000000010000000000C8
:100510000000000000000000C85C000000000100B6
:10052000000000000000000000000000CA5C0000A5
:100530000100000000000000000000000000DE5C80
:1005400000000100010000000000000000000000A9
:10055000000000010204060A0F17202C3A4A5D71C0
:10056000879DB3C7DAE9F5FCFFFCF5E9DAC7B39D6F
:1005700087715D4A3A2C20170F0A06040201000019
:1005800000000000000000002223252628292A2C34
:100590002D2F3032333536383A3B3D3E40424345CD
:1005A00047494A4C4E5051535557595A5C5E606208
:1005B000646668696B6D6F71737577797B7D7F8118
:1005C000838587898A8C8E90929496989A9C9E9F18
:1005D000A1A3A5A7A8AAACAEAFB1B3B4B6B8B9BB36
:1005E000BCBEBFC1C2C3C5C6C7C9CACBCCCDCED0A5
:1005F000D1D2D2D3D4D5D6D7D7D8D9D9DADADBDB92
:10060000DBDCDCDCDCDCDDDDDDDDDCDCDCDCDCDB28
:10061000DBDBDADAD9D9D8D7D7D6D5D4D3D2D2D171
:10062000D0CECDCCCBCAC9C7C6C5C3C2C1BFBEBC64
:10063000BBB9B8B6B4B3B1AFAEACAAA8A7A5A3A1D5
:100640009F9E9C9A98969492908E8C8A8987858397
:10065000817F7D7B79777573716F6D6B6968666477
:1006600062605E5C5A5957555351504E4C4A494747
:10067000454342403E3D3B3A3836353332302F2DEC
:100680002C2A292826252322FFAA7F554000010174
:100690000101010101010102020202020202020241
:1006A0000303030303030303040404040404040511
:1006B00005050505060606060607070707070808D5
:1006C0000808090909090A0A0A0B0B0B0C0C0C0D86
:1006D0000D0D0E0E0E0F0F0F10101111111212131F
:1006E000131414151516161717181819191A1A1B9A
:1006F0001B1C1D1D1E1E1F202021222223242425F9
:100700002626272829292A2B2C2D2D2E2F30313231
:1007100032333435363738393A3B3C3D3E3F404141
:1007200042434445464748494A4C4D4E4F50515329
:1007300054555658595A5B5D5E5F616264656668E0
:10074000696B6C6D6F7072737577787A7B7D7E8064
:1007500082838587888A8C8E8F91939596989A9CB0
:100760009EA0A2A3A5A7A9ABADAFB1B3B5B7BABCC4
:10077000BEC0C2C4C6C9CBCDCFD1D4D6D8DBDDDF95
:10078000E2E4E7E9EBEEF0F3F5F8FAFDFF1E0F0502
:10079000643214643214783C1E1E140A05000000F2
:1007A0000000000000000000000000000000000049
:1007B0000000000000000000000000000000000039
:1007C000007E0F00D4FFFFFFC7000000780000008C
:1007D00000000000002A2B2800000000000000009C
:1007E000000000000000000029000000002C1E3462
:1007F00020212224342627252E362D3738271E1F68
:10080000202122232425263333362E37381F040592
:10081000060708090A0B0C0D0E0F10111213141500
:10082000161718191A1B1C1D2F3130232D350405DE
:10083000060708090A0B0C0D0E0F101112131415E0
:10084000161718191A1B1C1D2F3130354C00112496
:100850001FBECFEFDAE0DEBFCDBF23E0ACE5B1E0F5
:1008600001C01D92A032B207E1F711E0A0E0B1E0B3
:10087000E6E5F8E402C005900D92AC35B107D9F772
:100880000E949A1C0C94DD230C940000292F9C30AC
:1008900098F58A3088F590E03AE0239F800D911D0D
:1008A0001124282F277041E001C0440F2A95EAF750
:1008B00023E0969587952A95E1F7FC01EE0FFF1F3F
:1008C000E80FF91FEC55FD4F20E030E070E051914A
:1008D000DF011197CB01022E02C0969587950A94ED
:1008E000E2F7817081958527842385278C932F5F7C
:1008F0003F4F2330310559F70895292F9C3078F563
:100900008A3068F590E03AE0239F800D911D112414
:10091000682F677023E0969587952A95E1F7FC018B
:10092000EE0FFF1FE80FF91FEC55FD4F40E050E0C0
:1009300080E0219130E0062E02C0369527950A947A
:10094000E2F721703327042E01C0220F0A94EAF740
:10095000822B4F5F5F4F4330510559F7089580E078
:1009600008958091E9029091E802981301C00895DA
:100970008F5F8770FACFA0E6B1E0EFEF90E02D91A6
:10098000821751F0EF3F19F4211101C0E92F9F5F49
:100990009630A9F7EF3F09F408950E2E000CFF0BD7
:1009A000E25AFE4F82830895E0E6F1E091918913C7
:1009B00003C0DF0111971C9291E0E636F907B1F709
:1009C0000895982F90958091E00289238093E0020A
:1009D00008958091E10281111092E10208959091B1
:1009E000E50292FF06C0282F28712830F9F4877F8E
:1009F000846093FF06C0282F28712831F1F4877E88
:100A000084612091E60220FF06C0382F387138300B
:100A1000D9F4877F816021FF06C0282F28712831F3
:100A2000D1F4877E816194FD877E0895282F2471FB
:100A30002430F9F68B7F8860DCCF282F2471243195
:100A400001F78B7E8861DDCF382F3171313019F796
:100A50008E7F8860E0CF282F2171213121F78E7E93
:100A60008861E1CFCF93DF93EC01803E910509F4DB
:100A70008AC078F58133910509F4D2C0D0F4893267
:100A8000910509F4C2C08A32910509F4D0C08130C1
:100A9000910509F48BC001978F3F9F4108F07FC0FB
:100AA000C53AD10508F0CAC0C430D10508F477C0F2
:100AB0007DC08933910509F45AC08238910509F443
:100AC00056C0C59709F49CC0CF3FD10549F340F308
:100AD0006DC0843E910509F478C0C8F4823E91054A
:100AE00009F460C0833E910509F464C0C11580E536
:100AF000D80708F0E3C0C11520E4D20708F0DBC036
:100B0000CE0101978F3F9F4108F049C0DDCF863E5F
:100B1000910509F465C0873E910509F466C0811509
:100B200044E5940708F091C0811553E5950708F056
:100B3000E0C081159145D0F2C11582E5D80708F4CF
:100B4000D3C08C2F8695869520E2829FC001112408
:100B5000C370DD2721E030E0A90102C0440F551F1A
:100B6000CA95E2F7EA01C82BD92BDC681FC0809137
:100B7000E50283708111ECC08091E60283FF16C00C
:100B8000C9E2D0E013C08091E50280FD46C090919B
:100B9000E60290FF0BC0C3EED0E084FF07C0C0E0C8
:100BA000D0E004C08091E50282FDF5CFCE01DF9157
:100BB000CF9108958091E50282FDC7C09091E60231
:100BC00090FDC6C084FFF2CFEACF8091E60281FF9C
:100BD000EDCF8091E502C7EED0E084FDE0CFE6CF17
:100BE0008091E50283FDF7CFE1CF8091E50283FD9F
:100BF000B2C09091E60291FFE5CFC4EED0E0D6CF2F
:100C00008091E50285FFD2CFBBCF8091E50285FDC3
:100C1000A5C08091E60283FFC9CFC9E3D0E0C6CF6B
:100C20008091E50286FFC2CFCAE2D0E0BFCF8091BB
:100C3000E50286FFBBCFC1E3D0E0B8CFCE01815E35
:100C40009109079708F0ABCFB1CF811559E595070A
:100C5000E0F4811568E5960708F065C0C11585E5E3
:100C6000D80708F45BC0CE0195558F3F910511F070
:100C700008F095CF8C2F0E94EF04C82FD0E0DC2F16
:100C8000CC27CC27DF71D06291CF81152AE592075E
:100C900008F44EC090568115904208F080CF8D2FF9
:100CA0008F710E94EF0490E0982F882788279F710A
:100CB0008C2BEC01E8CFDF70D06A78CF8C2F869533
:100CC000869550E2859FC0011124C370DD2721E085
:100CD00030E0A90102C0440F551FCA95E2F7EA01AE
:100CE000C82BD92BDD6862CFDC2FCC27C16FD06A2F
:100CF0005DCF8695869520E2829FC0011124C37046
:100D0000DD2721E030E0A90102C0440F551FCA953C
:100D1000E2F7EA01C82BD92BDA6848CFDC2FCC27C1
:100D2000C46FD06A43CFD82FCC27C06FD06A3ECFD4
:100D30008F700E94EF0434E0D695C7953A95E1F79D
:100D4000CF709C2FEC01D06931CFC2EED0E02ECF16
:100D5000C0EED0E02BCFC6EED0E028CFC5E3D0E088
:100D600025CF80E00895F894E82FE295EF70F0E049
:100D700041A18F7021E030E0B90102C0660F771FFA
:100D80008A95E2F7CB01962F9095942391A392A197
:100D9000892B82A3789408950895A0E0B0E0E3ED54
:100DA000F6E00C948D22E901E42FF0E0E357F94FCF
:100DB00061110BC0E4919E2F8E2F8983E8839A8363
:100DC000CDB7DEB7EAE00C94A922282F30E0062F39
:100DD00010E0F491EF2F86E0829F6001839FD00C9A
:100DE0001124EE24EA94F12CC601B7010E9450228E
:100DF000220F331F45E5469FC001479F900D1124E8
:100E0000281B390B822F880F280FC701801B910BDD
:100E1000F89FA001F99F500D1124952F209F50019C
:100E2000219FB00C1124AB2CBB24D701AA19BB09FC
:100E30005D01FA9DD001FB9DB00D11248B2F570150
:100E4000A21AB1089501209F5001219FB00C309F3C
:100E5000B00C1124AB2CBB24EA18FB08FE9D9001BA
:100E6000FF9D300D112463307105C9F01CEFC116D0
:100E700013E0D10650F46130710509F49ECF623061
:100E8000710589F08E2FE32F98CF6430710571F0D2
:100E900066307105B9F3E52F9B2F8F2F8ECFEB2F87
:100EA000852F9F2F8ACF852F932F87CF832FE52FD5
:100EB000F8CF8091DB02823028F4817082608093C9
:100EC000DB0208958C34E8F381708A64F8CFFA016C
:100ED000882311F009950895FB01FCCFE091D3021E
:100EE000F091D402309729F00190F081E02D09951E
:100EF000089580E008952FB7F89480918001909133
:100F00008101A0918201B09183012FBF0895A4E0D7
:100F1000B0E0EDE8F7E00C9495228FB7F8942091BB
:100F20008001309181014091820150918301298398
:100F30003A834B835C838FBF69817A818B819C81EB
:100F40002496E2E00C94B12287E797E7909301089A
:100F50008093000888E19AE00FB6F894A8958093F2
:100F600060000FBE90936000FFCF80917F010895D5
:100F70000895089508950895FC019B0180917501DD
:100F8000909176018617970740F0672B29F480919E
:100F9000E8008E778093E800C90140E0009741F4B3
:100FA000411106C08091E80082FF2FC080E00895C3
:100FB00020919B022223A9F12530A9F12091E8007C
:100FC00023FD2DC02091E80022FDECCF2091E80008
:100FD00020FFE4CF3091F3002091F200009719F048
:100FE0002830310558F041E02830310509F040E063
:100FF0002091E8002E772093E800D0CF41914093D4
:10100000F10001972F5F3F4FE9CF80919B0288232A
:1010100041F0853041F08091E80083FFC3CF81E04B
:10102000089582E0089583E0089580916F0187FF1D
:1010300013C08091E80082FF06C08091E8008B77A2
:101040008093E80004C080919B028111F2CF089543
:1010500080919B028823D9F38091E80080FFF8CF2C
:101060008091E8008E77ECCF2091E4003091E5008C
:1010700095E6A9018091EC008170882331F0809180
:10108000E80080FF06C080E008952091E80022FD7E
:101090001BC080919B02882391F0853091F0809154
:1010A000EB0085FD10C02091E4003091E50042176F
:1010B000530701F391509111DCCF84E0089582E051
:1010C000089583E0089581E00895E8EDF0E08081DF
:1010D0008E7F80831092E2001092DA001092E1007D
:1010E000A0EEB0E08C9181608C9380818F778083BB
:1010F00019BCA7EDB0E08C918E7F8C9380818F7EA0
:10110000808310926E010895EF92FF920F931F93C8
:10111000CF938C017B010E943408C82F81110EC02F
:101120008091E80085FD11C08091E8008E77809362
:10113000E8000E943408882399F3C82F8C2FCF91A0
:101140001F910F91FF90EF900895F8018081809397
:10115000F100F1E0EF1AF108E114F10479F30F5F07
:101160001F4FDECF982FE42FE2709093E900891390
:1011700008C0762F242F50E0E11111C091E0980FA4
:10118000F4CF7091EC002091ED005091F00021FD22
:1011900006C09F5F973049F78093E900089530912A
:1011A000EB003E7F3093EB003091ED003D7F3093BC
:1011B000ED003091EB0031603093EB007093EC0068
:1011C0002093ED005093F0002091EE0027FDE1CF39
:1011D0000895A0E0B0E0EFEEF8E00C948F22C8EDA7
:1011E000D0E088818F7E8883E7EDF0E080818160A8
:1011F000808384E082BF81E080936E0188818E7F4E
:10120000888302EE10E0F80110821092DA0081EE7D
:10121000C82ED12CF601108288818F77888388812F
:101220008068888388818F7D888319BC10929B0297
:1012300010926D011092600210926C0190EEE92EF6
:10124000F12CF70180818B7F808388818160888386
:1012500042E060E080E00E94B208F60180818E7F6B
:101260008083F801808181608083808188608083B1
:10127000F70180818E7F8083888180618883CDB7EC
:10128000DEB7E8E00C94AB228091DB0280FD0AC05F
:10129000EFEFF1E0118210821282339652E0E734D0
:1012A000F507C1F7539A3BB1377F2BB128604FB791
:1012B000F8948FEF91E0FC010196508168E02BB922
:1012C000000000C057FF3BB9550F000000C000C030
:1012D00000C03BB900C06A9591F752E0873495078A
:1012E00051F74FBF8FE594E00197F1F700C0000080
:1012F0000895EF92FF921F93CF93DF93EC018FEF4E
:10130000E82E81E0F82E10E08C8197014091DE02FA
:101310006091DD02810F0E94CD06165F83E0E80E2A
:10132000F11C103F89F70E9444099A818C8190FF3B
:1013300008C08F5F8C83DF91CF911F91FF90EF905A
:1013400008958150F7CFA0E0B0E0E9EAF9E00C940D
:101350008F22FC018281DD24D39480FF02C0DD2432
:10136000DA940FEF11E0C0E0D0E0F80111821082B2
:10137000128294E0E92EF12CC12C8091FE018C0D9B
:101380008931D4F168E10E944222892F082E000C95
:10139000990B8C179D0791F48091DE028E9DA00120
:1013A0008F9D500D1124559547955595479598015A
:1013B0006091DD028091DC020E94CD06CD0CF1E04F
:1013C000EF1AF108E114F104C1F621960D5F1F4FE9
:1013D000C831D10551F60E9444098091FE0191E087
:1013E000D9120EC0882391F081508093FE01CDB7B1
:1013F000DEB7E8E00C94AB2287FFC8CF885EC6CF8B
:1014000090E00196BE010E946422EFCF87E1EDCF0C
:10141000A0E0B0E0EEE0FAE00C948F228C01CFEF78
:10142000D1E020E030E0F80194816091DD0280910C
:10143000DC02A9014F5F5F4F7A012C30310574F453
:10144000FE0133966F019E014091DE02911101C0B1
:1014500040E00E94CD069701E601E5CF9E01409154
:10146000DE02911140E00E94CD069701283131053E
:1014700011F02396D8CF0E944409F801848190E0AE
:101480000196817099278483CDB7DEB7E8E00C948C
:10149000AB229091DB0290FF0CC0EFEFF1E0818373
:1014A00060834283339692E0E734F907C1F70E94E4
:1014B00044090895A3E0B0E0E0E6FAE00C94952238
:1014C0009091DB0290FF0AC09E012F5F3F4F0E9468
:1014D000CD064B8169818A810E94490A2396E2E008
:1014E0000C94B122CF93DF93EC01EC81F0E0E8574C
:1014F000FA4F4491EBEDF2E0628181810E945A0A39
:101500008C818F5F8C83DF91CF910895CF93DF9390
:10151000EC01EBEDF2E0438162818C810E945A0A7A
:101520008C818F5F8C83DF91CF910895CF93DF9370
:10153000D82FC92F81E08093E9008FEF9091E800C8
:1015400095FD07C095ED9A95F1F700008150811146
:10155000F5CF8091E80085FD03C0DF91CF9108951C
:1015600040E050E068E070E08D2F9C2F0E948408DE
:101570008091E8008E778093E80088E0ED2FFC2FC3
:10158000A7E7B1E001900D928A95E1F7E6CF8823B5
:1015900081F063E283E290E00E94462364E084E20B
:1015A00090E00E94462369E285E290E00E94462393
:1015B00008956FEF83E290E00E9446236FEF84E28C
:1015C00090E00E9446236FEFEFCF1F93CF93DF93FE
:1015D000962F122F632F8330D8F49C30C8F44A30F2
:1015E000B8F4C42FD0E0CC0FDD1F24E1929FC00DD2
:1015F000D11D112490EF899FC00DD11D1124CE0162
:1016000087960E944623612FCE0188960E9446232A
:10161000DF91CF911F910895AF92BF92CF92DF9249
:10162000FF920F931F93CF93DF93A12CB12C00E077
:10163000650110E013C0FE01259134914F2D612FFB
:10164000802F0E94E50A2296F3948AE0F812F3CFE5
:101650008AE0C80ED11C1F5F1C3039F0E601CC0FA8
:10166000DD1FC857DE4FF12CE6CF0F5F88E7A80ECD
:10167000B11C0330E9F6DF91CF911F910F91FF90DC
:10168000DF90CF90BF90AF900895CF93DF93C7EFD7
:10169000D2E060E0CE010E9446232196C11584E08D
:1016A000D807B9F7DF91CF91089580E00E94C70A6B
:1016B00060E086E290E00E9446230E940C0B0E94AC
:1016C000450B81E00E94C70A0895CF9384E090E023
:1016D0000E943223C82F82E290E00E943223982F8A
:1016E0008C2FCF91089583E290E00E9432238332C1
:1016F00089F484E290E00E943223843059F485E238
:1017000090E00E94322391E0893209F090E0892F25
:101710008170089580E0FCCF0F931F93CF93DF93E8
:10172000833030F56C3020F54A3010F5C42FD0E00E
:10173000CC0FDD1F24E1629FC00DD11D112430EFBD
:10174000839FC00DD11D1124CE0187960E943223A4
:10175000082F10E0102F0027CE0188960E94322318
:101760009801282BC901DF91CF911F910F91089506
:1017700080E090E0F8CF462F672F833038F47C303C
:1017800028F44A3018F40E948C0B089580E090E011
:101790000895A0E0B0E0EFECFBE00C9490227C0117
:1017A0000091E3028091E202082BC7E0D0E010E054
:1017B000C8010C2E02C0959587950A94E2F780FD2A
:1017C00009C02197A8F7D12C8D2DCDB7DEB7E7E062
:1017D0000C94AC22DC2EB7018C2F0E94BB0B0E9414
:1017E0003205019771F3F0CF0F931F93CF93FC0154
:1017F000828100811181882391F0662381F0C801E4
:101800000E94C90BC82F682FC8010E944604B80166
:101810008C2F0E94BB0BCF911F910F910895C8018F
:101820000E947D04C82FF3CFCF93DF93D82FC92F09
:101830000E94C90B6D2F7C2F0E94BB0B0E943205AA
:10184000DF91CF910895FC0183819481892BC9F0A8
:101850008181908189238F3FA1F0808191810E94B5
:10186000140C282F92959F70963091F060F4925F3F
:101870009F70923030F481E0203F79F030F4283EC0
:1018800030F080E004C09A5FF3CF243FD1F7089591
:1018900081E0283E18F0213FF9CF08950895809106
:1018A000E0029091E702892B80935E019091E10222
:1018B000992391F0892B80935E0120E080E691E0EE
:1018C000FC013081019631112F5F31E0863693079C
:1018D000B9F721110E94E90448E050E06CE972E098
:1018E0008EE591E00E942523892BA9F088E0EEE5A2
:1018F000F1E0ACE9B2E001900D928A95E1F7E09158
:10190000D302F091D402309731F00280F381E02DC0
:101910008EE591E009950895CF93C82F8823C9F0EB
:101920008238C9F40E946E0781FD13C089E30E94CA
:10193000BB040E944F0C2FEF87EE93E021508040B4
:101940009040E1F700C0000089E30E94D4040E94A7
:101950004F0CCF9108958338A1F40E946E0780FD4B
:10196000F8CF83E50E94BB040E944F0C2FEF81EE5D
:1019700094E0215080409040E1F700C0000083E5F2
:10198000E4CF8438A1F40E946E0782FDE2CF87E4A1
:101990000E94BB040E944F0C2FEF81EE94E0215077
:1019A00080409040E1F700C0000087E4CECF8CEF8C
:1019B0008C0F813A68F4E0E6F1E08191C817D1F02C
:1019C00021E0E636F207C9F78C2F0E94BB04BFCF97
:1019D00080E28C0F883008F0BCCFC77021E030E087
:1019E00001C0220FCA95EAF78091E002822B809312
:1019F000E002ADCF8C2F0E94D4040E944F0CE4CFA4
:101A0000882309F457C0823879F40E946E0781FF59
:101A100051C089E30E94BB040E944F0C89E30E94DD
:101A2000D4040E944F0C0895833859F40E946E0725
:101A300080FF40C083E50E94BB040E944F0C83E5F9
:101A4000EECF843859F40E946E0782FF33C087E4DA
:101A50000E94BB040E944F0C87E4E1CF9CEF980FDB
:101A6000913AE8F290E2980F983050F4877091E044
:101A700001C0990F8A95EAF7892F0E94E104D1CF1E
:101A80009BE5980F9330B8F48091D1029091D202E7
:101A9000892B81F01092D2021092D102E091D302F0
:101AA000F091D402309731F00680F781E02D80E08C
:101AB00090E009950895885A8731E0F78091D50222
:101AC0009091D602892BB1F31092D6021092D502D2
:101AD000E091D302F091D402309761F30084F18554
:101AE000E02DE5CF0F931F93CF93C82F00E010E0B8
:101AF000893311F400E510E08C2F0E948C0C011545
:101B0000110539F48C2F0E94000DCF911F910F9178
:101B100008958FE99FE00197F1F700C000000150A0
:101B20001109EDCF882339F09091E002892B809341
:101B3000E0020E944F0C0895882321F00E94E104E6
:101B40000E944F0C08950F931F93CF93DF93C62FDE
:101B5000D42F122F8823A9F06093D7020E947B070D
:101B600090936A0180936901C77081E001C0880F7A
:101B7000CA95EAF70E94920DDF91CF911F910F91C4
:101B800008958091D70268133DC02091690130917A
:101B90006A014FB7F8948091800190918101A091E2
:101BA0008201B09183014FBF821B930B883C91054A
:101BB00048F56D130CC0812F0E94720DD77081E023
:101BC00001C0880FDA95EAF70E949C0DD5CFC77047
:101BD00001E0802F01C0880FCA95EAF70E949C0D92
:101BE00080E28D0F883050F48D2F877001C0000F78
:101BF0008A95EAF7802F0E94920DDDCF812F0E94F7
:101C0000720DBACFC77081E001C0880FCA95EAF79C
:101C1000DBCF1092E002E0E6F1E086E0DF011D920A
:101C20008A95E9F71092E7020E944F0C08950E94EE
:101C3000090E2FEF84E39CE0215080409040E1F7B3
:101C400000C0000088E19AE00FB6F894A895809350
:101C500060000FBE90936000FFCFAAE2B0E0E3E324
:101C6000FEE00C9494228FE691E0FC010196209115
:101C7000F100208321E087379207B9F78091700146
:101C8000893009F456C0C8F4823009F4B2C08330F8
:101C900009F481C0813071F18091E80083FFE6C0D2
:101CA00080916F01909170019A3008F0DFC0E92FA8
:101CB000F0E0E152FC4D0C9478228A3009F488C09F
:101CC0008B3051F780916F01813231F78091730130
:101CD00090917401892B01F78091E800877F8093B0
:101CE000E8000E94150880917101809304010E9410
:101CF000090ED2CF80916F01813A71F68091E80090
:101D0000877F8093E8008091730190917401892B03
:101D100061F060E080E090E070E00E94BC0780919C
:101D2000E8008B778093E800B7CF68E087E791E021
:101D3000F3CF80916F01813209F0AECF80917301B2
:101D400090917401892B09F0A7CF8091E800877FDB
:101D50008093E8008091E80082FF18C09091F30022
:101D60008091F200029731F48091F100813011F0FE
:101D7000863021F48091F10080937F018091E8000A
:101D80008B778093E8000E94150886CF80919B0294
:101D90008111E0CF81CF80916F01813A09F07CCF32
:101DA0008091730190917401892B09F075CF809116
:101DB000E800877F8093E8008091E80080FFFCCFF7
:101DC000809104018093F1008091E8008E77D9CF53
:101DD00080916F01813209F05FCF8091E800877FA9
:101DE0008093E8000E9415088091720180936B0136
:101DF00053CF80916F01813A09F04ECF8091E80076
:101E0000877F8093E8008091E80080FFFCCF80917D
:101E10006B01D8CF803889F0823841F58091730109
:101E20008F70873018F58093E9008091EB0085FB77
:101E3000882780F91092E90006C080916C0190918A
:101E40006002911182609091E800977F9093E80082
:101E50008093F1001092F1008091E8008E7723C00A
:101E6000811116C080917101813011F18091E800DB
:101E700083FF0AC08091E800877F8093E80080910B
:101E8000EB0080628093EB00AA96E3E00C94B02212
:101E9000823061F780917101882389F01092E90006
:101EA0008091E800877F8093E8000E941508DECFCC
:101EB00081E0933009F080E080936002EFCF809161
:101EC00073018F702FEF280F263080F68093E90082
:101ED0002091EB0020FFE2CF933031F48091EB00B2
:101EE00080628093EB00DACF9091EB009061909349
:101EF000EB0021E030E0A90102C0440F551F8A9594
:101F0000E2F74093EA001092EA008091EB008860CB
:101F1000E8CF8111ABCF109171011F778091E30061
:101F20008078812B8093E3008091E800877F809305
:101F3000E8000E9415088091E80080FFFCCF8091A6
:101F4000E30080688093E30083E0111101C082E028
:101F500080939B028BCF8058823008F087CF4091CE
:101F60007101509172014C3D83E0580799F583E06F
:101F70008A838AE289834FB7F894DE01139620E0C2
:101F80003EE051E2E32FF0E050935700849120FFB0
:101F900003C082958F703F5F8F708A30C8F0895C74
:101FA00090E08D939D932F5F243161F74FBF809117
:101FB000E800877F8093E8006AE270E0CE01019636
:101FC0000E94BC078091E8008B778093E8004ECF99
:101FD000805DE6CF2091730130917401852F9927A0
:101FE0008330910501F160F48130910509F471C0ED
:101FF000029709F03BCF82E490E0EEE0F1E028C0E8
:102000008132910509F459C08232910509F02ECF31
:102010002115310509F467C02130310509F026CFBB
:10202000ECEAF0E015C0CA0199274130B1F18230E5
:10203000910509F43AC0892B09F018CFE4E8F1E0E2
:10204000E4918E2F90E0E4E8F1E0009709F40ECFE0
:102050002091E800277F2093E800209175013091BE
:1020600076018217930708F49C0140E021153105A1
:1020700009F03EC041113CC08091E80082FDA2CF32
:1020800080919B02882309F49DCF853009F49ACF73
:102090008091E80083FFF0CF95CFE4E7F1E0E49191
:1020A0008E2F90E0E4E7F1E0D0CFE2E6F1E0E491BA
:1020B0008E2F90E0E2E6F1E0C8CF2115310571F0F6
:1020C0002130310509F0D2CE89E090E0E9E3F1E07A
:1020D000BFCF82E190E0E0E5F1E0BACF89E090E0A7
:1020E000E0E2F1E0B5CF80E490E0EEECF0E0B0CFDC
:1020F00080919B02882309F465CF853009F462CF73
:102100008091E80083FD5ECF8091E80082FDB4CF2E
:102110008091E80080FFAACF9091F3008091F200B7
:102120002115310519F08830910550F041E00897EC
:1021300009F040E08091E8008E778093E80096CF28
:1021400044914093F1003196215031090196E8CF36
:10215000803809F08BCE8091E800877F8093E8007B
:1021600080916D018093F10077CE81117FCE109127
:102170007101123008F07ACE8091E800877F809359
:10218000E80010936D010E9415081123A9F084E066
:1021900080939B0242E061EC81E00E94B20842E23F
:1021A00061EC82E00E94B20842E260EC83E00E94AF
:1021B000B20880919B025ACE8091E30087FDE7CF61
:1021C00081E0E6CF8093E2021092E7020E944F0C7A
:1021D00008958093E3021092E7020E944F0C089545
:1021E00021E030E001C0220F8A95EAF78091E302F6
:1021F000822B0E94E910089521E030E0A90102C07D
:10220000440F551F8A95E2F7CA0180959091E30229
:1022100089230E94E91008952091E4028095822389
:102220008093E402982F9770911113C030E0482FEB
:10223000082E000C550B2417350759F09091E60233
:1022400092FF07C08595859585950E94FC10109298
:10225000E4020895CF93C091E602C2FB992790F95A
:10226000981791F080FBC2F9C093E6026091E502F5
:1022700084E090E00E9446236C2F82E290E00E946E
:10228000462382E00E940C11CF9108958091E302D1
:10229000982F9670963021F488600E94E910089576
:1022A000877FFBCF0F931F93CF93DF938B01D82FA3
:1022B000C92F0E945907A8016D2F7C2F88E090E05C
:1022C0000E945823DF91CF911F910F910895EBED5C
:1022D000F2E083E0808311828FEF82838383148214
:1022E00063E070E08FEF9FEF0E9452110895A4E029
:1022F000B0E0EDE7F1E10C9495228091DF028330AC
:1023000018F48F5F8093DF028091DB029091DC02F2
:10231000A091DD02B091DE02BC01CD010E945211FC
:102320002496E2E00C94B122A4E0B0E0EAE9F1E105
:102330000C9495228091DF02882319F081508093BC
:10234000DF028091DB029091DC02A091DD02B0916E
:10235000DE02BC01CD010E9452112496E2E00C94F1
:10236000B122A7E0B0E0E7EBF1E10C948822F82E6F
:10237000762EE42E622E9091DB0290FF2BC0E92F87
:10238000E695AE2FB0E0A05EBE4F8C918093D9024F
:102390009E7F923019F59E012F5F3F4F8F2D0E9437
:1023A000CD064B8169818A810E94490AF092DC0244
:1023B0007092DD02E092DE02662061F08091DB0225
:1023C0009091DC02A091DD02B091DE02BC01CD0152
:1023D0000E9452112796EFE00C94A422823019F447
:1023E000E090DE02E3CF863019F4F090DC02DECF1D
:1023F0008930D9F38531D1F6E5518E2F8170582E71
:10240000E695F0E0E857F94FE4910E2F10E08FEFDA
:10241000C82E81E0D82EA12CB12C98E1892E912CC8
:10242000C501B4010E9450228F2D511013C0860F98
:1024300096014E2D672D0E94CD06A00EB11E93E091
:10244000C90ED11CA7E4CA16A2E0DA0649F70E9419
:102450004409ACCF861BECCFEBEDF2E0818121E0AB
:1024600043816281885F0E94B1110895EBEDF2E033
:10247000818121E04381628188500E94B1110895D9
:10248000EBEDF2E0628128E0620F08F46FEF21E0EB
:10249000438181810E94B1110895EBEDF2E06281E8
:1024A00028E0621B08F460E021E0438181810E9402
:1024B000B1110895EBEDF2E0438128E0420F08F4FA
:1024C0004FEF21E0628181810E94B1110895EBED0F
:1024D000F2E0438128E0421B08F440E021E0628101
:1024E00081810E94B111089568EE7EEF80E090E056
:1024F0000E94642360E082E090E00E94462360E056
:1025000083E090E00E9446231092E20260E084E0C3
:1025100090E00E94462364E082E290E00E9446231D
:1025200060E085E090E00E94462360E086E090E075
:102530000E9446236FEF87E090E00E94462340E030
:1025400050E0BA0188E090E00E94582360E08DE0FE
:1025500090E00E94462340E050E0BA0188E190E01C
:102560000E94582360E087E190E00E94462340E00B
:1025700050E0BA018CE190E00E94582360E070E0E6
:1025800080E290E00E94642340E050E0BA0188E1DC
:1025900090E00E94582380E00E94C70A0E94550BD9
:1025A00040E050E0BA018FE090E00E94582340E004
:1025B00050E0BA0183E190E00E9458230895A0E022
:1025C000B0E0E5EEF2E10C948B22FC01A280848065
:1025D00081E08483E8E8F5E0B490E7E0F6E0E49198
:1025E000C6E8D1E09FEFE92E91E0F92E22E0C22E5D
:1025F000DD24D39499249A94EB190E2F10E082E0F5
:102600008A1530F08091DC0288838091DD02898315
:10261000811017C01B821A8297014A8169818881C3
:102620000E94CD06259683E0E80EF11C81E0CE3FA6
:10263000D80729F70E944409CDB7DEB7ECE00C9427
:10264000A7228B818823E9F081508B83989EC0015B
:1026500011246C8170E00E945022FB01FF27E85793
:10266000FA4F8491E82FEB199E9EC0011124B80106
:102670000E9450228091DE02689FB00111247A836B
:10268000CBCF0E940823AC019091DE029695915821
:102690009C9D90019D9D300D1124232F33274217BF
:1026A00053070CF0B9CF82E08A1590F40E940823FA
:1026B0006FEF70E00E94642288830E9408232091BB
:1026C000DD022695622F70E00E946422280F298384
:1026D0001A828091DE02893C20F088EC8C838B8307
:1026E0009BCF8431D8F784E1F9CF6091DB02669506
:1026F00070E04BE050E085E091E00E941823892BC8
:1027000019F481E08093DA020E947B0790937D02A6
:1027100080937C020895A4E0B0E0E1E9F3E10C9439
:1027200095229091DB0290FF34C08823B1F186326C
:10273000B0F58F77880F9091DB029170892B809391
:10274000DB02662361F08091DB029091DC02A091B4
:10275000DD02B091DE02BC01CD010E9452116091F8
:10276000DB02669570E04BE050E085E091E00E946E
:102770001823892BB1F01092DA0281E080937F0256
:1027800020E04091DE026091DD028091DC020E9437
:10279000B1112496E2E00C94B12281E0CBCF85E226
:1027A000C9CF0E947513E9CF8091DB0286958F5FB8
:1027B000863208F081E061E00E948B1308959091C9
:1027C000DB0296958FEF890F913009F485E261E085
:1027D0000E948B1308959091DB0290FF08C096959C
:1027E000981728F0961718F40E94D413089561E002
:1027F0000E948B130895A8E0B0E0E1E0F4E10C94AE
:1028000088227C01DC019C9111968C911197139682
:102810002D913C91232B09F45CC089238F3F09F44F
:1028200058C061E0C7010E94F40B8C01F70182815E
:10283000882309F464C5980122513F4520313105B0
:1028400008F068C58FEF93E00E943223811130C0F9
:10285000025147EFC42E42E0D42E01113EC08091B8
:102860001C0190911D01A0911E01B0911F0189834F
:102870009A83AB83BC83662463943AE0532E86012B
:102880000F5F1F4FC6010E94322389831A8288235B
:1028900079F09FEF980F933078F58A83698232E060
:1028A000C30ED11CC8010E9432238B83811125C025
:1028B0008091E4028770882361F0D70112968C9191
:1028C000882339F08091E60282FF03C082E00E94F3
:1028D0000C112896EFE00C94A422C114F4E0DF065A
:1028E00039F3C6010E94322396012F5F3F4F6901E1
:1028F0008111F3CF0150B1CF68018E010F5F1F4FDF
:10290000D8018C91882309F4BACF813009F045C0F1
:1029100011969C91119712968C91913029F40E5F2B
:102920001F4F0E94720D06C0923039F40E5F1F4F88
:102930000E948C0C0F5F1F4FE3CF933029F40E5F82
:102940001F4F0E94000DF6CF943019F00F5F1F4FFC
:10295000F1CF0E5F1F4F20E030E0A8014F5F5F4FC7
:102960008053990B8A30910560F02115310511F3E0
:102970008FE99FE00197F1F700C000002150310975
:10298000F4CF529EB001539E700D11249C01260F6E
:10299000371FF80181818A01E0CFE82FF0E0E3538F
:1029A000F84F7490282F26952695269530E0F9014A
:1029B000E354F84F94918770F901E355F84FA490D0
:1029C000B12C082E02C0B594A7940A94E2F7A1E0B6
:1029D000AA22BB24F901E356F84F8490912C082ECB
:1029E00002C0959487940A94E2F7B1E08B2299246F
:1029F000292F30E002C0359527958A95E2F720FF10
:102A00000BC081EE0E948C0CA114B104D9F4872D67
:102A10000E94720D81EE13C0A114B10449F4872DF8
:102A20000E94720D8114910409F484CF8CE279CF55
:102A300086EE0E948C0C872D0E94720D86EE0E94FD
:102A4000000DF0CF86EE0E948C0C872D0E94720D37
:102A500086EE0E94000DDECF81E00E94F0100E9401
:102A6000461126CF81E00E94FC10F9CF82E0F5CF1D
:102A7000053F9CE5190729F127E245EE66EE063F82
:102A8000ACE51A0799F027E245EE64EE043FBCE599
:102A90001B0761F0811119C00D35100709F035C110
:102AA00065E280E22EC226E241EE61EE0E94A30DB5
:102AB000FFCE27E245EE65EEF9CF26E241EE60EE6D
:102AC000F5CF26E241EE62EEF1CF1092D702013649
:102AD000FDE51F0709F456C0A8F5C8018A5F9C45AB
:102AE000099708F002C10E94650B9093E60280935B
:102AF000E502F801EB5FFC45E830F10508F071C034
:102B0000E751FC4D0C9478221092D70206313CE537
:102B1000130718F702304CE5140708F405C20E94A9
:102B2000650B9093E6028093E502F801E350FC45C3
:102B30008091E5028160E331F10560F5EF50FC4DD5
:102B40000C947822053A8DE51807B1F1C8018D5A29
:102B50009D45039708F0FEC10E94650B9093E60225
:102B60008093E5028091E60288600D3A9DE51907A1
:102B7000D9F10E3AADE51A0709F0B0C08091E6022E
:102B8000877F32C00E94650B9093E602809584FB9C
:102B9000809584F98093E5026091E5021091E60248
:102BA00084E090E00E944623612F82E290E00E9440
:102BB00046230E94090E7CCE0E94650B9093E6028C
:102BC000809580FB809580F9E5CF8091E502826059
:102BD000E1CF8091E5028460DDCF8091E5028860DD
:102BE000D9CF8091E60281608093E602D5CF8091B3
:102BF000E6028260F9CF8091E5028061CBCF8091BF
:102C0000E5028062C7CF8091E5028064C3CF0E9455
:102C1000090E8091E5028068BDCF8091E5028C604D
:102C2000B9CF8091E6028360DFCF8091E5028E7F8D
:102C3000B1CF8091E5028D7FADCF8091E5028B7F92
:102C4000A9CF8091E502877FA5CF8091E6028E7F94
:102C5000CBCF8091E6028D7FC7CF8091E5028F7E3A
:102C600099CF8091E5028F7D95CF8091E5028F7B92
:102C700091CF0E94090E8091E5028F778BCF8091D2
:102C8000E502837F87CF8091E6028C7FADCF809174
:102C9000E50282FB992790F921E0922790FB82F9C7
:102CA00090FB83F977CF8091E602982F90959170F1
:102CB0008E7F892B90FB81F997CF0E94090E90910E
:102CC000E502892F97FB87F9805864CF61E08EE099
:102CD00090E00E94462360CF60E0F9CF9091E60239
:102CE000892F877F93FF88607FCF0631BCE51B0764
:102CF00009F474C00B35EDE51E0709F43EC108F474
:102D00000FC10C351D4509F42EC1F7018281C08029
:102D1000D180882309F433C1C6010E94C90B182F42
:102D2000682FC6010E944604B601812F0E94BB0B8A
:102D30000E9432058C01D7011296BC90129715960D
:102D4000AC90A2942FE0A2228091E40287708823A5
:102D5000C1F0CB2CBB20B1F0812F807F803421F0DB
:102D600080E2800F883068F08091E60282FF09C01F
:102D700082E00E940C118091E4028770CC24C394FD
:102D80008111C12C812F82958F70883009F4C1C1C7
:102D900008F0FAC0823008F409C1825F8F70823077
:102DA00008F43EC1CC20A9F08091E40280FD11C05E
:102DB000F70112828595859585950E94F010C701CF
:102DC0000E94FB138091E4028595859585950E946C
:102DD000FC1060E0C7010E94F40B7BCD8091E00203
:102DE0008A7A91E0811101C090E09093D802882303
:102DF00031F085E30E94BB040E944F0C59CD89E25B
:102E0000F9CF85E3B5C28091E0028272063D3CE5D0
:102E1000130708F07ACF023C4CE5140708F475CF8D
:102E2000F801E25CFC45E431F10508F06ECFEC5F9F
:102E3000FB4D0C9478228091DB0280FF21C08E7FB5
:102E40008093DB028091DB029091DC02A091DD0295
:102E5000B091DE028D839E83AF83B887BC01CD0124
:102E60000E9452111092DA029FEFA0E7B2E0915057
:102E7000A040B040E1F700C000000E94440918CD16
:102E800081608093DB0261E086950E948B1310CDF8
:102E90004FED53E164ED73E10E94670709CD44ED06
:102EA00053E16FED73E1F8CF46E352E16CE272E17A
:102EB000F3CF4CE252E166E372E1EECF4DE452E132
:102EC00060E472E1E9CF40E452E16DE472E1E4CF05
:102ED00047E652E16AE572E1DFCF4AE552E167E693
:102EE00072E1DACF44E951E167E771E1D5CF47E715
:102EF00051E164E971E1D0CF61E081E0C6CF65E0E6
:102F000082E00E94EB13D4CC68E086E0FACF6EE05A
:102F100089E0F7CF64E18FE0F4CF6EE185E1F1CF96
:102F20000E3DECE51E07E1F081E00A35FDE51F07E7
:102F300009F101151C4509F0E8CE0E94090E4FEF7A
:102F400084E39CE0415080409040E1F700C00000E5
:102F50000E94A407073A1D4509F0D7CE0E94170E1C
:102F60000E947412FBCF8091E60282FB882780F9D1
:102F700091E089270E942A11C8CE80E0FBCFC601CC
:102F80000E947D04182FD0CE893009F431C18A5FA8
:102F90008F70823008F006CF023F09F03AC1812FCE
:102FA0008F71B11033C10E94F010E0C0B12FBF701B
:102FB000DB2E103118F0D29490EFD922BB20B9F05B
:102FC000DD2069F080E2800F883010F0011109C027
:102FD0008091E0028D298093E0020E944F0C802FA7
:102FE0004DC08091E7028D298093E702F6CF802FB4
:102FF0000E94000DDD2009F4D5CE80E2800F8830DC
:1030000010F0011104C08D2D0E94E10406C0D0947F
:103010008091E7028D218093E7020E944F0CC2CE7F
:10302000E12FEF70DE2E107F103219F0D29480EF76
:10303000D822002399F0013009F44DC0BB2009F4D7
:1030400057C0AA2009F44DC0D70115968C91159749
:1030500080FFC5CF8F7015968C9343C02091E602F8
:1030600022FD16C0BB2069F0DD2039F08091E0021E
:103070008D298093E0020E944F0C80E00E948C0C0E
:1030800091CE80E00E94000DDD2009F48BCEBBCFF5
:10309000BB20A1F09091E1028D2D892BA11003C0DE
:1030A0000E94920D7FCEF1E0AF12FACF22FF7ACECE
:1030B000981709F477CE8093E10274CEA11006C070
:1030C0000E94E9048D2D0E949C0D6CCE21E0A21679
:1030D00009F468CEF5CFBB2031F035E03A1508F49D
:1030E00061CE8D2DDDCF44E04A1508F45BCEEACFEA
:1030F000AA2041F3093349F4BFEFE7EEF3E0B15002
:10310000E040F040E1F700C00000802F0E94000D79
:1031100049CE812F8370811134C0B11027C0402F58
:10312000429546954770440F440F802F8F70042EB0
:1031300001C0880F0A94EAF70071002341F02FE0E4
:1031400030E001C0220F4A95EAF7022F009516954C
:1031500016951370123081F0133061F02091E20265
:10316000113039F0802B82230E94E2100E946E07FA
:1031700019CE822B802BF8CF802B9091E2028927E9
:10318000F3CFBB2051F110FFF1CF402F4295469570
:103190004770440F440F802F8F70042E01C0880F9A
:1031A0000A94EAF70071002341F02FE030E001C0FB
:1031B000220F4A95EAF7022F00951695169513707F
:1031C000123089F0133069F02091E302113041F0A0
:1031D000802B82230E94E910C9CF823038F2D5CFEC
:1031E000822B802BF7CF802B9091E3028927F2CF9F
:1031F0001F70BB2039F0812F0E94F010802F0E9499
:10320000920DB4CF802F0E949C0D812F0E94FC1044
:10321000ADCF033F70F4003FB9F0013FB9F1BB20DF
:1032200009F45BC0AA2009F455C0802F0E948C0CC1
:103230009DCF033FD9F0043F29F1B110F3CFA11086
:103240005AC0812F8F71E2CFBB2069F024E02A158C
:1032500008F48CCF1F7181E090E0012E01C0880F2F
:103260000A94EAF7C1CF35E0A316F2CF80E0BB2085
:1032700009F4B0CF1F7181E0012E01C0880F0A94BC
:10328000EAF7A8CF8091E60282FD06C0812F8F71F8
:10329000BB2009F4BBCF87CEBB2089F01F71812FE3
:1032A0000E94F0108091E60282FF07C048E0149F60
:1032B000C001112483608093E402812F74CE81E0E9
:1032C0000E940C1181E08A1508F050CF82E00E9424
:1032D0000C114CCF812F8F7166CEAA2009F4B1CF8B
:1032E000093349F49FEFA7EEB3E09150A040B040FE
:1032F000E1F700C00000802F0E94000D37CF0031A1
:10330000FFE51F0709F4AECB01312FE5120761F489
:1033100082E0A9CB00313FE5130709F49DCB0131D1
:103320004FE5140709F4A2CB033FECE51E0709F4AF
:10333000C4CB08F09DCB083D2CE5120709F4B9CBAE
:1033400028E241E0093D3CE5130709F4B4CB073D11
:103350004CE5140709F4A7CB8111D6CB0631ECE577
:103360001E0709F050CD8091D80281114ACD89E223
:103370000E94D40441CD1F93CF93DF9380911F030C
:10338000803108F04CC080911C03882309F447C0A9
:103390008091E9022091E80260911A0330911B03A9
:1033A000C0911D03D0911E03732F76232817B9F106
:1033B00090E0209709F443C016E07F3F09F43FC036
:1033C000189FF001199FF00D1124DF01A651BD4F88
:1033D00011964C91119734132CC04C91461329C06F
:1033E00012964C91129741111EC013964D915C910B
:1033F0004C1B5D0B483C5105E0F480911F038F701E
:10340000806180931F03E151FD4F80818F70806147
:1034100080838AE193E00E94FB130E94B104DF9154
:10342000CF911F9108950196877099272813C8CFCF
:10343000F6CF0196877099272813BFCFF0CF01965A
:103440008770B4CFABE0B0E0E8E2FAE10C948B22F5
:103450008C0185E0F801DE01179601900D928A95A6
:10346000E1F7F801C280A380B4808AE1882E83E06E
:10347000982E80911A0390911B0320911D03309187
:103480001E032115310509F40CC1492F48234F3F74
:1034900009F407C1D0901C03A501421B530BDD208A
:1034A00009F4D2C0F0901F03483C510508F0ACC0AD
:1034B00021815FE05F1508F46BC0EC2C291313C069
:1034C0009081981310C0C1101EC08F2D8F70806125
:1034D00080931F03C4010E94FB1380911F03F80116
:1034E0008583E12C50C08F819885A114B10489F0A7
:1034F000282F29232F3F69F0E091E9022091E8026B
:1035000036E0CC20E1F080911F03816080931F039F
:10351000E8CFCC2031F3F7CF4E2F50E03E9FF001A3
:103520001124E651FD4F6181691306C06081681363
:1035300003C062816111D5CFFA013196E770E213C1
:10354000EBCF8F8198850E94140C292F22952F7024
:10355000903248F49F70992311F08823A1F0805E87
:10356000883088F004C0225F2F70223028F0C80114
:103570000E94FB13ED2C07C09F70992381F3F80183
:103580009581903160F78E2D2B96ECE00C94A7225C
:10359000291312C0908198130FC0C1100DC0F5827D
:1035A000C8010E94FB1386E0F801AAE1B3E0019094
:1035B0000D928A95E1F725C0C8010E94230C88234B
:1035C00009F46BC0CC2009F468C080911F038032DD
:1035D00070F080911A0390911B039A8389831B8258
:1035E000BD82AC82FE82CE0101960E94FB1386E072
:1035F000F801AAE1B3E001900D928A95E1F70E94EB
:10360000BB19EE24E394BFCFFFE0FF1550F08AE131
:1036100093E00E94FB1386E0F40111928A95E9F78A
:1036200060CFF80121819213C7CF90819813C4CF46
:10363000C110C2CFF582C8010E94FB1386E0F401DD
:1036400011928A95E9F7DDCF483C510520F7CC204F
:1036500021F12181921317C09081981314C0809199
:103660001F0380FDA0CF803108F49DCF8583807F2C
:10367000803F09F495CF8581982F907F905F8F7060
:10368000892B85838DCFC8010E94230C8111AFCF78
:1036900080911F03816080931F03C8010E94FB1368
:1036A000B0CFCC20D1F3C8010E94230C8823A9F30A
:1036B0009ECFA7E1B0E0EFE5FBE10C9494224B8BA9
:1036C0005C8B962F6D8B7E8B8F8B61111092E70236
:1036D0001A8A85E0FE017396DE011D9601900D9217
:1036E0008A95E1F79F8786E0FE013D96DE011796F9
:1036F00001900D928A95E1F7CE0107960E94221A59
:10370000811131C086E0FE013796DE0111960190ED
:103710000D928A95E1F78F8198852091E80240917A
:10372000E9026A857B85672BF1F089238F3FD9F009
:1037300030E0C90101968770992750E084179507FA
:10374000E9F096E0929FD001939FB00D1124A6510D
:10375000BD4FFE01319601900D929A95E1F780934D
:10376000E8020E94B10416E08091E9029091E8021B
:10377000891312C06796E3E00C94B0220E94090EF0
:103780001092E8021092E90286E0EAE1F3E0DF013C
:103790001D928A95E9F7E7CF189FC0011124865141
:1037A0009D4F0E94221A882329F38091E90290E01C
:1037B0000196877099278093E902D6CFA8E1B0E0FF
:1037C000E4EEFBE10C948922FE01319688E1DF01F1
:1037D0001D928A95E9F796E4A92E91E0B92E8F0102
:1037E0003F01EE24E394F12C3CE5C32E31E0D32ECF
:1037F000F50181915F018F3F09F446C0F894E82FED
:10380000E295EF70F0E021A18F70A70102C0440F94
:10381000551F8A95E2F7CA01922F982B91A392A186
:103820008095892382A3789400C0E2E5F1E021E04D
:1038300030E0812C912C41914F3F09F470C0A42FAE
:10384000A295AF70A05EB0E08C9190E04F7002C086
:10385000959587954A95E2F78170811160C0C901FD
:10386000882A992A220F331FCE16DF0621F7F50189
:10387000319780818F3F11F00E94B30650EA5A952C
:10388000F1F7D8018D929C920E5F1F4FB2E5AB16F7
:10389000B1E0BB0609F0ACCF48E150E0B30187E4EA
:1038A00092E00E942523892BE9F188E1F301A7E446
:1038B000B2E001900D928A95E1F781E08093680172
:1038C0000E947B07909367018093660120916601B7
:1038D000309167014FB7F8948091800190918101F8
:1038E000A0918201B09183014FBF821B930B05977A
:1038F000E8F048E150E067E472E083E892E00E947B
:103900002523892B49F088E1E7E4F2E0A3E8B2E05F
:1039100001900D928A95E1F71092680107C080E04E
:1039200090E09ECF809168018111D0CF6896EEE043
:103930000C94A522CDB7DEB7A4970FB6F894DEBFDE
:103940000FBECDBF85B7806885BF85B7806885BF4E
:1039500084B7877F84BF0FB6F894A89580916000E4
:10396000886180936000109260000FBE80E890E054
:103970000FB6F89480936100909361000FBE81EBC5
:1039800096E090935D0180935C010E9465080E941F
:10399000E9088091E20084608093E200789480914D
:1039A0009B02882399F08091E9001091EC00179513
:1039B000112717958F70182B1092E9008091E8005D
:1039C00083FD0E942D0E1F701093E90082E084BDDC
:1039D00093E095BD9AEF97BD80936E000E94730BA4
:1039E000811102C00E94550B06E411E0D8018D91AF
:1039F0008D018F3F11F00E94B306B1E002351B0725
:103A0000A9F702E511E03CE5E32E31E0F32EF801E1
:103A100081918F018F3F11F00E94B306E016F106ED
:103A2000B1F788E1E3E8F2E0DF01282F1D922A9543
:103A3000E9F7E7E4F2E0DF011D928A95E9F780E01B
:103A400090E00E944023883E9E4F21F40E94730B19
:103A5000811102C00E94741282E090E00E94322321
:103A6000809363020E94650B9093E6028093E502C7
:103A70000E94DE1BEFE3FCE93197F1F700C0000084
:103A80000E94DE1B8091830280FF08C06FEF7FEFF2
:103A900080E090E00E9464230E94A40783E090E00D
:103AA0000E9432230E94E21080915F0281113AC08D
:103AB00080E090E00E944023883E9E4F21F40E94C7
:103AC000730B811104C00E9474120E94671188E078
:103AD00090E00E943A236093DB027093DC028093B3
:103AE000DD029093DE02623070F40E94671188E07C
:103AF00090E00E943A236093DB027093DC02809393
:103B0000DD029093DE020E9459071092DA02809142
:103B1000DB0280FF04C060E086950E948B1381E089
:103B200080935F0280918100886080938100809102
:103B300081008160809381008FB7F89420ED33E09D
:103B400030938900209388008FBF80E191E09093AB
:103B5000D4028093D30280919B02853069F49091C6
:103B6000600280919B02853009F45EC00E94090EBC
:103B70000E946E070E9475130E94DE1B24E6A22E8F
:103B800022E0B22E03E812E0D801F5012191319133
:103B90008D919D9142E0EC37F40709F46FC028172E
:103BA0003907A1F393E8892E92E0992E512CD40184
:103BB000ED90FD904D01F501619071905F016E14E3
:103BC0007F0459F16E247F24412CCC24C394D12C42
:103BD000C3018C219D21892BB1F049825A8221E0B9
:103BE000C7018C219D21892B09F420E02B830E94A1
:103BF0007B078160782F9D838C8349815A816B81FB
:103C0000892F0E94591B4394CC0CDD1CFAE04F1203
:103C1000DFCFF5013297F182E08253942CE052120B
:103C2000C6CF0E9487074CC080919B02992309F45C
:103C300098CF0E94DE1BE3E8F2E081919191892BFD
:103C400029F422E0EB39F207C1F789CF80E189BD81
:103C500082E189BD09B400FEFDCF8091D8008F7D3F
:103C60008093D8008091E00082608093E000809192
:103C7000E00081FDFCCF0E94090E71CF28173907A3
:103C800009F090CF0E947B077C01809161029091A6
:103C90006202E816F906A1F08FEF89838A831B82FE
:103CA0000E947B078160782F9D838C8349815A8194
:103CB0006B81892F0E94591BF0926202E09261028F
:103CC0008091DA028823D1F18091D902E091DB0260
:103CD000E695E81BE0937E02823009F04FC0F0E0E9
:103CE000E756F84FE491EE2EF12CA2E7CA2EAAE097
:103CF000DA2E80917F02882361F010927F020E9469
:103D00007B0790937D0280937C0210928102109237
:103D100080020E947B0720917C0230917D02821BF1
:103D2000930B8F3F9F4750F42E0D3F1D30937D0224
:103D300020937C028CE792E0F60109950E946E07C1
:103D400090918202891721F0809382020E94870756
:103D500080919B02843009F0FECE83E08093E900DD
:103D60008091E80082FFF7CE8091E80085FD55C084
:103D70008091E8008B778093E800EDCE863059F48F
:103D8000F0E0EA56F84FE491EE2EF12CF6E8CF2E53
:103D9000FAE0DF2EAECF893061F4E695F0E0ED5623
:103DA000F84FE491EE2EF12CE9E7CE2EE9E0DE2E7D
:103DB000A0CF8F3061F4E695F0E0E057F84FE49142
:103DC000EE2EF12C73EAC72E79E0D72E92CF44EF76
:103DD000E42EFF24F39458E0C52E5AE0D52E8F31FF
:103DE00009F487CF90EDE92E27E0F22E3CECC32EAC
:103DF00036E0D32E803209F07CCF8E2F63E00E9414
:103E00003622E92FF0E0E357F84FE491EE2EF12C43
:103E10006FEDC62E62E1D62E6CCF0E943408882347
:103E200079F08091E8008B778093E800E981E15098
:103E3000E33108F08EC0F0E0E85EFB4D0C94782290
:103E400080E2C82ED12CCE0101967C018091E80041
:103E500085FD0AC08091E8008B778093E8000E947E
:103E60003408882399F3DDCF8091F100D7018C933A
:103E7000B1E0CB1AD108C114D10499F2EFEFEE1AD8
:103E8000FE0AE4CF1A828AE08B8310C08A818230D6
:103E900099F18330D1F1813009F05BC00E9487072E
:103EA0000E947E226B837C838D839E8380919B0204
:103EB000843009F050CE8091E9001091EC00179504
:103EC000112717958F70182B82E08093E90080915D
:103ED000E80080FF0DC040E050E060E270E0CE01FD
:103EE00001960E9484088091E8008E778093E80014
:103EF0001F701093E9002FCE86E290E00E943223DB
:103F00001B821C821D828E83D1CFFE013196D80187
:103F10008C9111969C910E5F1F4F928383833296F2
:103F2000B2E00B391B0799F7C1CF8A81823089F43F
:103F30008B819C81AD81BE8189A39AA3ABA3BCA3D5
:103F4000BC01CD010E947E2286E290E00E944623C1
:103F5000ADCF8FEF8983AACF4C816B818A810E947C
:103F60008C0B9827892798279E838D839FCF2D813F
:103F70003E813227232732274C816B818A810E9420
:103F8000E50A94CF0E940C0B91CF8A818238D1F13F
:103F9000F8F4803831F1813809F088CF60E08B8106
:103FA0000E948B139B818091DB02911123C08E7F35
:103FB0008093DB021092DA029FEFA0E7B2E091500B
:103FC000A040B040E1F700C000000E9444096ECF5D
:103FD000833809F06BCF20E04091DE026C818B8149
:103FE00006C020E04B816091DD028091DC020E94DE
:103FF000B1115CCF81608093DB0260E086950E9406
:104000008B1354CF8B818093DF0250CF8A8182380B
:10401000D9F058F4803899F0813809F047CF809171
:10402000DB0280FF0FC086952FCF833809F03ECF8B
:104030008091DC028B838091DD028C8337CF80916D
:10404000DE0222CF80E020CF8091DF021DCF809161
:10405000DB029091DC02A091DD02B091DE0289A327
:104060009AA3ABA3BCA3BC01CD010E9452111ECFE9
:1040700080E18A831BCF81E08A8389E005CF0A81B2
:104080001B811027012710278C816801C80ED11CC5
:104090007E0195E0E90EF11C0C151D0509F406CF13
:1040A00080E00930A1E01A0728F4C80189509D4F2B
:1040B0000E943223F70181937F010F5F1F4FECCFE6
:1040C0000A811B81102701271027CE0101967C0150
:1040D000CC80C80ED92ED11CEC14FD0409F4E6CE18
:1040E000093091E0190740F4D70114966C91C8018A
:1040F00089509D4F0E9446230F5F1F4FBFEFEB1A61
:10410000FB0AEACF0E94450BD1CE83E0B2CF0A81F1
:104110001B811027012710278C816801C80ED11C34
:104120007E01E5E0EE0EF11C0C151D0509F4BECE76
:1041300080E0003DF2E01F0720F4C80187960E944E
:104140003223D7018D937D010F5F1F4FEDCF0A8181
:104150001B81102701271027FE0131967F01CC809B
:10416000CE0EDF2ED11CEC14FD0409F49FCE003DD1
:10417000F2E01F0738F4D70114966C91C8018796B6
:104180000E9446230F5F1F4FBFEFEB1AFB0AEBCFD6
:104190008F938FB78F939F93EF93FF9380918401B9
:1041A0009091850101969093850180938401E92F78
:1041B000E695E695F0E0E85BFA4FE491FF91EF9128
:1041C0009F918F918FBF8F91189578941F921FB6F2
:1041D0001F9211248F939F93AF93BF93809180017F
:1041E00090918101A0918201B09183010196A11D5E
:1041F000B11D8093800190938101A0938201B093BF
:104200008301BF91AF919F918F911F901FBE1F900F
:1042100018951F920F920FB60F9211242F933F9370
:104220004F935F936F937F938F939F93AF93BF93BE
:10423000EF93FF938091E10082FF09C08091E2003B
:1042400082FF05C08091E1008B7F8093E100809127
:10425000DA0080FF24C08091D80080FF20C08091C8
:10426000DA008E7F8093DA008091D90080FFA7C0AA
:1042700080E189BD82E189BD09B400FEFDCF81E006
:1042800080939B0280916E01811109C00E94650894
:104290000E94E9088091E20084608093E2008091AE
:1042A000E10080FF1CC08091E20080FF18C0809177
:1042B000E2008E7F8093E2008091E2008061809333
:1042C000E2008091D80080628093D80019BC85E01C
:1042D00080939B0280916F00826080936F00809139
:1042E000E10084FF30C08091E20084FF2CC080E1B7
:1042F00089BD82E189BD09B400FEFDCF8091D8005F
:104300008F7D8093D8008091E1008F7E8093E100C3
:104310008091E2008F7E8093E2008091E2008160D4
:104320008093E20080916D01882309F44EC084E0FF
:1043300080939B0280919B0280916F008D7F809380
:104340006F000E946E078091E10083FF27C080917B
:10435000E20083FF23C08091E100877F8093E1002A
:1043600082E080939B0210926D018091E1008E7F2C
:104370008093E1008091E2008E7F8093E200809143
:10438000E20080618093E20042E060E080E00E9411
:10439000B2088091F00088608093F000FF91EF9167
:1043A000BF91AF919F918F917F916F915F914F914D
:1043B0003F912F910F900FBE0F901F90189519BC31
:1043C00010929B0210926E016ACF8091E30087FFEA
:1043D00002C083E0ADCF81E0ABCF1F920F920FB64A
:1043E0000F921124FF920F931F932F933F934F939C
:1043F0005F936F937F938F939F93AF93BF93CF936D
:10440000DF93EF93FF9309EE10E0F8018081C091F4
:10441000EC00C795CC27C7958F70FC2EF82A108228
:10442000C0EFD0E08881877F888378940E942D0E2A
:10443000F8011082888188608883CF2DCF70C08377
:10444000FF91EF91DF91CF91BF91AF919F918F91AC
:104450007F916F915F914F913F912F911F910F919C
:10446000FF900F900FBE0F901F901895991B79E049
:1044700004C0991F961708F0961B881F7A95C9F7F4
:104480008095089587FB082E062687FD819567FD98
:1044900061950E9436220EF4919507FC819508954E
:1044A000AA1BBB1B51E107C0AA1FBB1FA617B7075A
:1044B00010F0A61BB70B881F991F5A95A9F7809576
:1044C0009095BC01CD01089597FB072E16F400943A
:1044D00007D077FD09D00E94502207FC05D03EF49A
:1044E000909581959F4F0895709561957F4F0895A0
:1044F000EE0FFF1F0590F491E02D09946927962790
:10450000692778278727782708952F923F924F921F
:104510005F926F927F928F929F92AF92BF92CF9253
:10452000DF92EF92FF920F931F93CF93DF93CDB75C
:10453000DEB7CA1BDB0B0FB6F894DEBF0FBECDBFD4
:1045400009942A88398848885F846E847D848C84A5
:104550009B84AA84B984C884DF80EE80FD800C81AE
:104560001B81AA81B981CE0FD11D0FB6F894DEBF91
:104570000FBECDBFED0108958F929F92AF92BF9273
:10458000CF92DF92EF92FF92CF93DF93EC0168819D
:1045900079818A819B81611571058105910521F4DD
:1045A00064E279ED8BE597E02DE133EF41E050E0F7
:1045B0000E947A2349015A019B01AC01A7EAB1E4A8
:1045C0000E9499236B017C01ACEEB4EFA50194012C
:1045D0000E94A723DC01CB018C0D9D1DAE1DBF1DCC
:1045E000B7FF03C00197A109B04888839983AA83C4
:1045F000BB839F77DF91CF91FF90EF90DF90CF90BB
:10460000BF90AF909F908F9008950E94BC22089514
:1046100080E091E00E94BC220895B0E0A0E0809389
:10462000000190930101A0930201B093030108954A
:10463000FC014150504030F001900616D1F73197FF
:10464000CF010895882799270895FB01DC0104C054
:104650008D910190801921F441505040C8F7881B7A
:10466000990B0895F999FECF92BD81BDF89A9927CB
:1046700080B50895A6E1B0E044E050E00C946C23CE
:10468000A8E1B0E042E050E00C946C23262FF999A9
:10469000FECF92BD81BDF89A019700B4021639F0A1
:1046A0001FBA20BD0FB6F894FA9AF99A0FBE089572
:1046B0000396272F0E9447230E944623252F0E94FE
:1046C0004723242F0C9447230196272F0E9447232A
:1046D0000C944623DC01CB01FC01F999FECF06C006
:1046E000F2BDE1BDF89A319600B40D9241505040B0
:1046F000B8F70895052E97FB1EF400940E949123AD
:1047000057FD07D00E94AC2307FC03D04EF40C9455
:10471000912350954095309521953F4F4F4F5F4FD6
:10472000089590958095709561957F4F8F4F9F4F1D
:1047300008950E94CE23A59F900DB49F900DA49F35
:10474000800D911D11240895B7FF0C9499230E94A8
:104750009923821B930B0895A1E21A2EAA1BBB1B5F
:10476000FD010DC0AA1FBB1FEE1FFF1FA217B3073D
:10477000E407F50720F0A21BB30BE40BF50B661F53
:10478000771F881F991F1A9469F760957095809517
:1047900090959B01AC01BD01CF010895A29FB0018E
:1047A000B39FC001A39F700D811D1124911DB29F65
:1047B000700D811D1124911D0895F894FFCF0A0FEB
:1047C000300F360F300F360F890FAB0F360FA81092
:1047D000B510F71525162916111643165316661629
:1047E0006C16E515E915ED15FB15FF1503160716F3
:1047F0000D16151619161D1621162D1631163516FD
:1048000039163F165D1647161B1748174F175417D2
:1048100059175E17631768176D17721777177C178C
:104820007F17841787178A17581458148D17581430
:10483000421F461F951FAC1FB71FC21FC51F062072
:104840002720A91FA91F38203B203F20602082205D
:0648500085208720A7204F
:1048560001000000010115161718191A1B1C1D1E50
:10486600B507960AB807B907BA07BB0700000000E4
:104876000001020202020606060909090909090FD2
:104886000F0F0F0F0F151515151515151515151FE6
:1048960020202020202036323331F7F6946697C642
:0C48A600343536323331F7946697C6344F
:00000001FF
