:100000000C94B0030C94CD030C94CD030C94CD034D
:100010000C94CD030C94CD030C94CD030C94CD0320
:100020000C94CD030C94CD030C9437220C940A232A
:100030000C94CD030C94CD030C94CD030C94CD0300
:100040000C94CD030C94791A0C94CD030C94CD032D
:100050000C94CD030C941B1E0C94CD030C94CD0377
:100060000C94CD030C94CD030C94CD030C94CD03D0
:100070000C94CD030C94CD030C94CD030C94CD03C0
:100080000C94CD030C94CD030C94CD030C94CD03B0
:100090000C94CD030C94CD030C94CD030C94CD03A0
:1000A0000C94CD030C94CD030C94CD0300002900D7
:1000B0002B00E10000000000000000000000000034
:1000C0001400000004001D00E0000000000000001B
:1000D000000000001A00160000001B00E3000000F2
:1000E00000000000000000000800070006000000FB
:1000F000F65C000000000000000000001500090090
:100100001900015100000000000000000000000084
:1001100017000A0005002C0000000000000000008D
:1001200000000000000000000000000000000000CF
:100130001C000B001100280000000000000000005F
:100140000000180000000D00100002510000000027
:100150000000000000000C000E0000003600F75CFC
:100160000000000000000000000012000F00370037
:100170000000E70000000000000000000000130085
:1001800033003800E4000000000000000000000020
:1001900000002A003400E5000000000000003504E3
:1001A000010001000100000000000000000000004C
:1001B0001E00000000000000010000000000000020
:1001C000000000001F00000000000000010000000F
:1001D00000000000000000002000000000000000FF
:1001E00001000000000000000000000021000000ED
:1001F00000000151000000000000000000000000AD
:1002000022002D002F00010000000000000000006F
:1002100000000000000000000000000000000000DE
:1002200023002E003000010000000000000000004C
:100230000000240000000000000003510000000046
:100240000000000000002500000000000000010088
:100250000000000000000000000026000000000078
:100260000000010000000000000000000000270066
:10027000000000000100000000000000000000007D
:1002800000004C00000001000100000000003504E7
:10029000010001000100000000000000000000005B
:1002A00000000000500000000100000000000000FD
:1002B000000000005200510000000000010000009A
:1002C000000000000000000000004F0000000000DF
:1002D0000100000000000000000000003A003C00A7
:1002E0003E0003510000000000000000000000007C
:1002F0003B003D003F000100000000000000000046
:1003000000000000000000000000000000000000ED
:100310004000420044000100000000000000000016
:1003200000004100000043004500025100000000B1
:1003300000000000000000000000000000000100BC
:100340000000000000000000000046004A004D00D0
:100350000000010000000000000000000000470055
:100360004B004E00010000000000000000000000F3
:1003700000004800000001000100000000003504FA
:10038000010001000100000000000000000000006A
:1003900000000000C35C000001000000000000003D
:1003A000000000000000C45C00000000010000002C
:1003B00000000000000000000000C55C000000001C
:1003C000010000000000000000000000000000002C
:1003D00000000351000000000000000000000000C9
:1003E000000000000000010000000000000000000C
:1003F00000000000000000000000000000000000FD
:1004000000000000000001000000000000000000EB
:100410000000000000000000000003510000000088
:100420000000000000000000C75C000000000100A8
:10043000000000000000000000000000C95C000097
:1004400000000100000000000000000000000000AB
:10045000CB5C000001000000000000000000000074
:100460000000DF5C00000100010000001E0F05001D
:10047000047F3F1F643214643214783C1E1E140A39
:10048000052223252628292A2C2D2F3032333536D4
:10049000383A3B3D3E4042434547494A4C4E505115
:1004A000535557595A5C5E6062646668696B6D6F3C
:1004B00071737577797B7D7F81838587898A8C8E3F
:1004C00090929496989A9C9E9FA1A3A5A7A8AAAC47
:1004D000AEAFB1B3B4B6B8B9BBBCBEBFC1C2C3C581
:1004E000C6C7C9CACBCCCDCED0D1D2D2D3D4D5D623
:1004F000D7D7D8D9D9DADADBDBDBDCDCDCDCDCDD56
:10050000DDDDDDDCDCDCDCDCDBDBDBDADAD9D9D839
:10051000D7D7D6D5D4D3D2D2D1D0CECDCCCBCAC9D1
:10052000C7C6C5C3C2C1BFBEBCBBB9B8B6B4B3B100
:10053000AFAEACAAA8A7A5A3A19F9E9C9A9896949B
:1005400092908E8C8A89878583817F7D7B79777570
:1005500073716F6D6B6968666462605E5C5A59574F
:10056000555351504E4C4A4947454342403E3D3B0E
:100570003A3836353332302F2D2C2A292826252398
:1005800022FFAA7F5540000000000000000000008C
:1005900000010204060A0F17202C3A4A5D71879D5C
:1005A000B3C7DAE9F5FCFFFCF5E9DAC7B39D87715B
:1005B0005D4A3A2C20170F0A0604020100000000D1
:1005C0000000000000000001010101010101010122
:1005D00002020202020202020203030303030303F4
:1005E00003040404040404040505050505060606C1
:1005F0000606070707070708080808090909090A7E
:100600000A0A0B0B0B0C0C0C0D0D0D0E0E0E0F0F22
:100610000F101011111112121313141415151616B0
:100620001717181819191A1A1B1B1C1D1D1E1E1F1F
:100630002020212222232424252626272829292A6E
:100640002B2C2D2D2E2F3031323233343536373896
:10065000393A3B3C3D3E3F40414243444546474892
:10066000494A4C4D4E4F50515354555658595A5B68
:100670005D5E5F616264656668696B6C6D6F707208
:10068000737577787A7B7D7E8082838587888A8C74
:100690008E8F91939596989A9C9EA0A2A3A5A7A9A8
:1006A000ABADAFB1B3B5B7BABCBEC0C2C4C6C9CB9F
:1006B000CDCFD1D4D6D8DBDDDFE2E4E7E9EBEEF055
:1006C000F3F5F8FAFDFF100361006C0069006300A8
:1006D0006F003400380000000E036D0061007200EE
:1006E00062007900330000000403090409022200BB
:1006F000010100A0FA090400000103010100092121
:1007000011010001224000070581030800011201C8
:10071000000200000008D80401E900010102000104
:1007200005010906A101050719E029E715002501C2
:100730009508750181029501750881010507190069
:1007400029FF150026FF0095067508810005081988
:10075000012905950575019102950175039101C067
:1007600011241FBECFEFDAE0DEBFCDBF11E0A0E065
:10077000B1E0EEE4FDE402C005900D92A836B107A9
:10078000D9F723E0A8E6B1E001C01D92AF34B2076B
:10079000E1F70E9486120C946D260C94000081E013
:1007A000089581E008950E94D103089508950E945C
:1007B000D6030895A5E0B0E0E0EEF3E00C945F25E9
:1007C00049835A8330916F0189819A81311119C00F
:1007D000662399F0222389F00E949309182F682F2D
:1007E00089819A810E946F0969817A81812F0E9493
:1007F00001102596E3E00C947B250E948109182FB7
:10080000F3CF0E94930969817A81F1CFFC01262FF1
:10081000408151816281738184810E94DA0308954D
:1008200081E00895CF93DF93D82FC92F60E00E9415
:1008300006046D2F7C2F0E94D703DF91CF9108957E
:100840000E94291108950E942D11089508950E9473
:1008500037080E9426042FEF84E39CE0215080405B
:100860009040E1F700C0000008950E9427040E9414
:100870003F1E08950E9427040E94501E08950F9362
:100880001F93CF93DF938C0161E00E940604EC017B
:10089000B8010E94D3038823D9F1B801CE010E9488
:1008A000921C8823A9F1B801CE010E94E61A882380
:1008B00079F1B801CE010E94F81B882349F1B801F3
:1008C000CE010E94DF19882319F1F8018281882363
:1008D00081F0CC35FDE5DF0751F178F4CF3DECE553
:1008E000DE07E1F0CB35FDE5DF07F1F0C115DC45B2
:1008F00069F0C8010E94CF030CC0CD35DC0789F038
:10090000C83ADD45B1F70E943A0402C00E9435049E
:1009100080E0DF91CF911F910F9108950E94530EB7
:10092000F2CF0E94980DE5CF0E94A20DE2CF0E9467
:10093000A60DDFCF0E94AA1D08950E94B7040E9451
:1009400019190E94AF1D089508950E94A4040895E6
:1009500081E008950E94A80408950895CF93C82FB8
:100960000E94A5048C2F0E94AA04CF9108950E9492
:10097000EF1C0E94AE040895CF930E94EF1CC82F75
:1009800080916A018C1779F0C0936A010E94EF1D73
:1009900060936B0170936C0180936D0190936E0175
:1009A0008C2F0E94AE04CF910895ABE0B0E0EBED48
:1009B000F4E00C945C25142F4F83052F588769872A
:1009C0007A878B87EA84FB8461110E94E10C1E8286
:1009D00085E0FE013796DE01119601900D928A9511
:1009E000E1F7E114F10461F449815A816B817C8162
:1009F0008D819E810E94070C2B96E6E00C94782551
:100A000010231F3F89F3CE0101960E94100481112B
:100A1000EBCFF2CFFC01808191810E94C50908953E
:100A2000CF93C82F8823C9F08238C9F40E94EF1CE5
:100A300081FD13C089E30E94960C0E94020D2FEFE6
:100A400087EE93E0215080409040E1F700C0000025
:100A500089E30E949E0C0E94020DCF910895833875
:100A6000A1F40E94EF1C80FDF8CF83E50E94960C54
:100A70000E94020D2FEF81EE94E0215080409040C3
:100A8000E1F700C0000083E5E4CF8438A1F40E94C0
:100A9000EF1C82FDE2CF87E40E94960C0E94020DBB
:100AA0002FEF81EE94E0215080409040E1F700C0AC
:100AB000000087E4CECF8CEF8C0F813A90F46C2F3E
:100AC00080910401909105010E94441D882329F022
:100AD0008C2F0E949E0C0E94020D8C2F0E94960C5F
:100AE000BACF80E28C0F883008F0B7CFC77081E0B2
:100AF00001C0880FCA95EAF70E94C20CACCF8823C8
:100B000009F44DC0823879F40E94EF1C81FF47C080
:100B100089E30E94960C0E94020D89E30E949E0CBC
:100B20000E94020D0895833859F40E94EF1C80FF43
:100B300036C083E50E94960C0E94020D83E5EECF3D
:100B4000843859F40E94EF1C82FF29C087E40E9478
:100B5000960C0E94020D87E4E1CF9CEF980F913A2A
:100B6000E8F290E2980F983050F4877091E001C05D
:100B7000990F8A95EAF7892F0E94C80CD1CF9BE57F
:100B8000980F933028F480E090E00E94071D0895AC
:100B9000885A873120F480E090E00E941D1D08955E
:100BA0001F93CF93DF93182FEB010E94100520971E
:100BB00039F4812F0E947F05DF91CF911F91089515
:100BC0008FE99FE00197F1F700C000002197EFCF78
:100BD00060E070E0893311F460E570E00E94D005B8
:100BE0000895882321F00E94C20C0E94020D0895EE
:100BF000882321F00E94C80C0E94020D0895A0E0F5
:100C0000B0E0E5E0F6E00C945A256C01D62FC72F32
:100C1000FC011281058102950F700E94B70CE82E2D
:100C20008823B9F0E12E1123A1F08C2F807F80342E
:100C300021F080E28D0F883090F18091C00282FF18
:100C40002EC082E00E94650D0E94B70C91E0E82E54
:100C5000E9269C2F92959F70983009F4D2C008F530
:100C6000923080F1925F9F70923008F45CC0EE2069
:100C700089F00E94B30C80FD0DC0F60112820E9423
:100C8000AD0C0E94CC08C6010E9404080E94AD0C65
:100C90000E94DC08CDB7DEB7E8E00C947625E12CA5
:100CA000D8CF993009F424C19A5F9F709230F8F63A
:100CB000D23F09F02EC18C2F8F71111127C10E94D4
:100CC000CC08CEC00C2F0F70C03110F00295007F01
:100CD000112399F0002359F080E28D0F883010F035
:100CE000D11107C0802F0E94C20C0E94020D8D2FCF
:100CF00043C0802F0E94D30CF8CF8D2F0E947F0518
:100D0000002309F4B4CF80E28D0F883010F0D111A8
:100D100004C0802F0E94C80C03C0802F0E94D90CF1
:100D20000E94020DA4CFFC2FFF70FF2EC07FC032A7
:100D300019F0F29480EFF822DD2381F0D13009F42C
:100D400044C0112309F44CC0002309F443C0F60148
:100D5000858180FFCCCF8F7085833CC08091C0029D
:100D600082FD15C0112359F0FF2029F08F2D0E941C
:100D7000C20C0E94020D80E00E94100578CF80E036
:100D80000E947F05FF2009F472CF8F2DC3CF11235E
:100D900081F0011106C00E94E40C8F290E94F10528
:100DA00066CF0130C1F70E94E40C8F290E94EB0C42
:100DB0005ECF011106C00E94F80C8F2D0E94F8052D
:100DC00056CF013009F453CFF6CF112329F0063066
:100DD00008F04DCF8F2DE2CF053008F048CFEDCF92
:100DE000002359F3D93349F4FFEF27EE83E0F150A4
:100DF00020408040E1F700C000008D2F0E947F0559
:100E000036CF8C2F8370811139C0111129C04D2F1D
:100E1000429546954770440F440F2D2F2F7030E0B8
:100E2000042E02C0220F331F0A94E2F780E090E004
:100E3000D4FF09C08FE090E002C0880F991F4A9547
:100E4000E2F780959095C695C695C370822B932B3B
:100E5000C23071F0C33079F0C13039F00E949A0885
:100E60000E94EF1C0E94AE0402CF0E949108F8CFAE
:100E70000E94A308F5CF0E948E08F2CF112361F1E2
:100E8000C0FFEECF4D2F429546954770440F440F5B
:100E90002D2F2F7030E0042E02C0220F331F0A9432
:100EA000E2F780E090E0D4FF09C08FE090E002C05C
:100EB000880F991F4A95E2F780959095C695C6953B
:100EC000C370822B932BC23069F0C33071F0C130F4
:100ED00031F00E940709C4CF823010F2D3CF0E94B4
:100EE000FE08BECF0E941009BBCF0E94B208B8CF47
:100EF000CF70112339F08C2F0E94CC088D2F0E94C7
:100F0000F105AECF8D2F0E94F8058C2F0E94DC08D2
:100F1000A7CFD33F70F4D03FB9F0D13F79F111237F
:100F200009F449C0002309F443C08D2F0E94100525
:100F300097CFD33FA9F0D43FE9F01111F3CF0111BE
:100F400047C08C2F8F71E2CF112341F0053008F09C
:100F500087CF8C2F8F710E94EE0882CF0530F7CF9C
:100F6000112329F08C2F8F710E94C00879CF0E9425
:100F7000BB0876CF8091C00282FD05C08C2F8F7197
:100F8000112321F29CCE112349F0CF718C2F0E94A6
:100F9000CC0863E08C2F0E94470D62CF81E00E9455
:100FA000650D023008F45CCF82E00E94650D58CFD9
:100FB0008C2F8F7184CE002321F2D93349F49FEF17
:100FC000E7EEF3E09150E040F040E1F700C00000B0
:100FD0008D2F0E947F0544CF0F931F93CF93DF93F4
:100FE000EC01688179818A810E94D2098C010E947A
:100FF00019090E948D08B801CE010E94FF05DF91FA
:10100000CF911F910F910895CF93DF93EC019881B9
:1010100089812B813C81232BB1F089238F3F99F06B
:10102000CE010E943F04811111C00E94B70C882399
:1010300051F08A81882339F08091C00282FF03C079
:1010400082E00E94650DDF91CF910895CE010E944C
:10105000EC07CE010E941204F6CF0E94E10C0E9420
:10106000020D08950E94A60C0E942D0808950E946A
:10107000D00C0E9432080895282F92959F709630C8
:1010800091F060F4925F9F70923030F481E0203FE5
:1010900079F030F4283E30F080E008959A5FF3CF85
:1010A000243FD1F7089581E0283EE0F3213FF9CFB6
:1010B0000895FC0183819481892B61F08181908165
:1010C00089238F3F39F0808191810E94C5090E9458
:1010D0003C08089580E00895A5E0B0E0E2E7F8E07C
:1010E0000C9460252596E2E00C947C25A6E0B0E007
:1010F000ECE7F8E00C9460252696E2E00C947C2561
:1011000008950E94800808950E9481089093AF017D
:101110008093AE010E942D08089508950E948408CE
:1011200008952091AE013091AF01822B932B0E9444
:10113000840808952091AE013091AF01822393235A
:101140000E94840808952091AE013091AF0182275A
:1011500093270E94840808950E94800808950E94A1
:10116000AC0808950E94AF089093AD018093AC0144
:101170000E942D08089580E090E00E94B208089532
:1011800021E030E0A90102C0440F551F8A95E2F723
:10119000CA010E94B208089521E030E002C0220F87
:1011A000331F8A95E2F78091AC019091AD01822BBB
:1011B000932B0E94B208089521E030E002C0220F74
:1011C000331F8A95E2F7209530958091AC0190917C
:1011D000AD01822393230E94B208089521E030E0FC
:1011E00002C0220F331F8A95E2F78091AC019091E3
:1011F000AD01822793270E94B20808952091AC0187
:101200003091AD01822B932B0E94B208089520915A
:10121000AC013091AD01822393230E94B20808955E
:101220002091AC013091AD01822793270E94B20832
:10123000089508959B01677091E001C0990F6A9528
:10124000EAF763E0369527956A95E1F7220F331F99
:10125000220F331FFA01E20FF31F40E050E0682F26
:1012600070E08191DF0111979B01042E02C0369539
:1012700027950A94E2F7217021952827292328270A
:101280002C934F5F5F4F4430510559F708959C01EF
:10129000982F977083E0369527958A95E1F7220F6E
:1012A000331F220F331FFB01E20FF31F40E050E01A
:1012B00080E0219130E0092E02C0369527950A94EE
:1012C000E2F721703327042E01C0220F0A94EAF7B7
:1012D000822B4F5F5F4F4430510559F70895282FF7
:1012E000862F9C3068F42A3058F4622F70E02AE090
:1012F000929F600D711D112440E751E00E941A0970
:101300000895292F9C3068F48A3058F490E060E703
:1013100071E03AE0239F800D911D11240E9447093E
:10132000089580E00895A0E0B0E0E9E9F9E00C94C8
:1013300059258C01E090AC01F090AD018091AE0197
:101340009091AF01E82AF92ACFE0D0E0CC24C394F1
:10135000D12CC6010C2E02C0880F991F0A94E2F707
:101360008E219F21892B49F4219798F7B12C8B2D41
:10137000CDB7DEB7E9E00C947525BC2EB8018C2FF3
:101380000E941B10019781F3F2CFCF93DF93D82FE8
:10139000C92F0E9493096D2F7C2F0E941B10DF9193
:1013A000CF9108951F93CF93DF93162FD72F90914E
:1013B0006F01992341F0862F972F0E94C509DF9175
:1013C000CF911F910895882381F0862F972F0E9437
:1013D0009309C82F682F812F9D2F0E946F09612FBD
:1013E0007D2F8C2F0E941B10EACF862F972F0E94F3
:1013F0008109C82FF4CF0F931F93CF93E091B001D1
:10140000C6E08091B1018E1304C0CF911F910F915E
:1014100008950E2F10E0CE9FF0011124EE54FE4FE0
:101420004081518162817381848195810E94760817
:10143000F8013196E770E5CF4091E2015091E30168
:101440006091E4017091E5018091E6019091E701DE
:101450000E94760808951F93CF93DF938091E70150
:10146000803108F04CC08091E401882309F447C022
:101470008091B0012091B1016091E2013091E301CE
:10148000C091E501D091E601732F76232817B9F1B9
:1014900090E0209709F443C016E07F3F09F43FC075
:1014A000189FF001199FF00D1124DF01AE54BE4FBB
:1014B00011964C91119734132CC04C91461329C0AE
:1014C00012964C91129741111EC013964D915C914A
:1014D0004C1B5D0B483C5105E0F48091E7018F7097
:1014E00080618093E701E954FE4F80818F708061B5
:1014F000808382EE91E00E9404080E94FB09DF9144
:10150000CF911F9108950196877099272813C8CF0E
:10151000F6CF0196877099272813BFCFF0CF019699
:101520008770B4CF8F929F92AF92BF92DF92EF926B
:10153000FF920F931F93CF93DF93CDB7DEB72B9717
:101540000FB6F894DEBF0FBECDBF8C0185E0F80169
:10155000DE01179601900D928A95E1F7F801F2806D
:10156000A380B48082EE882E81E0982E9091E201D3
:101570002091E3014091E5015091E60141155105AB
:1015800009F431C1822F89238F3F09F42CC1D090F7
:10159000E401B501641B750BDD2009F4E8C08091FE
:1015A000E701683C710508F0BBC03181803108F06B
:1015B00079C0EF2C321314C02081291311C0F1100F
:1015C0001EC08F7080618093E7010E941C0AC401D5
:1015D0000E9404088091E701F8018583E12C4FC047
:1015E0009F818885AB2889F0282F29232F3F69F018
:1015F000E091B0012091B10136E0FF20E1F080914F
:10160000E70181608093E701E9CFFF2039F3F7CF4D
:101610004E2F50E03E9FF0011124EE54FE4F6181A9
:10162000861306C06081691303C062816111D6CF41
:10163000FA013196E770E213EBCF8F8198850E9413
:10164000C509292F22952F70903248F49F70992355
:1016500011F08823A1F0805E883088F004C0225FFA
:101660002F70223028F0C8010E940408ED2C07C01A
:101670009F70992381F3F8019581903160F78E2D49
:101680002B960FB6F894DEBF0FBECDBFDF91CF9182
:101690001F910F91FF90EF90DF90BF90AF909F90C0
:1016A0008F900895321312C0208129130FC0F110BA
:1016B0000DC08583C8010E94040886E0F801A2EEEF
:1016C000B1E001900D928A95E1F725C0C8010E9412
:1016D0005908882309F47BC0FF2009F478C0809161
:1016E000E701803270F02091E2013091E3013A830A
:1016F00029831B82BD82AC828E83CE0101960E941B
:10170000040886E0F801A2EEB1E001900D928A95FE
:10171000E1F70E942B0A0E941C0AEE24E394AFCF4B
:10172000803198F44F81588569857A858B850E9430
:101730006C0882EE91E00E94040886E0F4011192A8
:101740008A95E9F70E941C0A49CF31812313BECF45
:1017500020812913BBCFF110B9CF8583C8010E9426
:10176000040886E0F40111928A95E9F7D6CF683C27
:10177000710588F5FF2059F1818128131EC08081F1
:1017800089131BC08091E70180FD0EC0803160F09D
:101790008583807F803F09F48DCF8581982F907F4E
:1017A000905F8F70892B85CF86E0F801A2EEB1E0C3
:1017B00001900D928A95E1F7B0CFC8010E945908B7
:1017C00081119FCF8091E70181608093E701C8017B
:1017D0000E940408A2CF4F81588569857A858B8540
:1017E0000E946C08AACFFF2091F3C8010E945908FB
:1017F000882369F386E0F801A2EEB1E001900D9232
:101800008A95E1F782EE91E00E940A0582CFACE072
:10181000B0E0EDE0FCE00C945F254F8358876987CA
:101820007A878B879C87CE0107960E94920A88232D
:10183000D9F08A859B85892B61F058854F81852F4A
:1018400084238F3F31F069857A858B859C850E9442
:10185000760816E08091B0019091B101891344C0DF
:101860002C96E3E00C947B2586E0FE013796DE01A2
:10187000119601900D928A95E1F78F8198852091BC
:10188000B1014091B0016A857B85672B11F38923F3
:101890008F3FF9F230E0C90101968770992750E037
:1018A0008417950771F40E9437081092B1011092C5
:1018B000B00186E0E2EEF1E0DF011D928A95E9F7E2
:1018C000C8CF96E0929FD001939FB00D1124AE54E3
:1018D000BE4FFE01319601900D929A95E1F78093EB
:1018E000B1010E94FB09B5CF189FC00111248E548D
:1018F0009E4F0E94920A882309F4B2CFE091B00172
:101900001E9FF0011124EE54FE4F408151816281EF
:101910007381848195810E9476088091B00190E066
:101920000196877099278093B00194CF682F80919A
:101930000401909105010E947E1D0895682F8091F9
:101940000401909105010E94811D08958091040178
:10195000909105010E94841D08958091F001859564
:101960008595859508958091F001877008959091EF
:10197000F001977081E0911101C080E0089580919D
:10198000FB0108959091FB01982B9093FB01089522
:10199000982F90958091FB0189238093FB010895F6
:1019A0001092FB0108959091FA01982B9093FA01FF
:1019B0000895982F90958091FA0189238093FA01D8
:1019C00008951092FA0108958091F1010895089503
:1019D0000E94E70C08959091C00292FF08C0909178
:1019E000F101981721F08093F1010E94E80C08950D
:1019F0008091F101882329F01092F10180E00E948A
:101A0000E80C0895CF93DF93E0910401F091050174
:101A10008091FB018083E0910401F09105018081B8
:101A20009091FA01892B80839091F101992381F0A3
:101A3000E0910401F09105018081892B80838091E0
:101A40000401909105010E94331D81110E94F80C40
:101A5000C0910401D091050148E050E068EE71E0CA
:101A6000CE010E94F025892B59F088E0FE01A8EEF6
:101A7000B1E001900D928A95E1F7CE010E94FC1C25
:101A8000DF91CF91089508950E94430D089590919C
:101A9000C00292FF11C098E0899F90011124622B2F
:101AA0006093F0010E94CC088091F00185958595A6
:101AB00085950E94440D08950E94CC0808951092C7
:101AC000F00180E00E94440D08952091F00180957E
:101AD00082238093F001982F9770911113C030E00A
:101AE000482F082E000C550B2417350759F09091FC
:101AF000C00292FF07C08595859585950E94DC08F8
:101B00000E945F0D08959091C00292FB222720F958
:101B1000281769F080FB92F99093C0028091BF0270
:101B20009091C0020E94CD0D82E00E94650D089543
:101B30008091C00282FB882780F991E089270E946A
:101B4000830D089581E00E94830D089580E00E9436
:101B5000830D089580E090E00E9414269C0181E0AE
:101B6000283E3E4F09F080E0089582E090E00E9418
:101B70000626089583E090E00E9406260895CF93FC
:101B800084E090E00E940626C82F82E290E00E9446
:101B90000626982F8C2FCF910895CF93682FC92FA9
:101BA00084E090E00E941A266C2F82E290E00E946E
:101BB0001A26CF910895AB01BC018FE090E00E94FE
:101BC0002C260895AB01BC0183E190E00E942C26F5
:101BD000089560E070E0CB010E94E20D089560E09E
:101BE00070E0CB010E94DB0D0E94E90D089568EEC4
:101BF0007EEF80E090E00E94382660E082E090E096
:101C00000E941A2660E083E090E00E941A2610925B
:101C1000AF011092AE0160E084E090E00E941A26CD
:101C200064E082E290E00E941A2660E085E090E0A5
:101C30000E941A2660E086E090E00E941A266FEF6C
:101C400087E090E00E941A2640E050E0BA0188E068
:101C500090E00E942C2660E08DE090E00E941A2621
:101C600040E050E0BA0188E190E00E942C2660E05C
:101C700087E190E00E941A2640E050E0BA018CE132
:101C800090E00E942C2660E070E080E290E00E94EC
:101C9000382640E050E0BA0188E190E00E942C260E
:101CA0000E94EF0D08950E94F70D0895682F8EE0B1
:101CB00090E00E941A2608950E94EF1D60931A0278
:101CC00070931B0280931C0290931D026093160276
:101CD0007093170280931802909319020895089543
:101CE00008950E94700E089508950E94740E08953C
:101CF00087E091E10E94E51C0E946F0E0E94710E28
:101D0000089581E008950E94810E08950895089530
:101D10000E94860E0E94870E08950E940A110E945A
:101D2000AD0408950E94DA1D0E94E3110E948D0EF9
:101D30000E94DD180E945B1A0E94750E0895A5E0AE
:101D4000B0E0E5EAFEE00C9455250E94F9112EEF73
:101D5000A22E21E0B22E650110E0F601E190F19093
:101D60006F01812F0E9430111F5F1C3009F44BC09E
:101D7000E816F90691F380911E0281FD0E94391147
:101D80000E94830E782EF12C8F2D0E9430118C0131
:101D9000F501C190D1905F018C159D0569F1C826B0
:101DA000D926E12C88248394912CC601882199217D
:101DB000892BC1F07720B1F0E982FA8221E0C801D5
:101DC00088219921892B09F420E02B830E94E31DAF
:101DD0008160782F9D838C8349815A816B81892F03
:101DE0000E94D504E394880C991CFAE0EF12DDCF31
:101DF000F501329711830083F3948CE0F812C4CF7D
:101E00000E945C0E22C0E816F90609F0B4CF0E94C9
:101E1000E31D8C018091FC019091FD0108171907C9
:101E2000A1F08FEF89838A831B820E94E31D81606A
:101E3000782F9D838C8349815A816B81892F0E94E1
:101E4000D5041093FD010093FC010E9423190E9408
:101E5000BC042596EDE00C947125CF93DF930E948E
:101E60002010EC01811523E59207C8F5811542E5A4
:101E7000940708F099C0811550E2950760F081152C
:101E800061E5960700F1D82FCC27C16FD06ACE014B
:101E9000DF91CF9108958F3F910509F0C0F7853A02
:101EA000910550F4049798F781E0219709F080E0BC
:101EB000C82F80E0D82FEBCF805E9109089738F3C8
:101EC000C0E0D0E0E4CF811520E5920708F057C0CC
:101ED000905481159041A0F7DF70D06AD8CF81155A
:101EE00059E59507A8F5811568E5960708F076C0CD
:101EF000C11585E5D807D8F4C11524E5D20708F047
:101F000068C08C2F8695869540E2849FC00111247D
:101F1000C370DD2721E030E0A90102C0440F551F46
:101F2000CA95E2F7EA01C82BD92BDA68B0CFCE0107
:101F300095558F3F910509F018F68C2F0E94C4101B
:101F4000C82FD0E0DC2FCC27CC27DF71D0629FCF09
:101F5000C1158AE5D80708F446C0CE019056811510
:101F6000904208F0ADCF8D2F8F710E94C41090E089
:101F7000982F882788279F718C2BEC01E7CF8695B7
:101F8000869540E2849FC0011124C370DD2721E0C3
:101F900030E0A90102C0440F551FCA95E2F7EA01DB
:101FA000C82BD92BDD6873CF8695869520E2829F5A
:101FB000C0011124C370DD2721E030E0A90102C077
:101FC000440F551FCA95E2F7EA01C82BD92BDC68EC
:101FD0005ECFDC2FCC27C46FD06A59CFD82FCC2747
:101FE000C06FD06A54CF8C2F8F700E94C41034E021
:101FF000D695C7953A95E1F7CF709C2FEC01D06943
:1020000046CF7C30A8F46A3098F4E62FF0E09AE0EE
:10201000799FE00DF11D112498E7899FE00DF11DD6
:102020001124EE0FFF1FE455FF4F85919491089501
:1020300080E090E008950E9401100E942D0F089505
:10204000803E9105D1F1C8F48133910509F47FC038
:1020500048F48932910509F46FC08A32910509F478
:102060007DC0089589339105E1F082389105C9F06A
:102070008533910509F45BC00895843E9105D1F143
:1020800048F4823E910531F1833E910541F181EEA4
:1020900090E00895863E9105C1F1873E9105E1F1FA
:1020A00008952091BF022370211165C02091C002C4
:1020B00023FF14C089E290E008952091BF0220FD23
:1020C00043C03091C00230FF09C024FF4EC080E001
:1020D00090E008952091BF0222FDF7CF089520914E
:1020E000BF0222FD45C03091C00230FD44C024FF34
:1020F000F5CFEDCF2091C00221FFF0CF8091BF023C
:1021000084FDE5CF87EE90E008952091BF0223FF84
:10211000E5CF24FDDCCFF6CF2091BF0223FD2EC0FA
:102120003091C00231FFE3CF84EE90E0089520911A
:10213000BF0225FFD3CFBECF2091BF0225FD21C016
:102140002091C00223FFCACF89E390E00895209137
:10215000BF0226FFC3CF8AE290E008952091BF021C
:1021600026FFBCCF81E390E0089583EE90E00895D0
:1021700082EE90E0089580EE90E0089586EE90E083
:10218000089585E390E0AACF9091BF0292FF06C028
:10219000282F28712830F9F4877F846093FF06C0C8
:1021A000282F28712831F1F4877E84612091C002A4
:1021B00020FF06C0382F38713830D9F4877F81600E
:1021C00021FF06C0282F28712831D1F4877E816134
:1021D00094FD877E0895282F24712430F9F68B7F93
:1021E0008860DCCF282F2471243101F78B7E886131
:1021F000DDCF382F3171313019F78E7F8860E0CF15
:10220000282F2171213121F78E7E8861E1CF80E076
:10221000089508950E94AA0D811102C00E94530ED4
:102220000E94B50D80931E020E94BF0D9093C002C4
:102230008093BF020E9409110E94BA0D90E00E9493
:102240008E088091AC019091AD010E94AF08089575
:1022500008950E942811089508950E942C11089550
:10226000E82FF0E0EE0FFF1FE752FD4F80819181D4
:102270000895089580EA8A95F1F7089500C00895B9
:102280000E943A110895F894E82FE295EF70F0E07B
:1022900041A18F7021E030E0B90102C0660F771FC5
:1022A0008A95E2F7CB01962F9095942391A392A162
:1022B000892B82A3789408950F931F93CF93DF9374
:1022C000C0E3D1E089918F3F11F00E94431181E07A
:1022D000CC33D807B9F7C6E2D1E000E311E0899129
:1022E0008F3F11F00E9443110C171D07C1F7DF91BA
:1022F000CF911F910F910895A0E0B0E0E2E8F1E1E5
:102300000C945925EC01B62E062F10E0C801805D13
:102310009E4F7C01FC0180818F3F09F44FC0F894EF
:10232000E82FE295EF70F0E091A18F7021E030E0AE
:1023300001C0220F8A95EAF7892F822B81A382A1FF
:102340002095282322A378940E943E11E6E2F1E032
:1023500041E050E0C12CD12C21912F3F89F0A22FD8
:10236000A295AF70A05EB0E08C9190E02F7002C09B
:10237000959587952A95E2F781709A01882311F047
:1023800020E030E0C22AD32A440F551F81E0E03319
:10239000F80711F7F70180818F3F11F00E94431178
:1023A00061E0C114D10409F460E08B2D0E9440115A
:1023B000000F111FC00FD11FD982C882CDB7DEB761
:1023C000E9E00C9475250E945C1188E1E9EDF2E0EA
:1023D000DF01982F1D929A95E9F7E1ECF2E0DF0119
:1023E0001D928A95E9F78CE00E9436120E94200423
:1023F0000895A8E1B0E0EFEFF1E10C945D25FE0156
:10240000319688E1DF011D928A95E9F710E0FE2EF2
:102410000F2F612F8F2D902F0E947C111F5F1C307A
:10242000C1F748E150E06F2D702F81EC92E00E94DF
:10243000F02521E0892B81F420E04CE069ED72E089
:1024400081EC92E00E943712182F0E942304812F02
:102450006896E5E00C94792588E1EF2DF02FA1EC4A
:10246000B2E001900D928A95E1F7E7CF0895A0E0E0
:10247000B0E0EDE3F2E10C945B25D82EE92EF62EC8
:10248000072FC42F222349F081E0809321020E946C
:10249000E31D9093200280931F02109121021111DD
:1024A00007C010E0812FCDB7DEB7E7E00C947725A9
:1024B00080911F02909120020E940C1E059788F3C4
:1024C000D0E0CC0FDD1FAE016D2D7E2D8F2D902F16
:1024D0000E94F025892B51F0AE016D2D7E2D8F2DA0
:1024E000902F0E94FD2510922102DCCF10E0FBCF3F
:1024F0000E94A61F0E94920E0E94B31F08950E9480
:10250000B81F0E949F0E0E94D21F08950E94C71DEF
:102510000E948C1F0E94780E0E9478120E947F12E7
:102520000E94880EFBCFA0E0B0E0E9E9F2E10C9454
:102530005825E82F71110DC0442321F0F0E0EA5333
:10254000FA4F8491682F782FCDB7DEB7EAE00C946C
:102550007425262F30E0C72FD0E0F0E0442321F08F
:10256000EA53FA4FE491F0E086E0829F7001839F86
:10257000F00C11240FEF10E0C701B8010E94CF2426
:10258000AB01220F331F65E5649FC001659F900D6D
:102590001124281B390BC22ECC0CC20EC8018C1B77
:1025A0009D0B8E9F90018F9F300D9E9F300D1124AB
:1025B000832FCC9EB001CD9E700D1124672F7727FD
:1025C0005801A61AB70AAE9ED001AF9EB00DBE9EAE
:1025D000B00D11247B2F5801AC18B1086501CC9EB9
:1025E0005001CD9EB00CDC9EB00C1124AB2CBB2452
:1025F0000A191B090E9FE0010F9FD00D1E9FD00DE1
:1026000011246E2F43305105C9F09CEFE91693E079
:10261000F90650F44130510509F496CF4230510586
:1026200089F07E2F6D2F90CF4430510571F04630E8
:102630005105B9F3632F8B2F7E2F86CF6B2F732F0E
:102640008E2F82CF732F8D2F7FCF7D2F632FF8CFCB
:1026500041E00E949312089508950E94281308955E
:10266000CF93DF93982F762F842FE901692F0E9453
:102670002D13798368838A83DF91CF9108958091A8
:10268000F102823028F4817082608093F102089513
:102690008635E8F381708465F8CF88E090E00E9489
:1026A0000E2608950F931F93CF93DF938B01D82F9E
:1026B000C92F0E943F13A8016D2F7C2F88E090E066
:1026C0000E942C26DF91CF911F910F910895E1EF89
:1026D000F2E083E0808311828FEF82838383148210
:1026E00063E070E08FEF9FEF0E9452130895809196
:1026F000F10280FF02C08695089580E00895A4E06D
:10270000B0E0E5E8F3E10C9460259091F502933098
:1027100018F49F5F9093F502882361F08091F10295
:102720009091F202A091F302B091F402BC01CD01AC
:102730000E9452132496E2E00C947C2581E00E94D2
:102740007F130895A4E0B0E0E8EAF3E10C9460257B
:102750009091F502992319F091509093F5028823F6
:1027600061F08091F1029091F202A091F302B09198
:10277000F402BC01CD010E9452132496E2E00C94B5
:102780007C2581E00E94A213089570E00E94B81A8F
:10279000089560910A018091F10280FF0DC020919F
:1027A000090130E0C901880F991F820F931F8A50D9
:1027B0009D4F0E94C513089580910B0190910C01CB
:1027C000282F30E0F901EE0FFF1FE20FF31FEA5050
:1027D000FD4F891720F71182108212828F5F339686
:1027E000F8CF9091F10290FF11C090910B015091A0
:1027F0000C01292F30E0F901EE0FFF1FE20FF31F4C
:10280000EA50FD4F951718F00E94C913089581836F
:10281000608342839F5F3396F5CFA3E0B0E0E3E1AE
:10282000F4E10C9460259091F10290FF0AC09E01A2
:102830002F5F3F4F0E9430134B8169818A810E9434
:10284000F1132396E2E00C947C25CF93DF93EC0107
:10285000EC81F0E0EF57FB4F4491E1EFF2E0628151
:1028600081810E940D148C818F5F8C83DF91CF91C9
:102870000895CF93DF93EC01E1EFF2E043816281B1
:102880008C810E940D148C818F5F8C83DF91CF919E
:102890000895A3E0B0E0EFE4F4E10C945E258C0130
:1028A0008091220281110AC09E012F5F3F4F4FEF9E
:1028B0006FEF0E9430138A8180932202F8016481B5
:1028C000613049F06230D1F08091220240E066230D
:1028D00031F040E015C06091220240E080E00E94AB
:1028E000F113F801848190E0019663E070E00E94AA
:1028F000E32484832396E4E00C947A254091220219
:1029000080E060E0ECCFA7E0B0E0E9E8F4E10C940F
:102910005825F82ED62EE42EB22E9091F10290FF7B
:102920002BC0E92FE695AE2FB0E0A45CBE4F8C9192
:102930008093A6029E7F923019F59E012F5F3F4F34
:102940008F2D0E9430134B8169818A810E94F1137F
:10295000F092F202D092F302E092F402BB2061F016
:102960008091F1029091F202A091F302B091F402F1
:10297000BC01CD010E9452132796EAE00C94742505
:10298000823019F4E090F402E3CF863019F4F0902D
:10299000F202DECF8930D9F38931D1F6E9518E2F99
:1029A0008170A82EE695F0E0EF57FA4FE491C12C24
:1029B0000E2F10E060910D01C61618F00E94C91389
:1029C000C7CF2C2D30E0C09EC001C19E900D1124B8
:1029D00070E00E94CF248F2DA11013C0860F90911C
:1029E0000B01A901490F511D9A01220F331F240F1A
:1029F000351F2A503D4F4E2D6D2D0E943013C3942C
:102A0000D9CF861BECCF282FE1EFF2E08181438103
:102A10006281885F0E948314089581E00E940315FB
:102A20000895282FE1EFF2E081814381628188508F
:102A30000E948314089581E00E9411150895282FA3
:102A4000E1EFF2E0628138E0630F08F46FEF438159
:102A500081810E948314089581E00E941F150895CA
:102A6000282FE1EFF2E0628138E0631B08F460E0B8
:102A7000438181810E948314089581E00E94301572
:102A80000895282FE1EFF2E0438138E0430F08F486
:102A90004FEF628181810E948314089581E00E943A
:102AA00041150895282FE1EFF2E0438138E0431B00
:102AB00008F440E0628181810E948314089581E0DE
:102AC0000E945215089520E00E9483140895EF9209
:102AD000FF921F93CF93DF93EC0110E0EE24EA9472
:102AE000F12C60910D01161770F00E94C9139A81A4
:102AF0008C8190FF25C08F5F8C83DF91CF911F91D8
:102B0000FF90EF90089580910B01810F9927991FF5
:102B10009C01220F331F280F391F2A503D4F70E0B0
:102B2000C7010E94E324962F8C814091F4026091AA
:102B3000F302199F800D11240E9430131F5FD1CF23
:102B40008150DACFA0E0B0E0E8EAF5E10C94592535
:102B5000FC01828101E080FD0FEF10E080910D010A
:102B6000181798F00E94C91380912402013009F0CF
:102B700051C0811102C080910D01815080932402C7
:102B8000CDB7DEB7E9E00C94752580910B01C12E1D
:102B9000D12C8C0D9D2D911DEC01CC0FDD1FC80F8C
:102BA000D91FCA50DD4F198218821A8234E0E32EF1
:102BB000F12CB12C809124028B0D89312CF168E12C
:102BC0000E94C124892F082E000C990BC816D90623
:102BD00091F48091F4028E9DA0018F9D500D1124DF
:102BE00055954795559547959E016091F3028091C3
:102BF000F2020E943013B00EF1E0EF1AF108E11476
:102C0000F104C1F61F5FAACF87FFDDCF90910D01C0
:102C1000890FD9CF90E0019660910D0170E00E947C
:102C2000E324ACCF0F931F93CF9380910B0190912E
:102C30000C01282F30E0F901EE0FFF1FE20FF31F08
:102C4000EA50FD4F891730F1C0E060910D01C617C1
:102C500038F10E94C9132091070180912302820F4D
:102C60008093230290910801920F90930801191606
:102C700054F4082E000C990B40910D014150550B56
:102C8000841795071CF0219520930701CF911F9180
:102C90000F9108951182108212828F5F3396D2CFE6
:102CA0000C2F10E070E0C8010E94E32490910B010A
:102CB000980F892F90E020912302022E000C330BF5
:102CC000FC01EE0FFF1FE80FF91F02171307ACF00E
:102CD00020910801022E000C330B201731076CF0F5
:102CE0009F012A503D4F4091F4026091F302809180
:102CF000F2020E943013CF5FA8CFEA50FD4F11823D
:102D000010821282F8CFAEE0B0E0E9E8F6E10C9470
:102D10005C258D879E87AD85BE8514961C91212FDD
:102D200030E0D9010E9427259B01AC010E943D257E
:102D300069837A838B839C83E0E2F0E0E11BF109F5
:102D4000A5E5B0E09B01AC010E943D2569877A872B
:102D50008B879C879F01DF010E941F259B01AC018F
:102D60000E9448256D837E838F8398879B01AC01E9
:102D700089819A81AB81BC81280F391F4A1F5B1F53
:102D800069857A858B859C850E94F724022F30E027
:102D90000A3248F5A901440F551F420F531F55959C
:102DA0004795142F1095F12C85E5E82EE01A8091B7
:102DB0000D01F81630F10E94C913AD85BE85149639
:102DC0009C9181E0992319F0903219F48FEF809350
:102DD000060180910601890FED85FE8584832E967C
:102DE000E6E00C94782585E590E0821B930BAC011E
:102DF000440F551F480F591F57FFD1CF4F5F5F4FEB
:102E0000CECF8E2DF1FC802F40910B014F0D552719
:102E1000551F9A01220F331F240F351F2A503D4F93
:102E2000412F6091F3020E943013F394C0CF0F93AF
:102E30001F93CF93DF93EC0100E010E040910D0170
:102E4000842F90E0081719076CF00E94C9138C8139
:102E500090E00196817099278C83DF91CF911F912B
:102E60000F91089580910B01800F912F911D9C016E
:102E7000220F331F280F391F2A503D4F9C8160912C
:102E8000F3028091F202469550E0041715074CF4C6
:102E9000992349F04091F4020E9430130F5F1F4FB5
:102EA000CDCF9923B9F340E0F7CFA0E0B0E0EBE558
:102EB000F7E10C945425FC018280648081E08483D6
:102EC000E1E8F4E09490E0E0F5E0E491A12C75E015
:102ED000B72EF2E0CF2EDD24D39477247A94E9192B
:102EE0000E2F10E080910D01A81638F00E94C91332
:102EF000CDB7DEB7EEE00C947025EA2CF12C82E021
:102F0000881568F0BE9CF001BF9CF00D1124EB5DAC
:102F1000FD4F8091F20280838091F30281836110E2
:102F200023C0BE9CF001BF9CF00D1124EB5DFD4F52
:102F30001382128280910B018E0D9F2D911D9C0199
:102F4000220F331F280F391F2A503D4FBE9CF0011E
:102F5000BF9CF00D1124EB5DFD4F428161818081AA
:102F60000E943013A394BECFBE9CE001BF9CD00D45
:102F70001124CB5DDD4F8B818823E9F081508B8359
:102F8000789EC00111246C8170E00E94CF24FB0167
:102F9000FF27EF57FB4F8491E82FE9197E9EC00170
:102FA0001124B8010E94CF248091F402689FB001DF
:102FB00011247A83BFCF0E94D325AC019091F402F3
:102FC000969591589C9D90019D9D300D1124232F25
:102FD0003327421753070CF0ADCF82E0881590F4E9
:102FE0000E94D3256FEF70E00E94E32488830E9443
:102FF000D3252091F3022695622F70E00E94E324EE
:10300000280F2983BE9CF001BF9CF00D1124EB5DBD
:10301000FD4F12828091F402893C58F088ECBE9CEE
:10302000F001BF9CF00D1124EB5DFD4F8483838381
:1030300081CF8431A0F784E1F2CFA4E0B0E0E3E2F5
:10304000F8E10C946025E1EFF2E080818E7F8083CF
:1030500080819181A281B38189839A83AB83BC8370
:10306000BC01CD010E9452131092A7029FEFA0E76E
:10307000B2E09150A040B040E1F700C000000E94D3
:10308000C9132496E2E00C947C256091F1026695C8
:1030900070E04BE050E08EE091E00E94E325892B48
:1030A00019F481E08093A7020E94E31D90939E0291
:1030B00080939D020895A4E0B0E0E1E6F8E10C946D
:1030C00060259091F10290FF33C08823A9F18B32E3
:1030D000A8F58F77880F9091F1029170892B8093DA
:1030E000F102662361F08091F1029091F202A091C9
:1030F000F302B091F402BC01CD010E945213609121
:10310000F102669570E04BE050E08EE091E00E94A5
:10311000E325892BA9F01092A70281E08093A002F9
:103120004091F4026091F3028091F2020E946315D3
:103130002496E2E00C947C2581E0CCCF8AE2CACFD1
:103140000E944518EACF682F8091F10286958F5F23
:103150008B3208F081E00E945B18089581E00E94A4
:10316000A3180895682F9091F10296958FEF890F1B
:10317000913009F48AE20E945B18089581E00E9470
:10318000B218089561E00E945B180895E1EFF2E043
:1031900080818160808386950E94C2180895809105
:1031A000F10280FF03C00E941D1808950E94C618F6
:1031B000089560E00E945B1808958091A502811136
:1031C0002EC00E94AA0D811104C00E94530E0E94BD
:1031D00067130E944D136093F1027093F202809383
:1031E000F3029093F402623060F40E9467130E942D
:1031F0004D136093F1027093F2028093F302909367
:10320000F4020E943F131092A7028091F10280FF06
:1032100003C086950E94D91881E08093A502089585
:10322000E1EFF2E080818160808386950E94D91869
:1032300008951092A4028091A30281110E94101996
:103240000E94451808950F931F93CF93DF938091A9
:10325000A7028823B9F18091A602E091F102E695D8
:10326000E81BE0939F02823091F5F0E0E358FB4FBA
:10327000E491CE2FD0E005E214E18091A0028823F2
:1032800061F01092A0020E94E31D90939E02809331
:103290009D021092A2021092A1020E94E31D2091B1
:1032A0009D0230919E02821B930B8F3F9F4750F4EB
:1032B0002C0F3D1F30939E0220939D028DE992E0DA
:1032C000F8010995DF91CF911F910F910895C8E200
:1032D000D0E003E816E1883181F2C0F48F3009F4C0
:1032E0003AC048F4863021F1893059F1C0EDD7E079
:1032F0000CE213E1C2CF8531C9F7F0E0EF58FB4F84
:10330000E491CE2FD0E002E116E1B7CFC4EFD1E0D7
:1033100007E117E1843209F4B0CF853231F183320D
:1033200029F7EFE6F4E0C591D49109E414E1A5CFC3
:10333000F0E0E658FB4FE491CE2FD0E009E314E132
:103340009CCFE695F0E0E958FB4FE491CE2FD0E01A
:1033500007E615E192CFE695F0E0EC58FB4FE491DB
:10336000CE2FD0E002EA15E188CF8E2F63E00E94D5
:10337000B524E92FF0E0E459FB4FE491CE2FD0E0E3
:1033800005E517E17ACFFA01882311F00995089530
:10339000FB01FCCFCF93DF93C82FD62F0E9477136A
:1033A0008C1748F00E9477138D1728F40E94AE18EE
:1033B000DF91CF9108958C2F0E94C218F9CF1F93EF
:1033C000CF93DF93EC01FB01128111111BC00E940E
:1033D000BF0C8272C73DFCE5DF0770F4C33C9CE57F
:1033E000D90780F0FE01E45CFC45E331F10560F4AF
:1033F000E159F94D0C9419256AE285E2CE35DD4597
:1034000009F443C011E002C00E94CF18812FDF9160
:10341000CF911F9108954EEB58E16EEA78E10E943A
:10342000C319F4CF4EEA58E16EEB78E1F8CF4BE1E7
:1034300055E16DE075E1F3CF4DE055E16BE175E1EC
:10344000EECF4DE355E16CE275E1E9CF4CE255E199
:103450006DE375E1E4CF4FE555E16EE475E1DFCF53
:103460004EE455E16FE575E1DACF41EC53E16EE9E9
:1034700073E1D5CF4EE953E161EC73E1D0CF81E048
:103480000E94C218C3CF65E082E00E94CA19BECF75
:1034900068E086E0FACF6EE089E0F7CF64E18FE084
:1034A000F4CF67E185E1F1CF88E1EACF62E289E11B
:1034B000ECCF83E2E5CFE1E8F0E0808188608083B3
:1034C0008081816080838FB7F89420ED33E0309362
:1034D0008900209388008FBF0895EFE6F0E0808197
:1034E000826080830895EFE6F0E080818D7F8083A5
:1034F00008951F920F920FB60F9211242F933F93AE
:103500004F935F936F937F938F939F93AF93BF93EB
:10351000EF93FF938091A8029091A9020196909356
:10352000A9028093A802811103C082E00E94AE0428
:10353000E091A902E695E695F0E0EA57FA4FE491AA
:103540008091A8028E1303C080E00E94AE04FF9118
:10355000EF91BF91AF919F918F917F916F915F910B
:103560004F913F912F910F900FBE0F901F90189584
:103570009C01AB01539A6BB1677F7BB17860EFB769
:10358000F894CA01880F991F840F951F820F931F0B
:103590008217930741F4EFBF8FE594E00197F1F7AD
:1035A00000C000000895D9014D919D0158E07BB9FC
:1035B000000000C047FF6BB9440F000000C000C00E
:1035C00000C06BB900C05A9591F7E2CFCF93DF935B
:1035D000EC01FB018281882309F401C1C236FDE5BB
:1035E000DF0709F451C0A8F5C631ECE5DE07C8F4E1
:1035F000C230FCE5DF0708F45AC00E94BF0D90936B
:10360000C0028093BF02FE01E350FC458091BF02DF
:103610008160E331F10508F03FC0EE57F94D0C949D
:1036200019259E012B5F3C452930310508F03FC02C
:103630000E94BF0D9093C0028093BF02FE01EC5F19
:10364000FC45E830F10508F04AC0EB56F94D0C9402
:103650001925C63A9DE5D90769F19E012E5A3D45C7
:103660002330310520F50E94BF0D9093C002809356
:10367000BF02CE3AEDE5DE0709F0B3C08091C0028B
:1036800088608093C0020AC00E94BF0D9093C00260
:10369000809584FB809584F98093BF028091BF025E
:1036A0009091C0020E94CD0D0E94370880E0DF910A
:1036B000CF9108950E94BF0D9093C002809580FB2A
:1036C000809580F9E9CF8091BF028260E5CF80913B
:1036D000BF028460E1CF8091BF028860DDCF80911E
:1036E000C0028160CECF8091C0028260CACF80913B
:1036F000BF028061D1CF8091BF028062CDCF809127
:10370000BF028064C9CF0E9437088091BF028068E1
:10371000C3CF8091BF028C60BFCF8091C002836015
:10372000B0CF8091BF028E7FB7CF8091BF028D7FD7
:10373000B3CF8091BF028B7FAFCF8091BF02877FD5
:10374000ABCF8091C0028E7F9CCF8091C0028D7FD5
:1037500098CF8091BF028F7E9FCF8091BF028F7DD7
:103760009BCF8091BF028F7B97CF0E9437088091BB
:10377000BF028F7791CF8091BF02837F8DCF8091E1
:10378000C0028C7F7ECF8091BF0282FB992790F987
:1037900021E0922790FB82F990FB83F97DCF809105
:1037A000C002982F909591708E7F892B90FB81F9A4
:1037B00068CF0E9437089091BF02892F97FB87F945
:1037C00080586ACF81E00E94560E68CF80E0FBCF20
:1037D0009091C002892F877F93FF886052CF81E04C
:1037E00066CFCF3ADD45A1F78091C002877F49CFF0
:1037F000CF93DF93EB0186319C4519F50E94BF0CF6
:103800009A819923A1F08A7A91E0811101C090E018
:103810009093AA02882349F085E30E94960C0E94A7
:10382000020D80E0DF91CF91089589E2F6CF80917B
:10383000AA02882321F085E30E949E0CF0CF89E242
:10384000FBCF81E0EFCF0F931F93CF93DF93C42F74
:10385000D22FFC0182818823C9F04093AD020E94DF
:10386000E31D9093AC028093AB0280E28C0F883012
:1038700040F4C77081E001C0880FCA95EAF70E9442
:10388000F105DF91CF911F910F9108951091AD0235
:1038900014133CC08091AB029091AC020E940C1EAC
:1038A000883C910598F5C0E2CD0F1D1741F180E2EB
:1038B000810F883040F4177081E001C0880F1A959D
:1038C000EAF70E94F805C83020F0802F0E94E80532
:1038D000D8CF91E08D2F877001C0990F8A95EAF7B4
:1038E000892F0E94F105802F0E94E805D77081E0A2
:1038F00001C0880FDA95EAF70E94F805C2CF802F41
:103900000E94E805C83008F0BCCFF0CF80E28C0FF1
:10391000883008F0B6CFC77081E001C0880FCA9523
:10392000EAF7EACF0F939C01CB01243F4CE5340723
:10393000A1F190F4293DFCE53F0749F12A3D4CE512
:103940003407E9F1283D3C45C1F0FC018281811139
:103950001092AD0281E019C0263FFCE53F0719F146
:10396000273F4CE5340729F1253F3C4571F707E235
:1039700025EE44EE65EF7CE505C006E221EE41EE62
:1039800068ED7CE50E94231C80E00F91089507E21A
:1039900025EE45EE69ED7CE5F5CF06E221EE40EE41
:1039A00064EF7CE5EFCF06E221EE42EE66EF7CE5C8
:1039B000E9CF07E225EE46EE67EF7CE5E3CF08E2CC
:1039C00021E045EE6AED7CE5DDCF909369018093BF
:1039D000680108959093B3028093B2020895E09134
:1039E000B202F091B302309729F00190F081E02DFE
:1039F0000995089580E00895E091B202F091B30234
:103A0000309721F00280F381E02D099508952091EF
:103A1000B0023091B1022817390771F09093B102CA
:103A20008093B002E091B202F091B302309721F09E
:103A30000680F781E02D099508952091AE0230911E
:103A4000AF022817390771F09093AF028093AE024E
:103A5000E091B202F091B302309721F00084F18539
:103A6000E02D099508959C01AC014E5F5F4F285FE2
:103A70003F4F80E0FA0190814F5F5F4F91118F5F60
:103A800024173507B9F708959C01662351F0FC010E
:103A90003296285F3F4F8191861729F0E217F3078E
:103AA000D1F780E0089581E008959C01FC013296F1
:103AB0008FEF90E04191461751F08F3F19F441117B
:103AC00001C0892F9F5F9630A9F78F3F09F40895B1
:103AD000280F311D87FD3A95F901628308959C01F5
:103AE000FC013296285F3F4F8191861303C0DF01AE
:103AF00011971C92E217F307B9F708950E94551D1C
:103B000008950E946F1D0895FC01329686E0DF0142
:103B10001D928A95E9F7089508950E948C1D0895D5
:103B20008F5F8093B4020E948D1D089583E080937F
:103B3000B4020E948D1D08950E94901D089581E099
:103B40008093B4020E948D1D08950E949F1D0895C8
:103B5000089508950E94A91D0895089508950E944A
:103B6000A81D0895CF930E94AD1D0E94F9110E94D7
:103B7000AE1DC0E08C2F0E943011892B31F4CF5F35
:103B8000CC30C1F780E0CF91089581E0FCCF85B7BC
:103B9000806885BF85B7806885BF0895809146039A
:103BA000843011F00E949A0408950E9437080E9400
:103BB0009D04089582E084BD93E095BD9AEF97BD82
:103BC00080936E0008952FB7F89480913E039091F2
:103BD0003F03A0914003B09141032FBF0895A4E09B
:103BE000B0E0E5EFFDE10C9460258FB7F8942091EB
:103BF0003E0330913F03409140035091410329839C
:103C00003A834B835C838FBF69817A818B819C81EE
:103C10002496E2E00C947C259C014FB7F8948091A7
:103C20003E0390913F03A0914003B09141034FBFE9
:103C3000821B930B089578941F921FB61F92112434
:103C40008F939F93AF93BF9380913E0390913F03D7
:103C5000A0914003B09141030196A11DB11D809335
:103C60003E0390933F03A0934003B0934103BF9161
:103C7000AF919F918F911F901FBE1F90189587E75E
:103C800097E7909301088093000888E19AE00FB6C7
:103C9000F894A895809360000FBE90936000FFCFCA
:103CA00088E19AE00FB6F894A895809360000FBE63
:103CB00090936000FFCF8091BD020895089508950C
:103CC000CF93DF93D82FC92F81E08093E9008FEF46
:103CD0009091E80095FD07C095ED9A95F1F70000E9
:103CE00081508111F5CF8091E80085FD03C0DF91FF
:103CF000CF91089540E050E068E070E08D2F9C2F58
:103D00000E9433208091E8008E778093E80088E05D
:103D1000ED2FFC2FA5EBB2E001900D928A95E1F713
:103D2000E6CF0895089580914503811109C00E944E
:103D3000BB210E9418228091E20084608093E200FF
:103D400008951092450308950E949F1D0895609163
:103D5000420381E0611101C080E00E94961D0E9433
:103D60006D1A08959091460381E0943009F080E047
:103D7000609142030E949C1D0E94731A0E94EF1CD6
:103D80000E94AE04089542E061EC81E00E94372178
:103D90009091460381E0943009F080E06091420305
:103DA0000E94901D089580914803893089F148F45C
:103DB000823009F4A0C0833009F45AC0813041F048
:103DC00008958A3009F487C08B3009F46CC00895D7
:103DD00080914703813A09F04AC08091E800877FCB
:103DE0008093E80080914B0390914C03892B61F004
:103DF00060E080E090E070E00E9482208091E80026
:103E00008B778093E800089568E085EB92E0F3CF2C
:103E100080914703813259F580914B0390914C0377
:103E2000892B29F58091E800877F8093E8008091B5
:103E3000E80082FF18C09091F3008091F200029791
:103E400031F48091F100813011F0863021F48091BD
:103E5000F1008093BD028091E8008B778093E800A9
:103E60000E946B2104C0809146038111E0CF089528
:103E700080914703813AD9F780914B0390914C038D
:103E8000892BA9F78091E800877F8093E8008091D3
:103E9000E80080FFFCCF809125018093F1008091A4
:103EA000E8008E77DBCF80914703813201F7809164
:103EB0004B0390914C03892BD1F68091E800877FCA
:103EC0008093E8000E946B21809149038093250133
:103ED0000E943708089580914703813241F680910E
:103EE000E800877F8093E8000E946B2180914A035D
:103EF0008093BE02089580914703813A09F0B7CFBD
:103F00008091E800877F8093E8008091E80080FF3F
:103F1000FCCF8091BE02C1CF84B7877F84BF0FB62C
:103F2000F894A89580916000886180936000109259
:103F300060000FBE80E890E00FB6F89480936100B7
:103F4000909361000FBE0E94A51D08950E94BB21A1
:103F50000E941822E2EEF0E08081846080837894F1
:103F60000E949B24089589E191E00E94EA1C089533
:103F700080914603853031F480914603853019F0F5
:103F80000E94D51D08950E94CE1D80914403882370
:103F900099F30E94B21D882379F30E941D200E948C
:103FA0003708EACF08950E94D61F08959C01FB01AF
:103FB000DA01832F992783309105B9F050F48130CD
:103FC000910589F10297A1F180E090E020E030E0D6
:103FD0001AC08132910501F18297B1F780E490E037
:103FE00020E237E0EF2B81F70EC0C901992721307D
:103FF00069F08230910569F0E8EEF6E0892B21F74F
:10400000849190E09F012D933C930895E8EDF6E0B4
:10401000F7CFE6ECF6E0F4CF89E090E02EEF36E063
:10402000EF2B91F6F0CF82E190E02EE037E0EBCF7E
:1040300082E290E02CEE36E0E6CF80E189BD82E1BD
:1040400089BD09B400FEFDCF8091D8008F7D80939B
:10405000D8008091E00082608093E0008091E000D1
:1040600081FDFCCF0895AF92BF92CF92DF92FF9275
:104070000F931F93CF93DF936C01EB018A010E9492
:104080008A21F82E811123C00115110539F0F8019C
:1040900080819181C81BD90BC80ED91EA12CB12CCF
:1040A0002097A9F08091E80085FD22C08091E8006A
:1040B0008E778093E80001151105A1F0F801808149
:1040C00091818A0D9B1D9183808385E0F82E8F2D31
:1040D000DF91CF911F910F91FF90DF90CF90BF9014
:1040E000AF9008950E948A218823E1F2F82EEFCF45
:1040F000F60181916F018093F1002197FFEFAF1AD4
:10410000BF0ACECFFC019B0180914D0390914E03DD
:104110008617970718F0672B61F0C90140E00097F8
:1041200071F441110CC08091E80082FF35C080E03D
:1041300008958091E8008E778093E800EECF20917B
:1041400046032223A9F12530A9F12091E80023FD9F
:104150002DC02091E80022FDE6CF2091E80020FF4D
:10416000DECF3091F3002091F200009719F0283053
:10417000310558F041E02830310509F040E0209148
:10418000E8002E772093E800CACF41914093F100D8
:1041900001972F5F3F4FE9CF80914603882341F07D
:1041A000853041F08091E80083FFBDCF81E0089524
:1041B00082E0089583E00895FC019B0180914D0306
:1041C00090914E038617970718F0672B61F0C9018D
:1041D00040E0009771F441110CC08091E80082FF2B
:1041E00036C080E008958091E8008E778093E800E3
:1041F000EECF209146032223B1F12530B1F1209179
:10420000E80023FD2EC02091E80022FDE6CF20919A
:10421000E80020FFDECF3091F3002091F2000097FC
:1042200019F02830310558F041E02830310509F007
:1042300040E02091E8002E772093E800CACF449117
:104240004093F100319601972F5F3F4FE8CF809167
:104250004603882341F0853041F08091E80083FFD8
:10426000BCCF81E0089582E0089583E00895982FFF
:10427000973028F08F708093E90081E00895909343
:10428000E900242F762F50E0981731F07091EC0060
:104290002091ED005091F00021FD02C09F5FE8CF1A
:1042A0003091EB003E7F3093EB003091ED003D7F8D
:1042B0003093ED003091EB0031603093EB00709360
:1042C000EC002093ED005093F0002091EE0027FDCC
:1042D000E5CF80E008958091470387FF13C0809168
:1042E000E80082FF06C08091E8008B778093E800A9
:1042F00004C0809146038111F2CF08958091460356
:104300008823D9F38091E80080FFF8CF8091E800FE
:104310008E77ECCF2091E4003091E50095E6A9017D
:104320008091EC008170882331F08091E80080FF5B
:1043300006C080E008952091E80022FD1BC0809116
:104340004603882391F0853091F08091EB0085FD44
:1043500010C02091E4003091E5004217530701F3AB
:1043600091509111DCCF84E0089582E0089583E0BC
:10437000089581E008950E942A220E943222E0EEF0
:10438000F0E0808181608083E8EDF0E080818F77CC
:10439000808319BCA7EDB0E08C918E7F8C938081D7
:1043A0008F7E80831092450308950F931F93CF93C0
:1043B000DF930E942A220E943222C8EDD0E0888139
:1043C0008F77888388818068888388818F7D8883C0
:1043D00019BC1092460310924203109244031092AB
:1043E000430300EE10E0F80180818B7F8083888199
:1043F0008160888342E060E080E00E943721E1EE46
:10440000F0E080818E7F8083E2EEF0E08081816049
:104410008083808188608083F80180818E7F8083A3
:10442000888180618883DF91CF911F910F910895DA
:10443000E8EDF0E080818F7E8083E7EDF0E0808121
:104440008160808384E082BF81E0809345030E9485
:10445000D5210895E8EDF0E080818E7F8083109271
:10446000E20008951092DA001092E10008951F9280
:104470000F920FB60F9211242F933F934F935F9398
:104480006F937F938F939F93AF93BF93EF93FF931C
:104490008091E10082FF0BC08091E20082FF07C0A3
:1044A0008091E1008B7F8093E1000E949A248091AB
:1044B000DA0080FF19C08091D80080FF15C080917C
:1044C000DA008E7F8093DA008091D90080FF94C05B
:1044D00080E189BD82E189BD09B400FEFDCF81E0A4
:1044E000809346030E94931E8091E10080FF19C0D3
:1044F0008091E20080FF15C08091E2008E7F809362
:10450000E2008091E20080618093E2008091D80017
:1045100080628093D80019BC85E0809346030E9496
:10452000A71E8091E10084FF29C08091E20084FFF2
:1045300025C080E189BD82E189BD09B400FEFDCFBF
:104540008091D8008F7D8093D8008091E1008F7E8C
:104550008093E1008091E2008F7E8093E200809161
:10456000E20081608093E20080914203882309F495
:1045700049C084E0809346030E94B21E8091E1000E
:1045800083FF29C08091E20083FF25C08091E10074
:10459000877F8093E10082E080934603109242037C
:1045A0008091E1008E7F8093E1008091E2008E7F18
:1045B0008093E2008091E20080618093E20042E01B
:1045C00060E080E00E9437218091F0008860809355
:1045D000F0000E94A41EFF91EF91BF91AF919F91B7
:1045E0008F917F916F915F914F913F912F910F909C
:1045F0000FBE0F901F90189519BC109246030E9491
:10460000A11E72CF8091E30087FF02C083E0B2CF8A
:1046100081E0B0CF1F920F920FB60F921124FF923C
:104620000F931F932F933F934F935F936F937F93BA
:104630008F939F93AF93BF93CF93DF93EF93FF93AA
:1046400009EE10E0F8018081C091EC00C795CC27FD
:10465000C7958F70FC2EF82A1082C0EFD0E08881B9
:10466000877F888378940E945323F8011082888181
:1046700088608883CF2DCF70C083FF91EF91DF9149
:10468000CF91BF91AF919F918F917F916F915F91EA
:104690004F913F912F911F910F91FF900F900FBE5F
:1046A0000F901F901895AAE2B0E0E9E5F3E20C94B0
:1046B0005F2587E493E0FC0101962091F1002083BF
:1046C00023E08F349207B9F70E94D31E8091E8004F
:1046D00083FF38C080914703909148039A3090F54A
:1046E000E92FF0E0E356F94D0C941925803889F054
:1046F000823841F580914B038F70873018F5809395
:10470000E9008091EB0085FB882780F91092E90091
:1047100006C080914303909144039111826090916F
:10472000E800977F9093E8008093F1001092F100E9
:104730008091E8008E7723C0811116C080914903D3
:10474000813011F18091E80083FF0AC08091E80078
:10475000877F8093E8008091EB0080628093EB007C
:10476000AA96E3E00C947B25823061F7809149039F
:10477000882389F01092E9008091E800877F809378
:10478000E8000E946B21DECF81E0933009F080E0E9
:1047900080934403EFCF80914B038F702FEF280F4E
:1047A000263080F68093E9002091EB0020FFE2CFD5
:1047B000933031F48091EB0080628093EB00DACF8C
:1047C0009091EB0090619093EB0021E030E0A90123
:1047D00002C0440F551F8A95E2F74093EA001092F9
:1047E000EA008091EB008860E8CF8111ABCF109197
:1047F00049031F778091E3008078812B8093E30049
:104800008091E800877F8093E8000E946B2180916F
:10481000E80080FFFCCF8091E30080688093E30094
:1048200083E0111101C082E0809346038BCF805852
:10483000823008F087CF8091490390914A038C3DE4
:1048400053E0950799F583E08A838AE289834FB71D
:10485000F894DE01139620E03EE051E2E32FF0E011
:1048600050935700849120FF03C082958F703F5F63
:104870008F708A30C8F0895C90E08D939D932F5F94
:10488000243161F74FBF8091E800877F8093E80073
:104890006AE270E0CE0101960E9482208091E800D9
:1048A0008B778093E8004ECF805DE6CF60914B031D
:1048B00070914C03AE014F5F5F4F0E94D31FBC014C
:1048C000892B09F43FCF8091E800877F8093E8002F
:1048D00089819A810E94DC20E1CF803809F032CFB3
:1048E0008091E800877F8093E80080914203809365
:1048F000F1001ECF811126CF90914903923008F02C
:1049000021CF8091E800877F8093E8009093420355
:104910000E946B2180914203882331F084E08093D0
:1049200046030E94C31E0ECF8091E30087FDF6CFA1
:1049300081E0F5CF0895CF9380914603882399F0C5
:104940008091E900C091EC00C795CC27C7958F7086
:10495000C82B1092E9008091E80083FD0E94532348
:10496000CF70C093E900CF910895991B79E004C0FE
:10497000991F961708F0961B881F7A95C9F780959E
:10498000089587FB082E062687FD819567FD6195B2
:104990000E94B5240EF4919507FC81950895AA1BF9
:1049A000BB1B51E107C0AA1FBB1FA617B70710F01A
:1049B000A61BB70B881F991F5A95A9F7809590954C
:1049C000BC01CD01089597FB072E16F4009407D083
:1049D00077FD09D00E94CF2407FC05D03EF49095C6
:1049E00081959F4F0895709561957F4F0895A1E23D
:1049F0001A2EAA1BBB1BFD010DC0AA1FBB1FEE1F59
:104A0000FF1FA217B307E407F50720F0A21BB30BA3
:104A1000E40BF50B661F771F881F991F1A9469F71F
:104A200060957095809590959B01AC01BD01CF017B
:104A30000895EE0FFF1F0590F491E02D09940E9458
:104A40002725332312F48A1B9B0B0C943825A29F35
:104A5000B001B39FC001A39F700D811D1124911D52
:104A6000B29F700D811D1124911D08950E9427256C
:104A7000B7FF0895821B930B08950E942725A59FD9
:104A8000900DB49F900DA49F800D911D1124089549
:104A9000B7FF0C943D250E943D25821B930B089582
:104AA0002F923F924F925F926F927F928F929F923E
:104AB000AF92BF92CF92DF92EF92FF920F931F932C
:104AC000CF93DF93CDB7DEB7CA1BDB0B0FB6F894DD
:104AD000DEBF0FBECDBF09942A88398848885F841D
:104AE0006E847D848C849B84AA84B984C884DF808E
:104AF000EE80FD800C811B81AA81B981CE0FD11D72
:104B00000FB6F894DEBF0FBECDBFED0108958F92B2
:104B10009F92AF92BF92CF92DF92EF92FF92CF938C
:104B2000DF93EC01688179818A819B816115710530
:104B30008105910521F464E279ED8BE597E02DE1A3
:104B400033EF41E050E00E944E2649015A019B019B
:104B5000AC01A7EAB1E40E943D256B017C01ACEEFB
:104B6000B4EFA50194010E944B25DC01CB018C0D13
:104B70009D1DAE1DBF1DB7FF03C00197A109B04821
:104B800088839983AA83BB839F77DF91CF91FF901E
:104B9000EF90DF90CF90BF90AF909F908F9008954F
:104BA0000E948725089580E091E00E94872508955E
:104BB000B0E0A0E08093000190930101A093020176
:104BC000B09303010895FC014150504030F0019032
:104BD0000616D1F73197CF010895882799270895B0
:104BE000FB01DC0104C08D910190801921F441503A
:104BF0005040C8F7881B990B0895FB01DC0102C0E7
:104C000001900D9241505040D8F70895F999FECF88
:104C100092BD81BDF89A992780B50895A6E1B0E0CC
:104C200044E050E00C944026A8E1B0E042E050E0BF
:104C30000C944026262FF999FECF92BD81BDF89A9B
:104C4000019700B4021639F01FBA20BD0FB6F894D0
:104C5000FA9AF99A0FBE08950396272F0E941B26F1
:104C60000E941A26252F0E941B26242F0C941B26F7
:104C70000196272F0E941B260C941A26DC01CB01DB
:104C8000FC01F999FECF06C0F2BDE1BDF89A31965C
:104C900000B40D9241505040B8F70895052E97FB8F
:104CA0001EF400940E94652657FD07D00E94F72449
:104CB00007FC03D04EF40C94652650954095309532
:104CC00021953F4F4F4F5F4F089590958095709578
:104CD00061957F4F8F4F9F4F0895F894FFCF0B1A28
:104CE000121A171A1C1A211A261A2B1A301A351AD8
:104CF0003A1A3F1A431A481A4B1A4E1A511A541AA2
:104D0000561A591A631B671B6B1B771B7B1B7F1B78
:104D1000831B891B911B951B991B9D1BA91BAD1BFD
:104D2000B11BB51BBB1BD91BC31B731BA11BA51B35
:104D30008D1BBF1BCF1BE21BE61B76239C23A223EC
:0E4D40009C23A223F5231724A2236D247A249A
:104D4E0001000000F20101010200180018180119FB
:104D5E001A1B1C1D1E1F2021225B1E601E911E5E33
:104D6E001E921E5F1E0136323331F7946697C6349B
:104D7E0036323331F7F6946697C6343500010202A7
:104D8E0002020606060909090909090F0F0F0F0F7E
:104D9E000F15151518191919191919191919192382
:084DAE002425252525252500FB
:00000001FF
